{
	"contract-f627870540.sol": {
		"MivaToken": {
			"abi": [
				{
					"inputs": [],
					"stateMutability": "nonpayable",
					"type": "constructor"
				},
				{
					"inputs": [
						{
							"internalType": "address",
							"name": "target",
							"type": "address"
						}
					],
					"name": "AddressEmptyCode",
					"type": "error"
				},
				{
					"inputs": [
						{
							"internalType": "address",
							"name": "implementation",
							"type": "address"
						}
					],
					"name": "ERC1967InvalidImplementation",
					"type": "error"
				},
				{
					"inputs": [],
					"name": "ERC1967NonPayable",
					"type": "error"
				},
				{
					"inputs": [
						{
							"internalType": "address",
							"name": "spender",
							"type": "address"
						},
						{
							"internalType": "uint256",
							"name": "allowance",
							"type": "uint256"
						},
						{
							"internalType": "uint256",
							"name": "needed",
							"type": "uint256"
						}
					],
					"name": "ERC20InsufficientAllowance",
					"type": "error"
				},
				{
					"inputs": [
						{
							"internalType": "address",
							"name": "sender",
							"type": "address"
						},
						{
							"internalType": "uint256",
							"name": "balance",
							"type": "uint256"
						},
						{
							"internalType": "uint256",
							"name": "needed",
							"type": "uint256"
						}
					],
					"name": "ERC20InsufficientBalance",
					"type": "error"
				},
				{
					"inputs": [
						{
							"internalType": "address",
							"name": "approver",
							"type": "address"
						}
					],
					"name": "ERC20InvalidApprover",
					"type": "error"
				},
				{
					"inputs": [
						{
							"internalType": "address",
							"name": "receiver",
							"type": "address"
						}
					],
					"name": "ERC20InvalidReceiver",
					"type": "error"
				},
				{
					"inputs": [
						{
							"internalType": "address",
							"name": "sender",
							"type": "address"
						}
					],
					"name": "ERC20InvalidSender",
					"type": "error"
				},
				{
					"inputs": [
						{
							"internalType": "address",
							"name": "spender",
							"type": "address"
						}
					],
					"name": "ERC20InvalidSpender",
					"type": "error"
				},
				{
					"inputs": [],
					"name": "FailedInnerCall",
					"type": "error"
				},
				{
					"inputs": [],
					"name": "InvalidInitialization",
					"type": "error"
				},
				{
					"inputs": [],
					"name": "NotInitializing",
					"type": "error"
				},
				{
					"inputs": [
						{
							"internalType": "address",
							"name": "owner",
							"type": "address"
						}
					],
					"name": "OwnableInvalidOwner",
					"type": "error"
				},
				{
					"inputs": [
						{
							"internalType": "address",
							"name": "account",
							"type": "address"
						}
					],
					"name": "OwnableUnauthorizedAccount",
					"type": "error"
				},
				{
					"inputs": [],
					"name": "UUPSUnauthorizedCallContext",
					"type": "error"
				},
				{
					"inputs": [
						{
							"internalType": "bytes32",
							"name": "slot",
							"type": "bytes32"
						}
					],
					"name": "UUPSUnsupportedProxiableUUID",
					"type": "error"
				},
				{
					"anonymous": false,
					"inputs": [
						{
							"indexed": true,
							"internalType": "address",
							"name": "owner",
							"type": "address"
						},
						{
							"indexed": true,
							"internalType": "address",
							"name": "spender",
							"type": "address"
						},
						{
							"indexed": false,
							"internalType": "uint256",
							"name": "value",
							"type": "uint256"
						}
					],
					"name": "Approval",
					"type": "event"
				},
				{
					"anonymous": false,
					"inputs": [
						{
							"indexed": false,
							"internalType": "uint64",
							"name": "version",
							"type": "uint64"
						}
					],
					"name": "Initialized",
					"type": "event"
				},
				{
					"anonymous": false,
					"inputs": [
						{
							"indexed": true,
							"internalType": "address",
							"name": "previousOwner",
							"type": "address"
						},
						{
							"indexed": true,
							"internalType": "address",
							"name": "newOwner",
							"type": "address"
						}
					],
					"name": "OwnershipTransferred",
					"type": "event"
				},
				{
					"anonymous": false,
					"inputs": [
						{
							"indexed": true,
							"internalType": "address",
							"name": "from",
							"type": "address"
						},
						{
							"indexed": true,
							"internalType": "address",
							"name": "to",
							"type": "address"
						},
						{
							"indexed": false,
							"internalType": "uint256",
							"name": "value",
							"type": "uint256"
						}
					],
					"name": "Transfer",
					"type": "event"
				},
				{
					"anonymous": false,
					"inputs": [
						{
							"indexed": true,
							"internalType": "address",
							"name": "implementation",
							"type": "address"
						}
					],
					"name": "Upgraded",
					"type": "event"
				},
				{
					"inputs": [],
					"name": "UPGRADE_INTERFACE_VERSION",
					"outputs": [
						{
							"internalType": "string",
							"name": "",
							"type": "string"
						}
					],
					"stateMutability": "view",
					"type": "function"
				},
				{
					"inputs": [
						{
							"internalType": "address",
							"name": "owner",
							"type": "address"
						},
						{
							"internalType": "address",
							"name": "spender",
							"type": "address"
						}
					],
					"name": "allowance",
					"outputs": [
						{
							"internalType": "uint256",
							"name": "",
							"type": "uint256"
						}
					],
					"stateMutability": "view",
					"type": "function"
				},
				{
					"inputs": [
						{
							"internalType": "address",
							"name": "spender",
							"type": "address"
						},
						{
							"internalType": "uint256",
							"name": "value",
							"type": "uint256"
						}
					],
					"name": "approve",
					"outputs": [
						{
							"internalType": "bool",
							"name": "",
							"type": "bool"
						}
					],
					"stateMutability": "nonpayable",
					"type": "function"
				},
				{
					"inputs": [
						{
							"internalType": "address",
							"name": "account",
							"type": "address"
						}
					],
					"name": "balanceOf",
					"outputs": [
						{
							"internalType": "uint256",
							"name": "",
							"type": "uint256"
						}
					],
					"stateMutability": "view",
					"type": "function"
				},
				{
					"inputs": [],
					"name": "decimals",
					"outputs": [
						{
							"internalType": "uint8",
							"name": "",
							"type": "uint8"
						}
					],
					"stateMutability": "view",
					"type": "function"
				},
				{
					"inputs": [
						{
							"internalType": "address",
							"name": "initialOwner",
							"type": "address"
						}
					],
					"name": "initialize",
					"outputs": [],
					"stateMutability": "nonpayable",
					"type": "function"
				},
				{
					"inputs": [],
					"name": "name",
					"outputs": [
						{
							"internalType": "string",
							"name": "",
							"type": "string"
						}
					],
					"stateMutability": "view",
					"type": "function"
				},
				{
					"inputs": [],
					"name": "owner",
					"outputs": [
						{
							"internalType": "address",
							"name": "",
							"type": "address"
						}
					],
					"stateMutability": "view",
					"type": "function"
				},
				{
					"inputs": [],
					"name": "proxiableUUID",
					"outputs": [
						{
							"internalType": "bytes32",
							"name": "",
							"type": "bytes32"
						}
					],
					"stateMutability": "view",
					"type": "function"
				},
				{
					"inputs": [],
					"name": "renounceOwnership",
					"outputs": [],
					"stateMutability": "nonpayable",
					"type": "function"
				},
				{
					"inputs": [],
					"name": "symbol",
					"outputs": [
						{
							"internalType": "string",
							"name": "",
							"type": "string"
						}
					],
					"stateMutability": "view",
					"type": "function"
				},
				{
					"inputs": [],
					"name": "totalSupply",
					"outputs": [
						{
							"internalType": "uint256",
							"name": "",
							"type": "uint256"
						}
					],
					"stateMutability": "view",
					"type": "function"
				},
				{
					"inputs": [
						{
							"internalType": "address",
							"name": "to",
							"type": "address"
						},
						{
							"internalType": "uint256",
							"name": "value",
							"type": "uint256"
						}
					],
					"name": "transfer",
					"outputs": [
						{
							"internalType": "bool",
							"name": "",
							"type": "bool"
						}
					],
					"stateMutability": "nonpayable",
					"type": "function"
				},
				{
					"inputs": [
						{
							"internalType": "address",
							"name": "from",
							"type": "address"
						},
						{
							"internalType": "address",
							"name": "to",
							"type": "address"
						},
						{
							"internalType": "uint256",
							"name": "value",
							"type": "uint256"
						}
					],
					"name": "transferFrom",
					"outputs": [
						{
							"internalType": "bool",
							"name": "",
							"type": "bool"
						}
					],
					"stateMutability": "nonpayable",
					"type": "function"
				},
				{
					"inputs": [
						{
							"internalType": "address",
							"name": "newOwner",
							"type": "address"
						}
					],
					"name": "transferOwnership",
					"outputs": [],
					"stateMutability": "nonpayable",
					"type": "function"
				},
				{
					"inputs": [
						{
							"internalType": "address",
							"name": "newImplementation",
							"type": "address"
						},
						{
							"internalType": "bytes",
							"name": "data",
							"type": "bytes"
						}
					],
					"name": "upgradeToAndCall",
					"outputs": [],
					"stateMutability": "payable",
					"type": "function"
				}
			],
			"devdoc": {
				"errors": {
					"AddressEmptyCode(address)": [
						{
							"details": "There's no code at `target` (it is not a contract)."
						}
					],
					"ERC1967InvalidImplementation(address)": [
						{
							"details": "The `implementation` of the proxy is invalid."
						}
					],
					"ERC1967NonPayable()": [
						{
							"details": "An upgrade function sees `msg.value > 0` that may be lost."
						}
					],
					"ERC20InsufficientAllowance(address,uint256,uint256)": [
						{
							"details": "Indicates a failure with the `spender`’s `allowance`. Used in transfers.",
							"params": {
								"allowance": "Amount of tokens a `spender` is allowed to operate with.",
								"needed": "Minimum amount required to perform a transfer.",
								"spender": "Address that may be allowed to operate on tokens without being their owner."
							}
						}
					],
					"ERC20InsufficientBalance(address,uint256,uint256)": [
						{
							"details": "Indicates an error related to the current `balance` of a `sender`. Used in transfers.",
							"params": {
								"balance": "Current balance for the interacting account.",
								"needed": "Minimum amount required to perform a transfer.",
								"sender": "Address whose tokens are being transferred."
							}
						}
					],
					"ERC20InvalidApprover(address)": [
						{
							"details": "Indicates a failure with the `approver` of a token to be approved. Used in approvals.",
							"params": {
								"approver": "Address initiating an approval operation."
							}
						}
					],
					"ERC20InvalidReceiver(address)": [
						{
							"details": "Indicates a failure with the token `receiver`. Used in transfers.",
							"params": {
								"receiver": "Address to which tokens are being transferred."
							}
						}
					],
					"ERC20InvalidSender(address)": [
						{
							"details": "Indicates a failure with the token `sender`. Used in transfers.",
							"params": {
								"sender": "Address whose tokens are being transferred."
							}
						}
					],
					"ERC20InvalidSpender(address)": [
						{
							"details": "Indicates a failure with the `spender` to be approved. Used in approvals.",
							"params": {
								"spender": "Address that may be allowed to operate on tokens without being their owner."
							}
						}
					],
					"FailedInnerCall()": [
						{
							"details": "A call to an address target failed. The target may have reverted."
						}
					],
					"InvalidInitialization()": [
						{
							"details": "The contract is already initialized."
						}
					],
					"NotInitializing()": [
						{
							"details": "The contract is not initializing."
						}
					],
					"OwnableInvalidOwner(address)": [
						{
							"details": "The owner is not a valid owner account. (eg. `address(0)`)"
						}
					],
					"OwnableUnauthorizedAccount(address)": [
						{
							"details": "The caller account is not authorized to perform an operation."
						}
					],
					"UUPSUnauthorizedCallContext()": [
						{
							"details": "The call is from an unauthorized context."
						}
					],
					"UUPSUnsupportedProxiableUUID(bytes32)": [
						{
							"details": "The storage `slot` is unsupported as a UUID."
						}
					]
				},
				"events": {
					"Approval(address,address,uint256)": {
						"details": "Emitted when the allowance of a `spender` for an `owner` is set by a call to {approve}. `value` is the new allowance."
					},
					"Initialized(uint64)": {
						"details": "Triggered when the contract has been initialized or reinitialized."
					},
					"Transfer(address,address,uint256)": {
						"details": "Emitted when `value` tokens are moved from one account (`from`) to another (`to`). Note that `value` may be zero."
					},
					"Upgraded(address)": {
						"details": "Emitted when the implementation is upgraded."
					}
				},
				"kind": "dev",
				"methods": {
					"allowance(address,address)": {
						"details": "See {IERC20-allowance}."
					},
					"approve(address,uint256)": {
						"details": "See {IERC20-approve}. NOTE: If `value` is the maximum `uint256`, the allowance is not updated on `transferFrom`. This is semantically equivalent to an infinite approval. Requirements: - `spender` cannot be the zero address."
					},
					"balanceOf(address)": {
						"details": "See {IERC20-balanceOf}."
					},
					"constructor": {
						"custom:oz-upgrades-unsafe-allow": "constructor"
					},
					"decimals()": {
						"details": "Returns the number of decimals used to get its user representation. For example, if `decimals` equals `2`, a balance of `505` tokens should be displayed to a user as `5.05` (`505 / 10 ** 2`). Tokens usually opt for a value of 18, imitating the relationship between Ether and Wei. This is the default value returned by this function, unless it's overridden. NOTE: This information is only used for _display_ purposes: it in no way affects any of the arithmetic of the contract, including {IERC20-balanceOf} and {IERC20-transfer}."
					},
					"name()": {
						"details": "Returns the name of the token."
					},
					"owner()": {
						"details": "Returns the address of the current owner."
					},
					"proxiableUUID()": {
						"details": "Implementation of the ERC1822 {proxiableUUID} function. This returns the storage slot used by the implementation. It is used to validate the implementation's compatibility when performing an upgrade. IMPORTANT: A proxy pointing at a proxiable contract should not be considered proxiable itself, because this risks bricking a proxy that upgrades to it, by delegating to itself until out of gas. Thus it is critical that this function revert if invoked through a proxy. This is guaranteed by the `notDelegated` modifier."
					},
					"renounceOwnership()": {
						"details": "Leaves the contract without owner. It will not be possible to call `onlyOwner` functions. Can only be called by the current owner. NOTE: Renouncing ownership will leave the contract without an owner, thereby disabling any functionality that is only available to the owner."
					},
					"symbol()": {
						"details": "Returns the symbol of the token, usually a shorter version of the name."
					},
					"totalSupply()": {
						"details": "See {IERC20-totalSupply}."
					},
					"transfer(address,uint256)": {
						"details": "See {IERC20-transfer}. Requirements: - `to` cannot be the zero address. - the caller must have a balance of at least `value`."
					},
					"transferFrom(address,address,uint256)": {
						"details": "See {IERC20-transferFrom}. Emits an {Approval} event indicating the updated allowance. This is not required by the EIP. See the note at the beginning of {ERC20}. NOTE: Does not update the allowance if the current allowance is the maximum `uint256`. Requirements: - `from` and `to` cannot be the zero address. - `from` must have a balance of at least `value`. - the caller must have allowance for ``from``'s tokens of at least `value`."
					},
					"transferOwnership(address)": {
						"details": "Transfers ownership of the contract to a new account (`newOwner`). Can only be called by the current owner."
					},
					"upgradeToAndCall(address,bytes)": {
						"custom:oz-upgrades-unsafe-allow-reachable": "delegatecall",
						"details": "Upgrade the implementation of the proxy to `newImplementation`, and subsequently execute the function call encoded in `data`. Calls {_authorizeUpgrade}. Emits an {Upgraded} event."
					}
				},
				"version": 1
			},
			"evm": {
				"assembly": "    /* \"contract-f627870540.sol\":392:957  contract MivaToken is Initializable, ERC20Upgradeable, OwnableUpgradeable, UUPSUpgradeable {... */\n  mstore(0x40, 0xa0)\n    /* \"@openzeppelin/contracts-upgradeable@5.0.0/proxy/utils/UUPSUpgradeable.sol\":1171:1175  this */\n  address\n    /* \"@openzeppelin/contracts-upgradeable@5.0.0/proxy/utils/UUPSUpgradeable.sol\":1128:1176  address private immutable __self = address(this) */\n  0xffffffffffffffffffffffffffffffffffffffff\n  and\n  0x80\n  swap1\n  0xffffffffffffffffffffffffffffffffffffffff\n  and\n  dup2\n  mstore\n  pop\n    /* \"contract-f627870540.sol\":542:595  constructor() {... */\n  callvalue\n  dup1\n  iszero\n  tag_1\n  jumpi\n  0x00\n  dup1\n  revert\ntag_1:\n  pop\n    /* \"contract-f627870540.sol\":566:588  _disableInitializers() */\n  tag_4\n    /* \"contract-f627870540.sol\":566:586  _disableInitializers */\n  shl(0x20, tag_5)\n    /* \"contract-f627870540.sol\":566:588  _disableInitializers() */\n  0x20\n  shr\n  jump\t// in\ntag_4:\n    /* \"contract-f627870540.sol\":392:957  contract MivaToken is Initializable, ERC20Upgradeable, OwnableUpgradeable, UUPSUpgradeable {... */\n  jump(tag_6)\n    /* \"@openzeppelin/contracts-upgradeable@5.0.0/proxy/utils/Initializable.sol\":7711:8133  function _disableInitializers() internal virtual {... */\ntag_5:\n    /* \"@openzeppelin/contracts-upgradeable@5.0.0/proxy/utils/Initializable.sol\":7826:7856  InitializableStorage storage $ */\n  0x00\n    /* \"@openzeppelin/contracts-upgradeable@5.0.0/proxy/utils/Initializable.sol\":7859:7885  _getInitializableStorage() */\n  tag_8\n    /* \"@openzeppelin/contracts-upgradeable@5.0.0/proxy/utils/Initializable.sol\":7859:7883  _getInitializableStorage */\n  shl(0x20, tag_9)\n    /* \"@openzeppelin/contracts-upgradeable@5.0.0/proxy/utils/Initializable.sol\":7859:7885  _getInitializableStorage() */\n  0x20\n  shr\n  jump\t// in\ntag_8:\n    /* \"@openzeppelin/contracts-upgradeable@5.0.0/proxy/utils/Initializable.sol\":7826:7885  InitializableStorage storage $ = _getInitializableStorage() */\n  swap1\n  pop\n    /* \"@openzeppelin/contracts-upgradeable@5.0.0/proxy/utils/Initializable.sol\":7900:7901  $ */\n  dup1\n    /* \"@openzeppelin/contracts-upgradeable@5.0.0/proxy/utils/Initializable.sol\":7900:7915  $._initializing */\n  0x00\n  add\n  0x08\n  swap1\n  sload\n  swap1\n  0x0100\n  exp\n  swap1\n  div\n  0xff\n  and\n    /* \"@openzeppelin/contracts-upgradeable@5.0.0/proxy/utils/Initializable.sol\":7896:7972  if ($._initializing) {... */\n  iszero\n  tag_10\n  jumpi\n    /* \"@openzeppelin/contracts-upgradeable@5.0.0/proxy/utils/Initializable.sol\":7938:7961  InvalidInitialization() */\n  mload(0x40)\n  0xf92ee8a900000000000000000000000000000000000000000000000000000000\n  dup2\n  mstore\n  0x04\n  add\n  mload(0x40)\n  dup1\n  swap2\n  sub\n  swap1\n  revert\n    /* \"@openzeppelin/contracts-upgradeable@5.0.0/proxy/utils/Initializable.sol\":7896:7972  if ($._initializing) {... */\ntag_10:\n    /* \"@openzeppelin/contracts-upgradeable@5.0.0/proxy/utils/Initializable.sol\":8003:8019  type(uint64).max */\n  0xffffffffffffffff\n    /* \"@openzeppelin/contracts-upgradeable@5.0.0/proxy/utils/Initializable.sol\":7985:8019  $._initialized != type(uint64).max */\n  dup1\n  and\n    /* \"@openzeppelin/contracts-upgradeable@5.0.0/proxy/utils/Initializable.sol\":7985:7986  $ */\n  dup2\n    /* \"@openzeppelin/contracts-upgradeable@5.0.0/proxy/utils/Initializable.sol\":7985:7999  $._initialized */\n  0x00\n  add\n  0x00\n  swap1\n  sload\n  swap1\n  0x0100\n  exp\n  swap1\n  div\n  0xffffffffffffffff\n  and\n    /* \"@openzeppelin/contracts-upgradeable@5.0.0/proxy/utils/Initializable.sol\":7985:8019  $._initialized != type(uint64).max */\n  0xffffffffffffffff\n  and\n  eq\n    /* \"@openzeppelin/contracts-upgradeable@5.0.0/proxy/utils/Initializable.sol\":7981:8127  if ($._initialized != type(uint64).max) {... */\n  tag_11\n  jumpi\n    /* \"@openzeppelin/contracts-upgradeable@5.0.0/proxy/utils/Initializable.sol\":8052:8068  type(uint64).max */\n  0xffffffffffffffff\n    /* \"@openzeppelin/contracts-upgradeable@5.0.0/proxy/utils/Initializable.sol\":8035:8036  $ */\n  dup2\n    /* \"@openzeppelin/contracts-upgradeable@5.0.0/proxy/utils/Initializable.sol\":8035:8049  $._initialized */\n  0x00\n  add\n  0x00\n    /* \"@openzeppelin/contracts-upgradeable@5.0.0/proxy/utils/Initializable.sol\":8035:8068  $._initialized = type(uint64).max */\n  0x0100\n  exp\n  dup2\n  sload\n  dup2\n  0xffffffffffffffff\n  mul\n  not\n  and\n  swap1\n  dup4\n  0xffffffffffffffff\n  and\n  mul\n  or\n  swap1\n  sstore\n  pop\n    /* \"@openzeppelin/contracts-upgradeable@5.0.0/proxy/utils/Initializable.sol\":8087:8116  Initialized(type(uint64).max) */\n  0xc7f505b2f371ae2175ee4913f4499e1f2633a7b5936321eed1cdaeb6115181d2\n    /* \"@openzeppelin/contracts-upgradeable@5.0.0/proxy/utils/Initializable.sol\":8099:8115  type(uint64).max */\n  0xffffffffffffffff\n    /* \"@openzeppelin/contracts-upgradeable@5.0.0/proxy/utils/Initializable.sol\":8087:8116  Initialized(type(uint64).max) */\n  mload(0x40)\n  tag_12\n  swap2\n  swap1\n  tag_13\n  jump\t// in\ntag_12:\n  mload(0x40)\n  dup1\n  swap2\n  sub\n  swap1\n  log1\n    /* \"@openzeppelin/contracts-upgradeable@5.0.0/proxy/utils/Initializable.sol\":7981:8127  if ($._initialized != type(uint64).max) {... */\ntag_11:\n    /* \"@openzeppelin/contracts-upgradeable@5.0.0/proxy/utils/Initializable.sol\":7760:8133  {... */\n  pop\n    /* \"@openzeppelin/contracts-upgradeable@5.0.0/proxy/utils/Initializable.sol\":7711:8133  function _disableInitializers() internal virtual {... */\n  jump\t// out\n    /* \"@openzeppelin/contracts-upgradeable@5.0.0/proxy/utils/Initializable.sol\":8737:8907  function _getInitializableStorage() private pure returns (InitializableStorage storage $) {... */\ntag_9:\n    /* \"@openzeppelin/contracts-upgradeable@5.0.0/proxy/utils/Initializable.sol\":8795:8825  InitializableStorage storage $ */\n  0x00\n    /* \"@openzeppelin/contracts-upgradeable@5.0.0/proxy/utils/Initializable.sol\":8870:8891  INITIALIZABLE_STORAGE */\n  0xf0c57e16840df040f15088dc2f81fe391c3923bec73e23a9662efc9c229c6a00\n    /* \"@openzeppelin/contracts-upgradeable@5.0.0/proxy/utils/Initializable.sol\":8860:8891  $.slot := INITIALIZABLE_STORAGE */\n  swap1\n  pop\n    /* \"@openzeppelin/contracts-upgradeable@5.0.0/proxy/utils/Initializable.sol\":8737:8907  function _getInitializableStorage() private pure returns (InitializableStorage storage $) {... */\n  swap1\n  jump\t// out\n    /* \"#utility.yul\":7:108   */\ntag_15:\n    /* \"#utility.yul\":43:50   */\n  0x00\n    /* \"#utility.yul\":83:101   */\n  0xffffffffffffffff\n    /* \"#utility.yul\":76:81   */\n  dup3\n    /* \"#utility.yul\":72:102   */\n  and\n    /* \"#utility.yul\":61:102   */\n  swap1\n  pop\n    /* \"#utility.yul\":7:108   */\n  swap2\n  swap1\n  pop\n  jump\t// out\n    /* \"#utility.yul\":114:229   */\ntag_16:\n    /* \"#utility.yul\":199:222   */\n  tag_20\n    /* \"#utility.yul\":216:221   */\n  dup2\n    /* \"#utility.yul\":199:222   */\n  tag_15\n  jump\t// in\ntag_20:\n    /* \"#utility.yul\":194:197   */\n  dup3\n    /* \"#utility.yul\":187:223   */\n  mstore\n    /* \"#utility.yul\":114:229   */\n  pop\n  pop\n  jump\t// out\n    /* \"#utility.yul\":235:453   */\ntag_13:\n    /* \"#utility.yul\":326:330   */\n  0x00\n    /* \"#utility.yul\":364:366   */\n  0x20\n    /* \"#utility.yul\":353:362   */\n  dup3\n    /* \"#utility.yul\":349:367   */\n  add\n    /* \"#utility.yul\":341:367   */\n  swap1\n  pop\n    /* \"#utility.yul\":377:446   */\n  tag_22\n    /* \"#utility.yul\":443:444   */\n  0x00\n    /* \"#utility.yul\":432:441   */\n  dup4\n    /* \"#utility.yul\":428:445   */\n  add\n    /* \"#utility.yul\":419:425   */\n  dup5\n    /* \"#utility.yul\":377:446   */\n  tag_16\n  jump\t// in\ntag_22:\n    /* \"#utility.yul\":235:453   */\n  swap3\n  swap2\n  pop\n  pop\n  jump\t// out\n    /* \"contract-f627870540.sol\":392:957  contract MivaToken is Initializable, ERC20Upgradeable, OwnableUpgradeable, UUPSUpgradeable {... */\ntag_6:\n  mload(0x80)\n  codecopy(0x00, dataOffset(sub_0), dataSize(sub_0))\n  0x00\n  assignImmutable(\"0x0b83f23a4eeb8c3f5f7d5934a2289bcf0186d09a12e1b7f20adf54e4b179db15\")\n  return(0x00, dataSize(sub_0))\nstop\n\nsub_0: assembly {\n        /* \"contract-f627870540.sol\":392:957  contract MivaToken is Initializable, ERC20Upgradeable, OwnableUpgradeable, UUPSUpgradeable {... */\n      mstore(0x40, 0x80)\n      jumpi(tag_1, lt(calldatasize, 0x04))\n      shr(0xe0, calldataload(0x00))\n      dup1\n      0x715018a6\n      gt\n      tag_18\n      jumpi\n      dup1\n      0xad3cb1cc\n      gt\n      tag_19\n      jumpi\n      dup1\n      0xad3cb1cc\n      eq\n      tag_14\n      jumpi\n      dup1\n      0xc4d66de8\n      eq\n      tag_15\n      jumpi\n      dup1\n      0xdd62ed3e\n      eq\n      tag_16\n      jumpi\n      dup1\n      0xf2fde38b\n      eq\n      tag_17\n      jumpi\n      jump(tag_1)\n    tag_19:\n      dup1\n      0x715018a6\n      eq\n      tag_10\n      jumpi\n      dup1\n      0x8da5cb5b\n      eq\n      tag_11\n      jumpi\n      dup1\n      0x95d89b41\n      eq\n      tag_12\n      jumpi\n      dup1\n      0xa9059cbb\n      eq\n      tag_13\n      jumpi\n      jump(tag_1)\n    tag_18:\n      dup1\n      0x313ce567\n      gt\n      tag_20\n      jumpi\n      dup1\n      0x313ce567\n      eq\n      tag_6\n      jumpi\n      dup1\n      0x4f1ef286\n      eq\n      tag_7\n      jumpi\n      dup1\n      0x52d1902d\n      eq\n      tag_8\n      jumpi\n      dup1\n      0x70a08231\n      eq\n      tag_9\n      jumpi\n      jump(tag_1)\n    tag_20:\n      dup1\n      0x06fdde03\n      eq\n      tag_2\n      jumpi\n      dup1\n      0x095ea7b3\n      eq\n      tag_3\n      jumpi\n      dup1\n      0x18160ddd\n      eq\n      tag_4\n      jumpi\n      dup1\n      0x23b872dd\n      eq\n      tag_5\n      jumpi\n    tag_1:\n      0x00\n      dup1\n      revert\n        /* \"@openzeppelin/contracts-upgradeable@5.0.0/token/ERC20/ERC20Upgradeable.sol\":3011:3155  function name() public view virtual returns (string memory) {... */\n    tag_2:\n      callvalue\n      dup1\n      iszero\n      tag_21\n      jumpi\n      0x00\n      dup1\n      revert\n    tag_21:\n      pop\n      tag_22\n      tag_23\n      jump\t// in\n    tag_22:\n      mload(0x40)\n      tag_24\n      swap2\n      swap1\n      tag_25\n      jump\t// in\n    tag_24:\n      mload(0x40)\n      dup1\n      swap2\n      sub\n      swap1\n      return\n        /* \"@openzeppelin/contracts-upgradeable@5.0.0/token/ERC20/ERC20Upgradeable.sol\":5505:5691  function approve(address spender, uint256 value) public virtual returns (bool) {... */\n    tag_3:\n      callvalue\n      dup1\n      iszero\n      tag_26\n      jumpi\n      0x00\n      dup1\n      revert\n    tag_26:\n      pop\n      tag_27\n      0x04\n      dup1\n      calldatasize\n      sub\n      dup2\n      add\n      swap1\n      tag_28\n      swap2\n      swap1\n      tag_29\n      jump\t// in\n    tag_28:\n      tag_30\n      jump\t// in\n    tag_27:\n      mload(0x40)\n      tag_31\n      swap2\n      swap1\n      tag_32\n      jump\t// in\n    tag_31:\n      mload(0x40)\n      dup1\n      swap2\n      sub\n      swap1\n      return\n        /* \"@openzeppelin/contracts-upgradeable@5.0.0/token/ERC20/ERC20Upgradeable.sol\":4191:4343  function totalSupply() public view virtual returns (uint256) {... */\n    tag_4:\n      callvalue\n      dup1\n      iszero\n      tag_33\n      jumpi\n      0x00\n      dup1\n      revert\n    tag_33:\n      pop\n      tag_34\n      tag_35\n      jump\t// in\n    tag_34:\n      mload(0x40)\n      tag_36\n      swap2\n      swap1\n      tag_37\n      jump\t// in\n    tag_36:\n      mload(0x40)\n      dup1\n      swap2\n      sub\n      swap1\n      return\n        /* \"@openzeppelin/contracts-upgradeable@5.0.0/token/ERC20/ERC20Upgradeable.sol\":6251:6495  function transferFrom(address from, address to, uint256 value) public virtual returns (bool) {... */\n    tag_5:\n      callvalue\n      dup1\n      iszero\n      tag_38\n      jumpi\n      0x00\n      dup1\n      revert\n    tag_38:\n      pop\n      tag_39\n      0x04\n      dup1\n      calldatasize\n      sub\n      dup2\n      add\n      swap1\n      tag_40\n      swap2\n      swap1\n      tag_41\n      jump\t// in\n    tag_40:\n      tag_42\n      jump\t// in\n    tag_39:\n      mload(0x40)\n      tag_43\n      swap2\n      swap1\n      tag_32\n      jump\t// in\n    tag_43:\n      mload(0x40)\n      dup1\n      swap2\n      sub\n      swap1\n      return\n        /* \"@openzeppelin/contracts-upgradeable@5.0.0/token/ERC20/ERC20Upgradeable.sol\":4049:4131  function decimals() public view virtual returns (uint8) {... */\n    tag_6:\n      callvalue\n      dup1\n      iszero\n      tag_44\n      jumpi\n      0x00\n      dup1\n      revert\n    tag_44:\n      pop\n      tag_45\n      tag_46\n      jump\t// in\n    tag_45:\n      mload(0x40)\n      tag_47\n      swap2\n      swap1\n      tag_48\n      jump\t// in\n    tag_47:\n      mload(0x40)\n      dup1\n      swap2\n      sub\n      swap1\n      return\n        /* \"@openzeppelin/contracts-upgradeable@5.0.0/proxy/utils/UUPSUpgradeable.sol\":4158:4372  function upgradeToAndCall(address newImplementation, bytes memory data) public payable virtual onlyProxy {... */\n    tag_7:\n      tag_49\n      0x04\n      dup1\n      calldatasize\n      sub\n      dup2\n      add\n      swap1\n      tag_50\n      swap2\n      swap1\n      tag_51\n      jump\t// in\n    tag_50:\n      tag_52\n      jump\t// in\n    tag_49:\n      stop\n        /* \"@openzeppelin/contracts-upgradeable@5.0.0/proxy/utils/UUPSUpgradeable.sol\":3705:3839  function proxiableUUID() external view virtual notDelegated returns (bytes32) {... */\n    tag_8:\n      callvalue\n      dup1\n      iszero\n      tag_53\n      jumpi\n      0x00\n      dup1\n      revert\n    tag_53:\n      pop\n      tag_54\n      tag_55\n      jump\t// in\n    tag_54:\n      mload(0x40)\n      tag_56\n      swap2\n      swap1\n      tag_57\n      jump\t// in\n    tag_56:\n      mload(0x40)\n      dup1\n      swap2\n      sub\n      swap1\n      return\n        /* \"@openzeppelin/contracts-upgradeable@5.0.0/token/ERC20/ERC20Upgradeable.sol\":4401:4572  function balanceOf(address account) public view virtual returns (uint256) {... */\n    tag_9:\n      callvalue\n      dup1\n      iszero\n      tag_58\n      jumpi\n      0x00\n      dup1\n      revert\n    tag_58:\n      pop\n      tag_59\n      0x04\n      dup1\n      calldatasize\n      sub\n      dup2\n      add\n      swap1\n      tag_60\n      swap2\n      swap1\n      tag_61\n      jump\t// in\n    tag_60:\n      tag_62\n      jump\t// in\n    tag_59:\n      mload(0x40)\n      tag_63\n      swap2\n      swap1\n      tag_37\n      jump\t// in\n    tag_63:\n      mload(0x40)\n      dup1\n      swap2\n      sub\n      swap1\n      return\n        /* \"@openzeppelin/contracts-upgradeable@5.0.0/access/OwnableUpgradeable.sol\":3155:3256  function renounceOwnership() public virtual onlyOwner {... */\n    tag_10:\n      callvalue\n      dup1\n      iszero\n      tag_64\n      jumpi\n      0x00\n      dup1\n      revert\n    tag_64:\n      pop\n      tag_65\n      tag_66\n      jump\t// in\n    tag_65:\n      stop\n        /* \"@openzeppelin/contracts-upgradeable@5.0.0/access/OwnableUpgradeable.sol\":2441:2585  function owner() public view virtual returns (address) {... */\n    tag_11:\n      callvalue\n      dup1\n      iszero\n      tag_67\n      jumpi\n      0x00\n      dup1\n      revert\n    tag_67:\n      pop\n      tag_68\n      tag_69\n      jump\t// in\n    tag_68:\n      mload(0x40)\n      tag_70\n      swap2\n      swap1\n      tag_71\n      jump\t// in\n    tag_70:\n      mload(0x40)\n      dup1\n      swap2\n      sub\n      swap1\n      return\n        /* \"@openzeppelin/contracts-upgradeable@5.0.0/token/ERC20/ERC20Upgradeable.sol\":3268:3416  function symbol() public view virtual returns (string memory) {... */\n    tag_12:\n      callvalue\n      dup1\n      iszero\n      tag_72\n      jumpi\n      0x00\n      dup1\n      revert\n    tag_72:\n      pop\n      tag_73\n      tag_74\n      jump\t// in\n    tag_73:\n      mload(0x40)\n      tag_75\n      swap2\n      swap1\n      tag_25\n      jump\t// in\n    tag_75:\n      mload(0x40)\n      dup1\n      swap2\n      sub\n      swap1\n      return\n        /* \"@openzeppelin/contracts-upgradeable@5.0.0/token/ERC20/ERC20Upgradeable.sol\":4767:4945  function transfer(address to, uint256 value) public virtual returns (bool) {... */\n    tag_13:\n      callvalue\n      dup1\n      iszero\n      tag_76\n      jumpi\n      0x00\n      dup1\n      revert\n    tag_76:\n      pop\n      tag_77\n      0x04\n      dup1\n      calldatasize\n      sub\n      dup2\n      add\n      swap1\n      tag_78\n      swap2\n      swap1\n      tag_29\n      jump\t// in\n    tag_78:\n      tag_79\n      jump\t// in\n    tag_77:\n      mload(0x40)\n      tag_80\n      swap2\n      swap1\n      tag_32\n      jump\t// in\n    tag_80:\n      mload(0x40)\n      dup1\n      swap2\n      sub\n      swap1\n      return\n        /* \"@openzeppelin/contracts-upgradeable@5.0.0/proxy/utils/UUPSUpgradeable.sol\":1819:1877  string public constant UPGRADE_INTERFACE_VERSION = \"5.0.0\" */\n    tag_14:\n      callvalue\n      dup1\n      iszero\n      tag_81\n      jumpi\n      0x00\n      dup1\n      revert\n    tag_81:\n      pop\n      tag_82\n      tag_83\n      jump\t// in\n    tag_82:\n      mload(0x40)\n      tag_84\n      swap2\n      swap1\n      tag_25\n      jump\t// in\n    tag_84:\n      mload(0x40)\n      dup1\n      swap2\n      sub\n      swap1\n      return\n        /* \"contract-f627870540.sol\":601:837  function initialize(address initialOwner) initializer public {... */\n    tag_15:\n      callvalue\n      dup1\n      iszero\n      tag_85\n      jumpi\n      0x00\n      dup1\n      revert\n    tag_85:\n      pop\n      tag_86\n      0x04\n      dup1\n      calldatasize\n      sub\n      dup2\n      add\n      swap1\n      tag_87\n      swap2\n      swap1\n      tag_61\n      jump\t// in\n    tag_87:\n      tag_88\n      jump\t// in\n    tag_86:\n      stop\n        /* \"@openzeppelin/contracts-upgradeable@5.0.0/token/ERC20/ERC20Upgradeable.sol\":5003:5198  function allowance(address owner, address spender) public view virtual returns (uint256) {... */\n    tag_16:\n      callvalue\n      dup1\n      iszero\n      tag_89\n      jumpi\n      0x00\n      dup1\n      revert\n    tag_89:\n      pop\n      tag_90\n      0x04\n      dup1\n      calldatasize\n      sub\n      dup2\n      add\n      swap1\n      tag_91\n      swap2\n      swap1\n      tag_92\n      jump\t// in\n    tag_91:\n      tag_93\n      jump\t// in\n    tag_90:\n      mload(0x40)\n      tag_94\n      swap2\n      swap1\n      tag_37\n      jump\t// in\n    tag_94:\n      mload(0x40)\n      dup1\n      swap2\n      sub\n      swap1\n      return\n        /* \"@openzeppelin/contracts-upgradeable@5.0.0/access/OwnableUpgradeable.sol\":3405:3620  function transferOwnership(address newOwner) public virtual onlyOwner {... */\n    tag_17:\n      callvalue\n      dup1\n      iszero\n      tag_95\n      jumpi\n      0x00\n      dup1\n      revert\n    tag_95:\n      pop\n      tag_96\n      0x04\n      dup1\n      calldatasize\n      sub\n      dup2\n      add\n      swap1\n      tag_97\n      swap2\n      swap1\n      tag_61\n      jump\t// in\n    tag_97:\n      tag_98\n      jump\t// in\n    tag_96:\n      stop\n        /* \"@openzeppelin/contracts-upgradeable@5.0.0/token/ERC20/ERC20Upgradeable.sol\":3011:3155  function name() public view virtual returns (string memory) {... */\n    tag_23:\n        /* \"@openzeppelin/contracts-upgradeable@5.0.0/token/ERC20/ERC20Upgradeable.sol\":3056:3069  string memory */\n      0x60\n        /* \"@openzeppelin/contracts-upgradeable@5.0.0/token/ERC20/ERC20Upgradeable.sol\":3081:3103  ERC20Storage storage $ */\n      0x00\n        /* \"@openzeppelin/contracts-upgradeable@5.0.0/token/ERC20/ERC20Upgradeable.sol\":3106:3124  _getERC20Storage() */\n      tag_100\n        /* \"@openzeppelin/contracts-upgradeable@5.0.0/token/ERC20/ERC20Upgradeable.sol\":3106:3122  _getERC20Storage */\n      tag_101\n        /* \"@openzeppelin/contracts-upgradeable@5.0.0/token/ERC20/ERC20Upgradeable.sol\":3106:3124  _getERC20Storage() */\n      jump\t// in\n    tag_100:\n        /* \"@openzeppelin/contracts-upgradeable@5.0.0/token/ERC20/ERC20Upgradeable.sol\":3081:3124  ERC20Storage storage $ = _getERC20Storage() */\n      swap1\n      pop\n        /* \"@openzeppelin/contracts-upgradeable@5.0.0/token/ERC20/ERC20Upgradeable.sol\":3141:3142  $ */\n      dup1\n        /* \"@openzeppelin/contracts-upgradeable@5.0.0/token/ERC20/ERC20Upgradeable.sol\":3141:3148  $._name */\n      0x03\n      add\n        /* \"@openzeppelin/contracts-upgradeable@5.0.0/token/ERC20/ERC20Upgradeable.sol\":3134:3148  return $._name */\n      dup1\n      sload\n      tag_102\n      swap1\n      tag_103\n      jump\t// in\n    tag_102:\n      dup1\n      0x1f\n      add\n      0x20\n      dup1\n      swap2\n      div\n      mul\n      0x20\n      add\n      mload(0x40)\n      swap1\n      dup2\n      add\n      0x40\n      mstore\n      dup1\n      swap3\n      swap2\n      swap1\n      dup2\n      dup2\n      mstore\n      0x20\n      add\n      dup3\n      dup1\n      sload\n      tag_104\n      swap1\n      tag_103\n      jump\t// in\n    tag_104:\n      dup1\n      iszero\n      tag_105\n      jumpi\n      dup1\n      0x1f\n      lt\n      tag_106\n      jumpi\n      0x0100\n      dup1\n      dup4\n      sload\n      div\n      mul\n      dup4\n      mstore\n      swap2\n      0x20\n      add\n      swap2\n      jump(tag_105)\n    tag_106:\n      dup3\n      add\n      swap2\n      swap1\n      0x00\n      mstore\n      keccak256(0x00, 0x20)\n      swap1\n    tag_107:\n      dup2\n      sload\n      dup2\n      mstore\n      swap1\n      0x01\n      add\n      swap1\n      0x20\n      add\n      dup1\n      dup4\n      gt\n      tag_107\n      jumpi\n      dup3\n      swap1\n      sub\n      0x1f\n      and\n      dup3\n      add\n      swap2\n    tag_105:\n      pop\n      pop\n      pop\n      pop\n      pop\n      swap2\n      pop\n      pop\n        /* \"@openzeppelin/contracts-upgradeable@5.0.0/token/ERC20/ERC20Upgradeable.sol\":3011:3155  function name() public view virtual returns (string memory) {... */\n      swap1\n      jump\t// out\n        /* \"@openzeppelin/contracts-upgradeable@5.0.0/token/ERC20/ERC20Upgradeable.sol\":5505:5691  function approve(address spender, uint256 value) public virtual returns (bool) {... */\n    tag_30:\n        /* \"@openzeppelin/contracts-upgradeable@5.0.0/token/ERC20/ERC20Upgradeable.sol\":5578:5582  bool */\n      0x00\n        /* \"@openzeppelin/contracts-upgradeable@5.0.0/token/ERC20/ERC20Upgradeable.sol\":5594:5607  address owner */\n      dup1\n        /* \"@openzeppelin/contracts-upgradeable@5.0.0/token/ERC20/ERC20Upgradeable.sol\":5610:5622  _msgSender() */\n      tag_109\n        /* \"@openzeppelin/contracts-upgradeable@5.0.0/token/ERC20/ERC20Upgradeable.sol\":5610:5620  _msgSender */\n      tag_110\n        /* \"@openzeppelin/contracts-upgradeable@5.0.0/token/ERC20/ERC20Upgradeable.sol\":5610:5622  _msgSender() */\n      jump\t// in\n    tag_109:\n        /* \"@openzeppelin/contracts-upgradeable@5.0.0/token/ERC20/ERC20Upgradeable.sol\":5594:5622  address owner = _msgSender() */\n      swap1\n      pop\n        /* \"@openzeppelin/contracts-upgradeable@5.0.0/token/ERC20/ERC20Upgradeable.sol\":5632:5663  _approve(owner, spender, value) */\n      tag_111\n        /* \"@openzeppelin/contracts-upgradeable@5.0.0/token/ERC20/ERC20Upgradeable.sol\":5641:5646  owner */\n      dup2\n        /* \"@openzeppelin/contracts-upgradeable@5.0.0/token/ERC20/ERC20Upgradeable.sol\":5648:5655  spender */\n      dup6\n        /* \"@openzeppelin/contracts-upgradeable@5.0.0/token/ERC20/ERC20Upgradeable.sol\":5657:5662  value */\n      dup6\n        /* \"@openzeppelin/contracts-upgradeable@5.0.0/token/ERC20/ERC20Upgradeable.sol\":5632:5640  _approve */\n      tag_112\n        /* \"@openzeppelin/contracts-upgradeable@5.0.0/token/ERC20/ERC20Upgradeable.sol\":5632:5663  _approve(owner, spender, value) */\n      jump\t// in\n    tag_111:\n        /* \"@openzeppelin/contracts-upgradeable@5.0.0/token/ERC20/ERC20Upgradeable.sol\":5680:5684  true */\n      0x01\n        /* \"@openzeppelin/contracts-upgradeable@5.0.0/token/ERC20/ERC20Upgradeable.sol\":5673:5684  return true */\n      swap2\n      pop\n      pop\n        /* \"@openzeppelin/contracts-upgradeable@5.0.0/token/ERC20/ERC20Upgradeable.sol\":5505:5691  function approve(address spender, uint256 value) public virtual returns (bool) {... */\n      swap3\n      swap2\n      pop\n      pop\n      jump\t// out\n        /* \"@openzeppelin/contracts-upgradeable@5.0.0/token/ERC20/ERC20Upgradeable.sol\":4191:4343  function totalSupply() public view virtual returns (uint256) {... */\n    tag_35:\n        /* \"@openzeppelin/contracts-upgradeable@5.0.0/token/ERC20/ERC20Upgradeable.sol\":4243:4250  uint256 */\n      0x00\n        /* \"@openzeppelin/contracts-upgradeable@5.0.0/token/ERC20/ERC20Upgradeable.sol\":4262:4284  ERC20Storage storage $ */\n      dup1\n        /* \"@openzeppelin/contracts-upgradeable@5.0.0/token/ERC20/ERC20Upgradeable.sol\":4287:4305  _getERC20Storage() */\n      tag_114\n        /* \"@openzeppelin/contracts-upgradeable@5.0.0/token/ERC20/ERC20Upgradeable.sol\":4287:4303  _getERC20Storage */\n      tag_101\n        /* \"@openzeppelin/contracts-upgradeable@5.0.0/token/ERC20/ERC20Upgradeable.sol\":4287:4305  _getERC20Storage() */\n      jump\t// in\n    tag_114:\n        /* \"@openzeppelin/contracts-upgradeable@5.0.0/token/ERC20/ERC20Upgradeable.sol\":4262:4305  ERC20Storage storage $ = _getERC20Storage() */\n      swap1\n      pop\n        /* \"@openzeppelin/contracts-upgradeable@5.0.0/token/ERC20/ERC20Upgradeable.sol\":4322:4323  $ */\n      dup1\n        /* \"@openzeppelin/contracts-upgradeable@5.0.0/token/ERC20/ERC20Upgradeable.sol\":4322:4336  $._totalSupply */\n      0x02\n      add\n      sload\n        /* \"@openzeppelin/contracts-upgradeable@5.0.0/token/ERC20/ERC20Upgradeable.sol\":4315:4336  return $._totalSupply */\n      swap2\n      pop\n      pop\n        /* \"@openzeppelin/contracts-upgradeable@5.0.0/token/ERC20/ERC20Upgradeable.sol\":4191:4343  function totalSupply() public view virtual returns (uint256) {... */\n      swap1\n      jump\t// out\n        /* \"@openzeppelin/contracts-upgradeable@5.0.0/token/ERC20/ERC20Upgradeable.sol\":6251:6495  function transferFrom(address from, address to, uint256 value) public virtual returns (bool) {... */\n    tag_42:\n        /* \"@openzeppelin/contracts-upgradeable@5.0.0/token/ERC20/ERC20Upgradeable.sol\":6338:6342  bool */\n      0x00\n        /* \"@openzeppelin/contracts-upgradeable@5.0.0/token/ERC20/ERC20Upgradeable.sol\":6354:6369  address spender */\n      dup1\n        /* \"@openzeppelin/contracts-upgradeable@5.0.0/token/ERC20/ERC20Upgradeable.sol\":6372:6384  _msgSender() */\n      tag_116\n        /* \"@openzeppelin/contracts-upgradeable@5.0.0/token/ERC20/ERC20Upgradeable.sol\":6372:6382  _msgSender */\n      tag_110\n        /* \"@openzeppelin/contracts-upgradeable@5.0.0/token/ERC20/ERC20Upgradeable.sol\":6372:6384  _msgSender() */\n      jump\t// in\n    tag_116:\n        /* \"@openzeppelin/contracts-upgradeable@5.0.0/token/ERC20/ERC20Upgradeable.sol\":6354:6384  address spender = _msgSender() */\n      swap1\n      pop\n        /* \"@openzeppelin/contracts-upgradeable@5.0.0/token/ERC20/ERC20Upgradeable.sol\":6394:6431  _spendAllowance(from, spender, value) */\n      tag_117\n        /* \"@openzeppelin/contracts-upgradeable@5.0.0/token/ERC20/ERC20Upgradeable.sol\":6410:6414  from */\n      dup6\n        /* \"@openzeppelin/contracts-upgradeable@5.0.0/token/ERC20/ERC20Upgradeable.sol\":6416:6423  spender */\n      dup3\n        /* \"@openzeppelin/contracts-upgradeable@5.0.0/token/ERC20/ERC20Upgradeable.sol\":6425:6430  value */\n      dup6\n        /* \"@openzeppelin/contracts-upgradeable@5.0.0/token/ERC20/ERC20Upgradeable.sol\":6394:6409  _spendAllowance */\n      tag_118\n        /* \"@openzeppelin/contracts-upgradeable@5.0.0/token/ERC20/ERC20Upgradeable.sol\":6394:6431  _spendAllowance(from, spender, value) */\n      jump\t// in\n    tag_117:\n        /* \"@openzeppelin/contracts-upgradeable@5.0.0/token/ERC20/ERC20Upgradeable.sol\":6441:6467  _transfer(from, to, value) */\n      tag_119\n        /* \"@openzeppelin/contracts-upgradeable@5.0.0/token/ERC20/ERC20Upgradeable.sol\":6451:6455  from */\n      dup6\n        /* \"@openzeppelin/contracts-upgradeable@5.0.0/token/ERC20/ERC20Upgradeable.sol\":6457:6459  to */\n      dup6\n        /* \"@openzeppelin/contracts-upgradeable@5.0.0/token/ERC20/ERC20Upgradeable.sol\":6461:6466  value */\n      dup6\n        /* \"@openzeppelin/contracts-upgradeable@5.0.0/token/ERC20/ERC20Upgradeable.sol\":6441:6450  _transfer */\n      tag_120\n        /* \"@openzeppelin/contracts-upgradeable@5.0.0/token/ERC20/ERC20Upgradeable.sol\":6441:6467  _transfer(from, to, value) */\n      jump\t// in\n    tag_119:\n        /* \"@openzeppelin/contracts-upgradeable@5.0.0/token/ERC20/ERC20Upgradeable.sol\":6484:6488  true */\n      0x01\n        /* \"@openzeppelin/contracts-upgradeable@5.0.0/token/ERC20/ERC20Upgradeable.sol\":6477:6488  return true */\n      swap2\n      pop\n      pop\n        /* \"@openzeppelin/contracts-upgradeable@5.0.0/token/ERC20/ERC20Upgradeable.sol\":6251:6495  function transferFrom(address from, address to, uint256 value) public virtual returns (bool) {... */\n      swap4\n      swap3\n      pop\n      pop\n      pop\n      jump\t// out\n        /* \"@openzeppelin/contracts-upgradeable@5.0.0/token/ERC20/ERC20Upgradeable.sol\":4049:4131  function decimals() public view virtual returns (uint8) {... */\n    tag_46:\n        /* \"@openzeppelin/contracts-upgradeable@5.0.0/token/ERC20/ERC20Upgradeable.sol\":4098:4103  uint8 */\n      0x00\n        /* \"@openzeppelin/contracts-upgradeable@5.0.0/token/ERC20/ERC20Upgradeable.sol\":4122:4124  18 */\n      0x12\n        /* \"@openzeppelin/contracts-upgradeable@5.0.0/token/ERC20/ERC20Upgradeable.sol\":4115:4124  return 18 */\n      swap1\n      pop\n        /* \"@openzeppelin/contracts-upgradeable@5.0.0/token/ERC20/ERC20Upgradeable.sol\":4049:4131  function decimals() public view virtual returns (uint8) {... */\n      swap1\n      jump\t// out\n        /* \"@openzeppelin/contracts-upgradeable@5.0.0/proxy/utils/UUPSUpgradeable.sol\":4158:4372  function upgradeToAndCall(address newImplementation, bytes memory data) public payable virtual onlyProxy {... */\n    tag_52:\n        /* \"@openzeppelin/contracts-upgradeable@5.0.0/proxy/utils/UUPSUpgradeable.sol\":2653:2666  _checkProxy() */\n      tag_123\n        /* \"@openzeppelin/contracts-upgradeable@5.0.0/proxy/utils/UUPSUpgradeable.sol\":2653:2664  _checkProxy */\n      tag_124\n        /* \"@openzeppelin/contracts-upgradeable@5.0.0/proxy/utils/UUPSUpgradeable.sol\":2653:2666  _checkProxy() */\n      jump\t// in\n    tag_123:\n        /* \"@openzeppelin/contracts-upgradeable@5.0.0/proxy/utils/UUPSUpgradeable.sol\":4273:4309  _authorizeUpgrade(newImplementation) */\n      tag_126\n        /* \"@openzeppelin/contracts-upgradeable@5.0.0/proxy/utils/UUPSUpgradeable.sol\":4291:4308  newImplementation */\n      dup3\n        /* \"@openzeppelin/contracts-upgradeable@5.0.0/proxy/utils/UUPSUpgradeable.sol\":4273:4290  _authorizeUpgrade */\n      tag_127\n        /* \"@openzeppelin/contracts-upgradeable@5.0.0/proxy/utils/UUPSUpgradeable.sol\":4273:4309  _authorizeUpgrade(newImplementation) */\n      jump\t// in\n    tag_126:\n        /* \"@openzeppelin/contracts-upgradeable@5.0.0/proxy/utils/UUPSUpgradeable.sol\":4319:4365  _upgradeToAndCallUUPS(newImplementation, data) */\n      tag_128\n        /* \"@openzeppelin/contracts-upgradeable@5.0.0/proxy/utils/UUPSUpgradeable.sol\":4341:4358  newImplementation */\n      dup3\n        /* \"@openzeppelin/contracts-upgradeable@5.0.0/proxy/utils/UUPSUpgradeable.sol\":4360:4364  data */\n      dup3\n        /* \"@openzeppelin/contracts-upgradeable@5.0.0/proxy/utils/UUPSUpgradeable.sol\":4319:4340  _upgradeToAndCallUUPS */\n      tag_129\n        /* \"@openzeppelin/contracts-upgradeable@5.0.0/proxy/utils/UUPSUpgradeable.sol\":4319:4365  _upgradeToAndCallUUPS(newImplementation, data) */\n      jump\t// in\n    tag_128:\n        /* \"@openzeppelin/contracts-upgradeable@5.0.0/proxy/utils/UUPSUpgradeable.sol\":4158:4372  function upgradeToAndCall(address newImplementation, bytes memory data) public payable virtual onlyProxy {... */\n      pop\n      pop\n      jump\t// out\n        /* \"@openzeppelin/contracts-upgradeable@5.0.0/proxy/utils/UUPSUpgradeable.sol\":3705:3839  function proxiableUUID() external view virtual notDelegated returns (bytes32) {... */\n    tag_55:\n        /* \"@openzeppelin/contracts-upgradeable@5.0.0/proxy/utils/UUPSUpgradeable.sol\":3774:3781  bytes32 */\n      0x00\n        /* \"@openzeppelin/contracts-upgradeable@5.0.0/proxy/utils/UUPSUpgradeable.sol\":2924:2944  _checkNotDelegated() */\n      tag_131\n        /* \"@openzeppelin/contracts-upgradeable@5.0.0/proxy/utils/UUPSUpgradeable.sol\":2924:2942  _checkNotDelegated */\n      tag_132\n        /* \"@openzeppelin/contracts-upgradeable@5.0.0/proxy/utils/UUPSUpgradeable.sol\":2924:2944  _checkNotDelegated() */\n      jump\t// in\n    tag_131:\n        /* \"@openzeppelin/contracts/proxy/ERC1967/ERC1967Utils.sol\":1327:1393  0x360894a13ba1a3210667c828492db98dca3e2076cc3735a920a3ca505d382bbc */\n      0x360894a13ba1a3210667c828492db98dca3e2076cc3735a920a3ca505d382bbc\n        /* \"@openzeppelin/contracts-upgradeable@5.0.0/proxy/utils/UUPSUpgradeable.sol\":3800:3832  ERC1967Utils.IMPLEMENTATION_SLOT */\n      0x00\n      shl\n        /* \"@openzeppelin/contracts-upgradeable@5.0.0/proxy/utils/UUPSUpgradeable.sol\":3793:3832  return ERC1967Utils.IMPLEMENTATION_SLOT */\n      swap1\n      pop\n        /* \"@openzeppelin/contracts-upgradeable@5.0.0/proxy/utils/UUPSUpgradeable.sol\":3705:3839  function proxiableUUID() external view virtual notDelegated returns (bytes32) {... */\n      swap1\n      jump\t// out\n        /* \"@openzeppelin/contracts-upgradeable@5.0.0/token/ERC20/ERC20Upgradeable.sol\":4401:4572  function balanceOf(address account) public view virtual returns (uint256) {... */\n    tag_62:\n        /* \"@openzeppelin/contracts-upgradeable@5.0.0/token/ERC20/ERC20Upgradeable.sol\":4466:4473  uint256 */\n      0x00\n        /* \"@openzeppelin/contracts-upgradeable@5.0.0/token/ERC20/ERC20Upgradeable.sol\":4485:4507  ERC20Storage storage $ */\n      dup1\n        /* \"@openzeppelin/contracts-upgradeable@5.0.0/token/ERC20/ERC20Upgradeable.sol\":4510:4528  _getERC20Storage() */\n      tag_135\n        /* \"@openzeppelin/contracts-upgradeable@5.0.0/token/ERC20/ERC20Upgradeable.sol\":4510:4526  _getERC20Storage */\n      tag_101\n        /* \"@openzeppelin/contracts-upgradeable@5.0.0/token/ERC20/ERC20Upgradeable.sol\":4510:4528  _getERC20Storage() */\n      jump\t// in\n    tag_135:\n        /* \"@openzeppelin/contracts-upgradeable@5.0.0/token/ERC20/ERC20Upgradeable.sol\":4485:4528  ERC20Storage storage $ = _getERC20Storage() */\n      swap1\n      pop\n        /* \"@openzeppelin/contracts-upgradeable@5.0.0/token/ERC20/ERC20Upgradeable.sol\":4545:4546  $ */\n      dup1\n        /* \"@openzeppelin/contracts-upgradeable@5.0.0/token/ERC20/ERC20Upgradeable.sol\":4545:4556  $._balances */\n      0x00\n      add\n        /* \"@openzeppelin/contracts-upgradeable@5.0.0/token/ERC20/ERC20Upgradeable.sol\":4545:4565  $._balances[account] */\n      0x00\n        /* \"@openzeppelin/contracts-upgradeable@5.0.0/token/ERC20/ERC20Upgradeable.sol\":4557:4564  account */\n      dup5\n        /* \"@openzeppelin/contracts-upgradeable@5.0.0/token/ERC20/ERC20Upgradeable.sol\":4545:4565  $._balances[account] */\n      0xffffffffffffffffffffffffffffffffffffffff\n      and\n      0xffffffffffffffffffffffffffffffffffffffff\n      and\n      dup2\n      mstore\n      0x20\n      add\n      swap1\n      dup2\n      mstore\n      0x20\n      add\n      0x00\n      keccak256\n      sload\n        /* \"@openzeppelin/contracts-upgradeable@5.0.0/token/ERC20/ERC20Upgradeable.sol\":4538:4565  return $._balances[account] */\n      swap2\n      pop\n      pop\n        /* \"@openzeppelin/contracts-upgradeable@5.0.0/token/ERC20/ERC20Upgradeable.sol\":4401:4572  function balanceOf(address account) public view virtual returns (uint256) {... */\n      swap2\n      swap1\n      pop\n      jump\t// out\n        /* \"@openzeppelin/contracts-upgradeable@5.0.0/access/OwnableUpgradeable.sol\":3155:3256  function renounceOwnership() public virtual onlyOwner {... */\n    tag_66:\n        /* \"@openzeppelin/contracts-upgradeable@5.0.0/access/OwnableUpgradeable.sol\":2334:2347  _checkOwner() */\n      tag_137\n        /* \"@openzeppelin/contracts-upgradeable@5.0.0/access/OwnableUpgradeable.sol\":2334:2345  _checkOwner */\n      tag_138\n        /* \"@openzeppelin/contracts-upgradeable@5.0.0/access/OwnableUpgradeable.sol\":2334:2347  _checkOwner() */\n      jump\t// in\n    tag_137:\n        /* \"@openzeppelin/contracts-upgradeable@5.0.0/access/OwnableUpgradeable.sol\":3219:3249  _transferOwnership(address(0)) */\n      tag_140\n        /* \"@openzeppelin/contracts-upgradeable@5.0.0/access/OwnableUpgradeable.sol\":3246:3247  0 */\n      0x00\n        /* \"@openzeppelin/contracts-upgradeable@5.0.0/access/OwnableUpgradeable.sol\":3219:3237  _transferOwnership */\n      tag_141\n        /* \"@openzeppelin/contracts-upgradeable@5.0.0/access/OwnableUpgradeable.sol\":3219:3249  _transferOwnership(address(0)) */\n      jump\t// in\n    tag_140:\n        /* \"@openzeppelin/contracts-upgradeable@5.0.0/access/OwnableUpgradeable.sol\":3155:3256  function renounceOwnership() public virtual onlyOwner {... */\n      jump\t// out\n        /* \"@openzeppelin/contracts-upgradeable@5.0.0/access/OwnableUpgradeable.sol\":2441:2585  function owner() public view virtual returns (address) {... */\n    tag_69:\n        /* \"@openzeppelin/contracts-upgradeable@5.0.0/access/OwnableUpgradeable.sol\":2487:2494  address */\n      0x00\n        /* \"@openzeppelin/contracts-upgradeable@5.0.0/access/OwnableUpgradeable.sol\":2506:2530  OwnableStorage storage $ */\n      dup1\n        /* \"@openzeppelin/contracts-upgradeable@5.0.0/access/OwnableUpgradeable.sol\":2533:2553  _getOwnableStorage() */\n      tag_143\n        /* \"@openzeppelin/contracts-upgradeable@5.0.0/access/OwnableUpgradeable.sol\":2533:2551  _getOwnableStorage */\n      tag_144\n        /* \"@openzeppelin/contracts-upgradeable@5.0.0/access/OwnableUpgradeable.sol\":2533:2553  _getOwnableStorage() */\n      jump\t// in\n    tag_143:\n        /* \"@openzeppelin/contracts-upgradeable@5.0.0/access/OwnableUpgradeable.sol\":2506:2553  OwnableStorage storage $ = _getOwnableStorage() */\n      swap1\n      pop\n        /* \"@openzeppelin/contracts-upgradeable@5.0.0/access/OwnableUpgradeable.sol\":2570:2571  $ */\n      dup1\n        /* \"@openzeppelin/contracts-upgradeable@5.0.0/access/OwnableUpgradeable.sol\":2570:2578  $._owner */\n      0x00\n      add\n      0x00\n      swap1\n      sload\n      swap1\n      0x0100\n      exp\n      swap1\n      div\n      0xffffffffffffffffffffffffffffffffffffffff\n      and\n        /* \"@openzeppelin/contracts-upgradeable@5.0.0/access/OwnableUpgradeable.sol\":2563:2578  return $._owner */\n      swap2\n      pop\n      pop\n        /* \"@openzeppelin/contracts-upgradeable@5.0.0/access/OwnableUpgradeable.sol\":2441:2585  function owner() public view virtual returns (address) {... */\n      swap1\n      jump\t// out\n        /* \"@openzeppelin/contracts-upgradeable@5.0.0/token/ERC20/ERC20Upgradeable.sol\":3268:3416  function symbol() public view virtual returns (string memory) {... */\n    tag_74:\n        /* \"@openzeppelin/contracts-upgradeable@5.0.0/token/ERC20/ERC20Upgradeable.sol\":3315:3328  string memory */\n      0x60\n        /* \"@openzeppelin/contracts-upgradeable@5.0.0/token/ERC20/ERC20Upgradeable.sol\":3340:3362  ERC20Storage storage $ */\n      0x00\n        /* \"@openzeppelin/contracts-upgradeable@5.0.0/token/ERC20/ERC20Upgradeable.sol\":3365:3383  _getERC20Storage() */\n      tag_146\n        /* \"@openzeppelin/contracts-upgradeable@5.0.0/token/ERC20/ERC20Upgradeable.sol\":3365:3381  _getERC20Storage */\n      tag_101\n        /* \"@openzeppelin/contracts-upgradeable@5.0.0/token/ERC20/ERC20Upgradeable.sol\":3365:3383  _getERC20Storage() */\n      jump\t// in\n    tag_146:\n        /* \"@openzeppelin/contracts-upgradeable@5.0.0/token/ERC20/ERC20Upgradeable.sol\":3340:3383  ERC20Storage storage $ = _getERC20Storage() */\n      swap1\n      pop\n        /* \"@openzeppelin/contracts-upgradeable@5.0.0/token/ERC20/ERC20Upgradeable.sol\":3400:3401  $ */\n      dup1\n        /* \"@openzeppelin/contracts-upgradeable@5.0.0/token/ERC20/ERC20Upgradeable.sol\":3400:3409  $._symbol */\n      0x04\n      add\n        /* \"@openzeppelin/contracts-upgradeable@5.0.0/token/ERC20/ERC20Upgradeable.sol\":3393:3409  return $._symbol */\n      dup1\n      sload\n      tag_147\n      swap1\n      tag_103\n      jump\t// in\n    tag_147:\n      dup1\n      0x1f\n      add\n      0x20\n      dup1\n      swap2\n      div\n      mul\n      0x20\n      add\n      mload(0x40)\n      swap1\n      dup2\n      add\n      0x40\n      mstore\n      dup1\n      swap3\n      swap2\n      swap1\n      dup2\n      dup2\n      mstore\n      0x20\n      add\n      dup3\n      dup1\n      sload\n      tag_148\n      swap1\n      tag_103\n      jump\t// in\n    tag_148:\n      dup1\n      iszero\n      tag_149\n      jumpi\n      dup1\n      0x1f\n      lt\n      tag_150\n      jumpi\n      0x0100\n      dup1\n      dup4\n      sload\n      div\n      mul\n      dup4\n      mstore\n      swap2\n      0x20\n      add\n      swap2\n      jump(tag_149)\n    tag_150:\n      dup3\n      add\n      swap2\n      swap1\n      0x00\n      mstore\n      keccak256(0x00, 0x20)\n      swap1\n    tag_151:\n      dup2\n      sload\n      dup2\n      mstore\n      swap1\n      0x01\n      add\n      swap1\n      0x20\n      add\n      dup1\n      dup4\n      gt\n      tag_151\n      jumpi\n      dup3\n      swap1\n      sub\n      0x1f\n      and\n      dup3\n      add\n      swap2\n    tag_149:\n      pop\n      pop\n      pop\n      pop\n      pop\n      swap2\n      pop\n      pop\n        /* \"@openzeppelin/contracts-upgradeable@5.0.0/token/ERC20/ERC20Upgradeable.sol\":3268:3416  function symbol() public view virtual returns (string memory) {... */\n      swap1\n      jump\t// out\n        /* \"@openzeppelin/contracts-upgradeable@5.0.0/token/ERC20/ERC20Upgradeable.sol\":4767:4945  function transfer(address to, uint256 value) public virtual returns (bool) {... */\n    tag_79:\n        /* \"@openzeppelin/contracts-upgradeable@5.0.0/token/ERC20/ERC20Upgradeable.sol\":4836:4840  bool */\n      0x00\n        /* \"@openzeppelin/contracts-upgradeable@5.0.0/token/ERC20/ERC20Upgradeable.sol\":4852:4865  address owner */\n      dup1\n        /* \"@openzeppelin/contracts-upgradeable@5.0.0/token/ERC20/ERC20Upgradeable.sol\":4868:4880  _msgSender() */\n      tag_153\n        /* \"@openzeppelin/contracts-upgradeable@5.0.0/token/ERC20/ERC20Upgradeable.sol\":4868:4878  _msgSender */\n      tag_110\n        /* \"@openzeppelin/contracts-upgradeable@5.0.0/token/ERC20/ERC20Upgradeable.sol\":4868:4880  _msgSender() */\n      jump\t// in\n    tag_153:\n        /* \"@openzeppelin/contracts-upgradeable@5.0.0/token/ERC20/ERC20Upgradeable.sol\":4852:4880  address owner = _msgSender() */\n      swap1\n      pop\n        /* \"@openzeppelin/contracts-upgradeable@5.0.0/token/ERC20/ERC20Upgradeable.sol\":4890:4917  _transfer(owner, to, value) */\n      tag_154\n        /* \"@openzeppelin/contracts-upgradeable@5.0.0/token/ERC20/ERC20Upgradeable.sol\":4900:4905  owner */\n      dup2\n        /* \"@openzeppelin/contracts-upgradeable@5.0.0/token/ERC20/ERC20Upgradeable.sol\":4907:4909  to */\n      dup6\n        /* \"@openzeppelin/contracts-upgradeable@5.0.0/token/ERC20/ERC20Upgradeable.sol\":4911:4916  value */\n      dup6\n        /* \"@openzeppelin/contracts-upgradeable@5.0.0/token/ERC20/ERC20Upgradeable.sol\":4890:4899  _transfer */\n      tag_120\n        /* \"@openzeppelin/contracts-upgradeable@5.0.0/token/ERC20/ERC20Upgradeable.sol\":4890:4917  _transfer(owner, to, value) */\n      jump\t// in\n    tag_154:\n        /* \"@openzeppelin/contracts-upgradeable@5.0.0/token/ERC20/ERC20Upgradeable.sol\":4934:4938  true */\n      0x01\n        /* \"@openzeppelin/contracts-upgradeable@5.0.0/token/ERC20/ERC20Upgradeable.sol\":4927:4938  return true */\n      swap2\n      pop\n      pop\n        /* \"@openzeppelin/contracts-upgradeable@5.0.0/token/ERC20/ERC20Upgradeable.sol\":4767:4945  function transfer(address to, uint256 value) public virtual returns (bool) {... */\n      swap3\n      swap2\n      pop\n      pop\n      jump\t// out\n        /* \"@openzeppelin/contracts-upgradeable@5.0.0/proxy/utils/UUPSUpgradeable.sol\":1819:1877  string public constant UPGRADE_INTERFACE_VERSION = \"5.0.0\" */\n    tag_83:\n      mload(0x40)\n      dup1\n      0x40\n      add\n      0x40\n      mstore\n      dup1\n      0x05\n      dup2\n      mstore\n      0x20\n      add\n      0x352e302e30000000000000000000000000000000000000000000000000000000\n      dup2\n      mstore\n      pop\n      dup2\n      jump\t// out\n        /* \"contract-f627870540.sol\":601:837  function initialize(address initialOwner) initializer public {... */\n    tag_88:\n        /* \"@openzeppelin/contracts-upgradeable@5.0.0/proxy/utils/Initializable.sol\":4158:4188  InitializableStorage storage $ */\n      0x00\n        /* \"@openzeppelin/contracts-upgradeable@5.0.0/proxy/utils/Initializable.sol\":4191:4217  _getInitializableStorage() */\n      tag_156\n        /* \"@openzeppelin/contracts-upgradeable@5.0.0/proxy/utils/Initializable.sol\":4191:4215  _getInitializableStorage */\n      tag_157\n        /* \"@openzeppelin/contracts-upgradeable@5.0.0/proxy/utils/Initializable.sol\":4191:4217  _getInitializableStorage() */\n      jump\t// in\n    tag_156:\n        /* \"@openzeppelin/contracts-upgradeable@5.0.0/proxy/utils/Initializable.sol\":4158:4217  InitializableStorage storage $ = _getInitializableStorage() */\n      swap1\n      pop\n        /* \"@openzeppelin/contracts-upgradeable@5.0.0/proxy/utils/Initializable.sol\":4279:4298  bool isTopLevelCall */\n      0x00\n        /* \"@openzeppelin/contracts-upgradeable@5.0.0/proxy/utils/Initializable.sol\":4302:4303  $ */\n      dup2\n        /* \"@openzeppelin/contracts-upgradeable@5.0.0/proxy/utils/Initializable.sol\":4302:4317  $._initializing */\n      0x00\n      add\n      0x08\n      swap1\n      sload\n      swap1\n      0x0100\n      exp\n      swap1\n      div\n      0xff\n      and\n        /* \"@openzeppelin/contracts-upgradeable@5.0.0/proxy/utils/Initializable.sol\":4301:4317  !$._initializing */\n      iszero\n        /* \"@openzeppelin/contracts-upgradeable@5.0.0/proxy/utils/Initializable.sol\":4279:4317  bool isTopLevelCall = !$._initializing */\n      swap1\n      pop\n        /* \"@openzeppelin/contracts-upgradeable@5.0.0/proxy/utils/Initializable.sol\":4327:4345  uint64 initialized */\n      0x00\n        /* \"@openzeppelin/contracts-upgradeable@5.0.0/proxy/utils/Initializable.sol\":4348:4349  $ */\n      dup3\n        /* \"@openzeppelin/contracts-upgradeable@5.0.0/proxy/utils/Initializable.sol\":4348:4362  $._initialized */\n      0x00\n      add\n      0x00\n      swap1\n      sload\n      swap1\n      0x0100\n      exp\n      swap1\n      div\n      0xffffffffffffffff\n      and\n        /* \"@openzeppelin/contracts-upgradeable@5.0.0/proxy/utils/Initializable.sol\":4327:4362  uint64 initialized = $._initialized */\n      swap1\n      pop\n        /* \"@openzeppelin/contracts-upgradeable@5.0.0/proxy/utils/Initializable.sol\":4706:4723  bool initialSetup */\n      0x00\n        /* \"@openzeppelin/contracts-upgradeable@5.0.0/proxy/utils/Initializable.sol\":4741:4742  0 */\n      dup1\n        /* \"@openzeppelin/contracts-upgradeable@5.0.0/proxy/utils/Initializable.sol\":4726:4737  initialized */\n      dup3\n        /* \"@openzeppelin/contracts-upgradeable@5.0.0/proxy/utils/Initializable.sol\":4726:4742  initialized == 0 */\n      0xffffffffffffffff\n      and\n      eq\n        /* \"@openzeppelin/contracts-upgradeable@5.0.0/proxy/utils/Initializable.sol\":4726:4760  initialized == 0 && isTopLevelCall */\n      dup1\n      iszero\n      tag_158\n      jumpi\n      pop\n        /* \"@openzeppelin/contracts-upgradeable@5.0.0/proxy/utils/Initializable.sol\":4746:4760  isTopLevelCall */\n      dup3\n        /* \"@openzeppelin/contracts-upgradeable@5.0.0/proxy/utils/Initializable.sol\":4726:4760  initialized == 0 && isTopLevelCall */\n    tag_158:\n        /* \"@openzeppelin/contracts-upgradeable@5.0.0/proxy/utils/Initializable.sol\":4706:4760  bool initialSetup = initialized == 0 && isTopLevelCall */\n      swap1\n      pop\n        /* \"@openzeppelin/contracts-upgradeable@5.0.0/proxy/utils/Initializable.sol\":4770:4787  bool construction */\n      0x00\n        /* \"@openzeppelin/contracts-upgradeable@5.0.0/proxy/utils/Initializable.sol\":4805:4806  1 */\n      0x01\n        /* \"@openzeppelin/contracts-upgradeable@5.0.0/proxy/utils/Initializable.sol\":4790:4801  initialized */\n      dup4\n        /* \"@openzeppelin/contracts-upgradeable@5.0.0/proxy/utils/Initializable.sol\":4790:4806  initialized == 1 */\n      0xffffffffffffffff\n      and\n      eq\n        /* \"@openzeppelin/contracts-upgradeable@5.0.0/proxy/utils/Initializable.sol\":4790:4840  initialized == 1 && address(this).code.length == 0 */\n      dup1\n      iszero\n      tag_159\n      jumpi\n      pop\n        /* \"@openzeppelin/contracts-upgradeable@5.0.0/proxy/utils/Initializable.sol\":4839:4840  0 */\n      0x00\n        /* \"@openzeppelin/contracts-upgradeable@5.0.0/proxy/utils/Initializable.sol\":4818:4822  this */\n      address\n        /* \"@openzeppelin/contracts-upgradeable@5.0.0/proxy/utils/Initializable.sol\":4810:4835  address(this).code.length */\n      0xffffffffffffffffffffffffffffffffffffffff\n      and\n      extcodesize\n        /* \"@openzeppelin/contracts-upgradeable@5.0.0/proxy/utils/Initializable.sol\":4810:4840  address(this).code.length == 0 */\n      eq\n        /* \"@openzeppelin/contracts-upgradeable@5.0.0/proxy/utils/Initializable.sol\":4790:4840  initialized == 1 && address(this).code.length == 0 */\n    tag_159:\n        /* \"@openzeppelin/contracts-upgradeable@5.0.0/proxy/utils/Initializable.sol\":4770:4840  bool construction = initialized == 1 && address(this).code.length == 0 */\n      swap1\n      pop\n        /* \"@openzeppelin/contracts-upgradeable@5.0.0/proxy/utils/Initializable.sol\":4856:4868  initialSetup */\n      dup2\n        /* \"@openzeppelin/contracts-upgradeable@5.0.0/proxy/utils/Initializable.sol\":4855:4868  !initialSetup */\n      iszero\n        /* \"@openzeppelin/contracts-upgradeable@5.0.0/proxy/utils/Initializable.sol\":4855:4885  !initialSetup && !construction */\n      dup1\n      iszero\n      tag_160\n      jumpi\n      pop\n        /* \"@openzeppelin/contracts-upgradeable@5.0.0/proxy/utils/Initializable.sol\":4873:4885  construction */\n      dup1\n        /* \"@openzeppelin/contracts-upgradeable@5.0.0/proxy/utils/Initializable.sol\":4872:4885  !construction */\n      iszero\n        /* \"@openzeppelin/contracts-upgradeable@5.0.0/proxy/utils/Initializable.sol\":4855:4885  !initialSetup && !construction */\n    tag_160:\n        /* \"@openzeppelin/contracts-upgradeable@5.0.0/proxy/utils/Initializable.sol\":4851:4942  if (!initialSetup && !construction) {... */\n      iszero\n      tag_161\n      jumpi\n        /* \"@openzeppelin/contracts-upgradeable@5.0.0/proxy/utils/Initializable.sol\":4908:4931  InvalidInitialization() */\n      mload(0x40)\n      0xf92ee8a900000000000000000000000000000000000000000000000000000000\n      dup2\n      mstore\n      0x04\n      add\n      mload(0x40)\n      dup1\n      swap2\n      sub\n      swap1\n      revert\n        /* \"@openzeppelin/contracts-upgradeable@5.0.0/proxy/utils/Initializable.sol\":4851:4942  if (!initialSetup && !construction) {... */\n    tag_161:\n        /* \"@openzeppelin/contracts-upgradeable@5.0.0/proxy/utils/Initializable.sol\":4968:4969  1 */\n      0x01\n        /* \"@openzeppelin/contracts-upgradeable@5.0.0/proxy/utils/Initializable.sol\":4951:4952  $ */\n      dup6\n        /* \"@openzeppelin/contracts-upgradeable@5.0.0/proxy/utils/Initializable.sol\":4951:4965  $._initialized */\n      0x00\n      add\n      0x00\n        /* \"@openzeppelin/contracts-upgradeable@5.0.0/proxy/utils/Initializable.sol\":4951:4969  $._initialized = 1 */\n      0x0100\n      exp\n      dup2\n      sload\n      dup2\n      0xffffffffffffffff\n      mul\n      not\n      and\n      swap1\n      dup4\n      0xffffffffffffffff\n      and\n      mul\n      or\n      swap1\n      sstore\n      pop\n        /* \"@openzeppelin/contracts-upgradeable@5.0.0/proxy/utils/Initializable.sol\":4983:4997  isTopLevelCall */\n      dup4\n        /* \"@openzeppelin/contracts-upgradeable@5.0.0/proxy/utils/Initializable.sol\":4979:5046  if (isTopLevelCall) {... */\n      iszero\n      tag_162\n      jumpi\n        /* \"@openzeppelin/contracts-upgradeable@5.0.0/proxy/utils/Initializable.sol\":5031:5035  true */\n      0x01\n        /* \"@openzeppelin/contracts-upgradeable@5.0.0/proxy/utils/Initializable.sol\":5013:5014  $ */\n      dup6\n        /* \"@openzeppelin/contracts-upgradeable@5.0.0/proxy/utils/Initializable.sol\":5013:5028  $._initializing */\n      0x00\n      add\n      0x08\n        /* \"@openzeppelin/contracts-upgradeable@5.0.0/proxy/utils/Initializable.sol\":5013:5035  $._initializing = true */\n      0x0100\n      exp\n      dup2\n      sload\n      dup2\n      0xff\n      mul\n      not\n      and\n      swap1\n      dup4\n      iszero\n      iszero\n      mul\n      or\n      swap1\n      sstore\n      pop\n        /* \"@openzeppelin/contracts-upgradeable@5.0.0/proxy/utils/Initializable.sol\":4979:5046  if (isTopLevelCall) {... */\n    tag_162:\n        /* \"contract-f627870540.sol\":672:704  __ERC20_init(\"MivaToken\", \"MVT\") */\n      tag_164\n      mload(0x40)\n      dup1\n      0x40\n      add\n      0x40\n      mstore\n      dup1\n      0x09\n      dup2\n      mstore\n      0x20\n      add\n      0x4d697661546f6b656e0000000000000000000000000000000000000000000000\n      dup2\n      mstore\n      pop\n      mload(0x40)\n      dup1\n      0x40\n      add\n      0x40\n      mstore\n      dup1\n      0x03\n      dup2\n      mstore\n      0x20\n      add\n      0x4d56540000000000000000000000000000000000000000000000000000000000\n      dup2\n      mstore\n      pop\n        /* \"contract-f627870540.sol\":672:684  __ERC20_init */\n      tag_165\n        /* \"contract-f627870540.sol\":672:704  __ERC20_init(\"MivaToken\", \"MVT\") */\n      jump\t// in\n    tag_164:\n        /* \"contract-f627870540.sol\":714:742  __Ownable_init(initialOwner) */\n      tag_166\n        /* \"contract-f627870540.sol\":729:741  initialOwner */\n      dup7\n        /* \"contract-f627870540.sol\":714:728  __Ownable_init */\n      tag_167\n        /* \"contract-f627870540.sol\":714:742  __Ownable_init(initialOwner) */\n      jump\t// in\n    tag_166:\n        /* \"contract-f627870540.sol\":752:776  __UUPSUpgradeable_init() */\n      tag_168\n        /* \"contract-f627870540.sol\":752:774  __UUPSUpgradeable_init */\n      tag_169\n        /* \"contract-f627870540.sol\":752:776  __UUPSUpgradeable_init() */\n      jump\t// in\n    tag_168:\n        /* \"contract-f627870540.sol\":787:830  _mint(msg.sender, 20000 * 10 ** decimals()) */\n      tag_170\n        /* \"contract-f627870540.sol\":793:803  msg.sender */\n      caller\n        /* \"contract-f627870540.sol\":819:829  decimals() */\n      tag_171\n        /* \"contract-f627870540.sol\":819:827  decimals */\n      tag_46\n        /* \"contract-f627870540.sol\":819:829  decimals() */\n      jump\t// in\n    tag_171:\n        /* \"contract-f627870540.sol\":813:815  10 */\n      0x0a\n        /* \"contract-f627870540.sol\":813:829  10 ** decimals() */\n      tag_172\n      swap2\n      swap1\n      tag_173\n      jump\t// in\n    tag_172:\n        /* \"contract-f627870540.sol\":805:810  20000 */\n      0x4e20\n        /* \"contract-f627870540.sol\":805:829  20000 * 10 ** decimals() */\n      tag_174\n      swap2\n      swap1\n      tag_175\n      jump\t// in\n    tag_174:\n        /* \"contract-f627870540.sol\":787:792  _mint */\n      tag_176\n        /* \"contract-f627870540.sol\":787:830  _mint(msg.sender, 20000 * 10 ** decimals()) */\n      jump\t// in\n    tag_170:\n        /* \"@openzeppelin/contracts-upgradeable@5.0.0/proxy/utils/Initializable.sol\":5070:5084  isTopLevelCall */\n      dup4\n        /* \"@openzeppelin/contracts-upgradeable@5.0.0/proxy/utils/Initializable.sol\":5066:5167  if (isTopLevelCall) {... */\n      iszero\n      tag_177\n      jumpi\n        /* \"@openzeppelin/contracts-upgradeable@5.0.0/proxy/utils/Initializable.sol\":5118:5123  false */\n      0x00\n        /* \"@openzeppelin/contracts-upgradeable@5.0.0/proxy/utils/Initializable.sol\":5100:5101  $ */\n      dup6\n        /* \"@openzeppelin/contracts-upgradeable@5.0.0/proxy/utils/Initializable.sol\":5100:5115  $._initializing */\n      0x00\n      add\n      0x08\n        /* \"@openzeppelin/contracts-upgradeable@5.0.0/proxy/utils/Initializable.sol\":5100:5123  $._initializing = false */\n      0x0100\n      exp\n      dup2\n      sload\n      dup2\n      0xff\n      mul\n      not\n      and\n      swap1\n      dup4\n      iszero\n      iszero\n      mul\n      or\n      swap1\n      sstore\n      pop\n        /* \"@openzeppelin/contracts-upgradeable@5.0.0/proxy/utils/Initializable.sol\":5142:5156  Initialized(1) */\n      0xc7f505b2f371ae2175ee4913f4499e1f2633a7b5936321eed1cdaeb6115181d2\n        /* \"@openzeppelin/contracts-upgradeable@5.0.0/proxy/utils/Initializable.sol\":5154:5155  1 */\n      0x01\n        /* \"@openzeppelin/contracts-upgradeable@5.0.0/proxy/utils/Initializable.sol\":5142:5156  Initialized(1) */\n      mload(0x40)\n      tag_178\n      swap2\n      swap1\n      tag_179\n      jump\t// in\n    tag_178:\n      mload(0x40)\n      dup1\n      swap2\n      sub\n      swap1\n      log1\n        /* \"@openzeppelin/contracts-upgradeable@5.0.0/proxy/utils/Initializable.sol\":5066:5167  if (isTopLevelCall) {... */\n    tag_177:\n        /* \"@openzeppelin/contracts-upgradeable@5.0.0/proxy/utils/Initializable.sol\":4092:5173  {... */\n      pop\n      pop\n      pop\n      pop\n      pop\n        /* \"contract-f627870540.sol\":601:837  function initialize(address initialOwner) initializer public {... */\n      pop\n      jump\t// out\n        /* \"@openzeppelin/contracts-upgradeable@5.0.0/token/ERC20/ERC20Upgradeable.sol\":5003:5198  function allowance(address owner, address spender) public view virtual returns (uint256) {... */\n    tag_93:\n        /* \"@openzeppelin/contracts-upgradeable@5.0.0/token/ERC20/ERC20Upgradeable.sol\":5083:5090  uint256 */\n      0x00\n        /* \"@openzeppelin/contracts-upgradeable@5.0.0/token/ERC20/ERC20Upgradeable.sol\":5102:5124  ERC20Storage storage $ */\n      dup1\n        /* \"@openzeppelin/contracts-upgradeable@5.0.0/token/ERC20/ERC20Upgradeable.sol\":5127:5145  _getERC20Storage() */\n      tag_181\n        /* \"@openzeppelin/contracts-upgradeable@5.0.0/token/ERC20/ERC20Upgradeable.sol\":5127:5143  _getERC20Storage */\n      tag_101\n        /* \"@openzeppelin/contracts-upgradeable@5.0.0/token/ERC20/ERC20Upgradeable.sol\":5127:5145  _getERC20Storage() */\n      jump\t// in\n    tag_181:\n        /* \"@openzeppelin/contracts-upgradeable@5.0.0/token/ERC20/ERC20Upgradeable.sol\":5102:5145  ERC20Storage storage $ = _getERC20Storage() */\n      swap1\n      pop\n        /* \"@openzeppelin/contracts-upgradeable@5.0.0/token/ERC20/ERC20Upgradeable.sol\":5162:5163  $ */\n      dup1\n        /* \"@openzeppelin/contracts-upgradeable@5.0.0/token/ERC20/ERC20Upgradeable.sol\":5162:5175  $._allowances */\n      0x01\n      add\n        /* \"@openzeppelin/contracts-upgradeable@5.0.0/token/ERC20/ERC20Upgradeable.sol\":5162:5182  $._allowances[owner] */\n      0x00\n        /* \"@openzeppelin/contracts-upgradeable@5.0.0/token/ERC20/ERC20Upgradeable.sol\":5176:5181  owner */\n      dup6\n        /* \"@openzeppelin/contracts-upgradeable@5.0.0/token/ERC20/ERC20Upgradeable.sol\":5162:5182  $._allowances[owner] */\n      0xffffffffffffffffffffffffffffffffffffffff\n      and\n      0xffffffffffffffffffffffffffffffffffffffff\n      and\n      dup2\n      mstore\n      0x20\n      add\n      swap1\n      dup2\n      mstore\n      0x20\n      add\n      0x00\n      keccak256\n        /* \"@openzeppelin/contracts-upgradeable@5.0.0/token/ERC20/ERC20Upgradeable.sol\":5162:5191  $._allowances[owner][spender] */\n      0x00\n        /* \"@openzeppelin/contracts-upgradeable@5.0.0/token/ERC20/ERC20Upgradeable.sol\":5183:5190  spender */\n      dup5\n        /* \"@openzeppelin/contracts-upgradeable@5.0.0/token/ERC20/ERC20Upgradeable.sol\":5162:5191  $._allowances[owner][spender] */\n      0xffffffffffffffffffffffffffffffffffffffff\n      and\n      0xffffffffffffffffffffffffffffffffffffffff\n      and\n      dup2\n      mstore\n      0x20\n      add\n      swap1\n      dup2\n      mstore\n      0x20\n      add\n      0x00\n      keccak256\n      sload\n        /* \"@openzeppelin/contracts-upgradeable@5.0.0/token/ERC20/ERC20Upgradeable.sol\":5155:5191  return $._allowances[owner][spender] */\n      swap2\n      pop\n      pop\n        /* \"@openzeppelin/contracts-upgradeable@5.0.0/token/ERC20/ERC20Upgradeable.sol\":5003:5198  function allowance(address owner, address spender) public view virtual returns (uint256) {... */\n      swap3\n      swap2\n      pop\n      pop\n      jump\t// out\n        /* \"@openzeppelin/contracts-upgradeable@5.0.0/access/OwnableUpgradeable.sol\":3405:3620  function transferOwnership(address newOwner) public virtual onlyOwner {... */\n    tag_98:\n        /* \"@openzeppelin/contracts-upgradeable@5.0.0/access/OwnableUpgradeable.sol\":2334:2347  _checkOwner() */\n      tag_183\n        /* \"@openzeppelin/contracts-upgradeable@5.0.0/access/OwnableUpgradeable.sol\":2334:2345  _checkOwner */\n      tag_138\n        /* \"@openzeppelin/contracts-upgradeable@5.0.0/access/OwnableUpgradeable.sol\":2334:2347  _checkOwner() */\n      jump\t// in\n    tag_183:\n        /* \"@openzeppelin/contracts-upgradeable@5.0.0/access/OwnableUpgradeable.sol\":3509:3510  0 */\n      0x00\n        /* \"@openzeppelin/contracts-upgradeable@5.0.0/access/OwnableUpgradeable.sol\":3489:3511  newOwner == address(0) */\n      0xffffffffffffffffffffffffffffffffffffffff\n      and\n        /* \"@openzeppelin/contracts-upgradeable@5.0.0/access/OwnableUpgradeable.sol\":3489:3497  newOwner */\n      dup2\n        /* \"@openzeppelin/contracts-upgradeable@5.0.0/access/OwnableUpgradeable.sol\":3489:3511  newOwner == address(0) */\n      0xffffffffffffffffffffffffffffffffffffffff\n      and\n      sub\n        /* \"@openzeppelin/contracts-upgradeable@5.0.0/access/OwnableUpgradeable.sol\":3485:3576  if (newOwner == address(0)) {... */\n      tag_185\n      jumpi\n        /* \"@openzeppelin/contracts-upgradeable@5.0.0/access/OwnableUpgradeable.sol\":3562:3563  0 */\n      0x00\n        /* \"@openzeppelin/contracts-upgradeable@5.0.0/access/OwnableUpgradeable.sol\":3534:3565  OwnableInvalidOwner(address(0)) */\n      mload(0x40)\n      0x1e4fbdf700000000000000000000000000000000000000000000000000000000\n      dup2\n      mstore\n      0x04\n      add\n      tag_186\n      swap2\n      swap1\n      tag_71\n      jump\t// in\n    tag_186:\n      mload(0x40)\n      dup1\n      swap2\n      sub\n      swap1\n      revert\n        /* \"@openzeppelin/contracts-upgradeable@5.0.0/access/OwnableUpgradeable.sol\":3485:3576  if (newOwner == address(0)) {... */\n    tag_185:\n        /* \"@openzeppelin/contracts-upgradeable@5.0.0/access/OwnableUpgradeable.sol\":3585:3613  _transferOwnership(newOwner) */\n      tag_187\n        /* \"@openzeppelin/contracts-upgradeable@5.0.0/access/OwnableUpgradeable.sol\":3604:3612  newOwner */\n      dup2\n        /* \"@openzeppelin/contracts-upgradeable@5.0.0/access/OwnableUpgradeable.sol\":3585:3603  _transferOwnership */\n      tag_141\n        /* \"@openzeppelin/contracts-upgradeable@5.0.0/access/OwnableUpgradeable.sol\":3585:3613  _transferOwnership(newOwner) */\n      jump\t// in\n    tag_187:\n        /* \"@openzeppelin/contracts-upgradeable@5.0.0/access/OwnableUpgradeable.sol\":3405:3620  function transferOwnership(address newOwner) public virtual onlyOwner {... */\n      pop\n      jump\t// out\n        /* \"@openzeppelin/contracts-upgradeable@5.0.0/token/ERC20/ERC20Upgradeable.sol\":2242:2395  function _getERC20Storage() private pure returns (ERC20Storage storage $) {... */\n    tag_101:\n        /* \"@openzeppelin/contracts-upgradeable@5.0.0/token/ERC20/ERC20Upgradeable.sol\":2292:2314  ERC20Storage storage $ */\n      0x00\n        /* \"@openzeppelin/contracts-upgradeable@5.0.0/token/ERC20/ERC20Upgradeable.sol\":2359:2379  ERC20StorageLocation */\n      0x52c63247e1f47db19d5ce0460030c497f067ca4cebf71ba98eeadabe20bace00\n        /* \"@openzeppelin/contracts-upgradeable@5.0.0/token/ERC20/ERC20Upgradeable.sol\":2349:2379  $.slot := ERC20StorageLocation */\n      swap1\n      pop\n        /* \"@openzeppelin/contracts-upgradeable@5.0.0/token/ERC20/ERC20Upgradeable.sol\":2242:2395  function _getERC20Storage() private pure returns (ERC20Storage storage $) {... */\n      swap1\n      jump\t// out\n        /* \"@openzeppelin/contracts-upgradeable@5.0.0/utils/ContextUpgradeable.sol\":887:983  function _msgSender() internal view virtual returns (address) {... */\n    tag_110:\n        /* \"@openzeppelin/contracts-upgradeable@5.0.0/utils/ContextUpgradeable.sol\":940:947  address */\n      0x00\n        /* \"@openzeppelin/contracts-upgradeable@5.0.0/utils/ContextUpgradeable.sol\":966:976  msg.sender */\n      caller\n        /* \"@openzeppelin/contracts-upgradeable@5.0.0/utils/ContextUpgradeable.sol\":959:976  return msg.sender */\n      swap1\n      pop\n        /* \"@openzeppelin/contracts-upgradeable@5.0.0/utils/ContextUpgradeable.sol\":887:983  function _msgSender() internal view virtual returns (address) {... */\n      swap1\n      jump\t// out\n        /* \"@openzeppelin/contracts-upgradeable@5.0.0/token/ERC20/ERC20Upgradeable.sol\":10264:10392  function _approve(address owner, address spender, uint256 value) internal {... */\n    tag_112:\n        /* \"@openzeppelin/contracts-upgradeable@5.0.0/token/ERC20/ERC20Upgradeable.sol\":10348:10385  _approve(owner, spender, value, true) */\n      tag_191\n        /* \"@openzeppelin/contracts-upgradeable@5.0.0/token/ERC20/ERC20Upgradeable.sol\":10357:10362  owner */\n      dup4\n        /* \"@openzeppelin/contracts-upgradeable@5.0.0/token/ERC20/ERC20Upgradeable.sol\":10364:10371  spender */\n      dup4\n        /* \"@openzeppelin/contracts-upgradeable@5.0.0/token/ERC20/ERC20Upgradeable.sol\":10373:10378  value */\n      dup4\n        /* \"@openzeppelin/contracts-upgradeable@5.0.0/token/ERC20/ERC20Upgradeable.sol\":10380:10384  true */\n      0x01\n        /* \"@openzeppelin/contracts-upgradeable@5.0.0/token/ERC20/ERC20Upgradeable.sol\":10348:10356  _approve */\n      tag_192\n        /* \"@openzeppelin/contracts-upgradeable@5.0.0/token/ERC20/ERC20Upgradeable.sol\":10348:10385  _approve(owner, spender, value, true) */\n      jump\t// in\n    tag_191:\n        /* \"@openzeppelin/contracts-upgradeable@5.0.0/token/ERC20/ERC20Upgradeable.sol\":10264:10392  function _approve(address owner, address spender, uint256 value) internal {... */\n      pop\n      pop\n      pop\n      jump\t// out\n        /* \"@openzeppelin/contracts-upgradeable@5.0.0/token/ERC20/ERC20Upgradeable.sol\":11993:12470  function _spendAllowance(address owner, address spender, uint256 value) internal virtual {... */\n    tag_118:\n        /* \"@openzeppelin/contracts-upgradeable@5.0.0/token/ERC20/ERC20Upgradeable.sol\":12092:12116  uint256 currentAllowance */\n      0x00\n        /* \"@openzeppelin/contracts-upgradeable@5.0.0/token/ERC20/ERC20Upgradeable.sol\":12119:12144  allowance(owner, spender) */\n      tag_194\n        /* \"@openzeppelin/contracts-upgradeable@5.0.0/token/ERC20/ERC20Upgradeable.sol\":12129:12134  owner */\n      dup5\n        /* \"@openzeppelin/contracts-upgradeable@5.0.0/token/ERC20/ERC20Upgradeable.sol\":12136:12143  spender */\n      dup5\n        /* \"@openzeppelin/contracts-upgradeable@5.0.0/token/ERC20/ERC20Upgradeable.sol\":12119:12128  allowance */\n      tag_93\n        /* \"@openzeppelin/contracts-upgradeable@5.0.0/token/ERC20/ERC20Upgradeable.sol\":12119:12144  allowance(owner, spender) */\n      jump\t// in\n    tag_194:\n        /* \"@openzeppelin/contracts-upgradeable@5.0.0/token/ERC20/ERC20Upgradeable.sol\":12092:12144  uint256 currentAllowance = allowance(owner, spender) */\n      swap1\n      pop\n        /* \"@openzeppelin/contracts-upgradeable@5.0.0/token/ERC20/ERC20Upgradeable.sol\":12178:12195  type(uint256).max */\n      0xffffffffffffffffffffffffffffffffffffffffffffffffffffffffffffffff\n        /* \"@openzeppelin/contracts-upgradeable@5.0.0/token/ERC20/ERC20Upgradeable.sol\":12158:12174  currentAllowance */\n      dup2\n        /* \"@openzeppelin/contracts-upgradeable@5.0.0/token/ERC20/ERC20Upgradeable.sol\":12158:12195  currentAllowance != type(uint256).max */\n      eq\n        /* \"@openzeppelin/contracts-upgradeable@5.0.0/token/ERC20/ERC20Upgradeable.sol\":12154:12464  if (currentAllowance != type(uint256).max) {... */\n      tag_195\n      jumpi\n        /* \"@openzeppelin/contracts-upgradeable@5.0.0/token/ERC20/ERC20Upgradeable.sol\":12234:12239  value */\n      dup2\n        /* \"@openzeppelin/contracts-upgradeable@5.0.0/token/ERC20/ERC20Upgradeable.sol\":12215:12231  currentAllowance */\n      dup2\n        /* \"@openzeppelin/contracts-upgradeable@5.0.0/token/ERC20/ERC20Upgradeable.sol\":12215:12239  currentAllowance < value */\n      lt\n        /* \"@openzeppelin/contracts-upgradeable@5.0.0/token/ERC20/ERC20Upgradeable.sol\":12211:12341  if (currentAllowance < value) {... */\n      iszero\n      tag_196\n      jumpi\n        /* \"@openzeppelin/contracts-upgradeable@5.0.0/token/ERC20/ERC20Upgradeable.sol\":12293:12300  spender */\n      dup3\n        /* \"@openzeppelin/contracts-upgradeable@5.0.0/token/ERC20/ERC20Upgradeable.sol\":12302:12318  currentAllowance */\n      dup2\n        /* \"@openzeppelin/contracts-upgradeable@5.0.0/token/ERC20/ERC20Upgradeable.sol\":12320:12325  value */\n      dup4\n        /* \"@openzeppelin/contracts-upgradeable@5.0.0/token/ERC20/ERC20Upgradeable.sol\":12266:12326  ERC20InsufficientAllowance(spender, currentAllowance, value) */\n      mload(0x40)\n      0xfb8f41b200000000000000000000000000000000000000000000000000000000\n      dup2\n      mstore\n      0x04\n      add\n      tag_197\n      swap4\n      swap3\n      swap2\n      swap1\n      tag_198\n      jump\t// in\n    tag_197:\n      mload(0x40)\n      dup1\n      swap2\n      sub\n      swap1\n      revert\n        /* \"@openzeppelin/contracts-upgradeable@5.0.0/token/ERC20/ERC20Upgradeable.sol\":12211:12341  if (currentAllowance < value) {... */\n    tag_196:\n        /* \"@openzeppelin/contracts-upgradeable@5.0.0/token/ERC20/ERC20Upgradeable.sol\":12382:12439  _approve(owner, spender, currentAllowance - value, false) */\n      tag_199\n        /* \"@openzeppelin/contracts-upgradeable@5.0.0/token/ERC20/ERC20Upgradeable.sol\":12391:12396  owner */\n      dup5\n        /* \"@openzeppelin/contracts-upgradeable@5.0.0/token/ERC20/ERC20Upgradeable.sol\":12398:12405  spender */\n      dup5\n        /* \"@openzeppelin/contracts-upgradeable@5.0.0/token/ERC20/ERC20Upgradeable.sol\":12426:12431  value */\n      dup5\n        /* \"@openzeppelin/contracts-upgradeable@5.0.0/token/ERC20/ERC20Upgradeable.sol\":12407:12423  currentAllowance */\n      dup5\n        /* \"@openzeppelin/contracts-upgradeable@5.0.0/token/ERC20/ERC20Upgradeable.sol\":12407:12431  currentAllowance - value */\n      sub\n        /* \"@openzeppelin/contracts-upgradeable@5.0.0/token/ERC20/ERC20Upgradeable.sol\":12433:12438  false */\n      0x00\n        /* \"@openzeppelin/contracts-upgradeable@5.0.0/token/ERC20/ERC20Upgradeable.sol\":12382:12390  _approve */\n      tag_192\n        /* \"@openzeppelin/contracts-upgradeable@5.0.0/token/ERC20/ERC20Upgradeable.sol\":12382:12439  _approve(owner, spender, currentAllowance - value, false) */\n      jump\t// in\n    tag_199:\n        /* \"@openzeppelin/contracts-upgradeable@5.0.0/token/ERC20/ERC20Upgradeable.sol\":12154:12464  if (currentAllowance != type(uint256).max) {... */\n    tag_195:\n        /* \"@openzeppelin/contracts-upgradeable@5.0.0/token/ERC20/ERC20Upgradeable.sol\":12082:12470  {... */\n      pop\n        /* \"@openzeppelin/contracts-upgradeable@5.0.0/token/ERC20/ERC20Upgradeable.sol\":11993:12470  function _spendAllowance(address owner, address spender, uint256 value) internal virtual {... */\n      pop\n      pop\n      pop\n      jump\t// out\n        /* \"@openzeppelin/contracts-upgradeable@5.0.0/token/ERC20/ERC20Upgradeable.sol\":6868:7168  function _transfer(address from, address to, uint256 value) internal {... */\n    tag_120:\n        /* \"@openzeppelin/contracts-upgradeable@5.0.0/token/ERC20/ERC20Upgradeable.sol\":6967:6968  0 */\n      0x00\n        /* \"@openzeppelin/contracts-upgradeable@5.0.0/token/ERC20/ERC20Upgradeable.sol\":6951:6969  from == address(0) */\n      0xffffffffffffffffffffffffffffffffffffffff\n      and\n        /* \"@openzeppelin/contracts-upgradeable@5.0.0/token/ERC20/ERC20Upgradeable.sol\":6951:6955  from */\n      dup4\n        /* \"@openzeppelin/contracts-upgradeable@5.0.0/token/ERC20/ERC20Upgradeable.sol\":6951:6969  from == address(0) */\n      0xffffffffffffffffffffffffffffffffffffffff\n      and\n      sub\n        /* \"@openzeppelin/contracts-upgradeable@5.0.0/token/ERC20/ERC20Upgradeable.sol\":6947:7033  if (from == address(0)) {... */\n      tag_201\n      jumpi\n        /* \"@openzeppelin/contracts-upgradeable@5.0.0/token/ERC20/ERC20Upgradeable.sol\":7019:7020  0 */\n      0x00\n        /* \"@openzeppelin/contracts-upgradeable@5.0.0/token/ERC20/ERC20Upgradeable.sol\":6992:7022  ERC20InvalidSender(address(0)) */\n      mload(0x40)\n      0x96c6fd1e00000000000000000000000000000000000000000000000000000000\n      dup2\n      mstore\n      0x04\n      add\n      tag_202\n      swap2\n      swap1\n      tag_71\n      jump\t// in\n    tag_202:\n      mload(0x40)\n      dup1\n      swap2\n      sub\n      swap1\n      revert\n        /* \"@openzeppelin/contracts-upgradeable@5.0.0/token/ERC20/ERC20Upgradeable.sol\":6947:7033  if (from == address(0)) {... */\n    tag_201:\n        /* \"@openzeppelin/contracts-upgradeable@5.0.0/token/ERC20/ERC20Upgradeable.sol\":7060:7061  0 */\n      0x00\n        /* \"@openzeppelin/contracts-upgradeable@5.0.0/token/ERC20/ERC20Upgradeable.sol\":7046:7062  to == address(0) */\n      0xffffffffffffffffffffffffffffffffffffffff\n      and\n        /* \"@openzeppelin/contracts-upgradeable@5.0.0/token/ERC20/ERC20Upgradeable.sol\":7046:7048  to */\n      dup3\n        /* \"@openzeppelin/contracts-upgradeable@5.0.0/token/ERC20/ERC20Upgradeable.sol\":7046:7062  to == address(0) */\n      0xffffffffffffffffffffffffffffffffffffffff\n      and\n      sub\n        /* \"@openzeppelin/contracts-upgradeable@5.0.0/token/ERC20/ERC20Upgradeable.sol\":7042:7128  if (to == address(0)) {... */\n      tag_203\n      jumpi\n        /* \"@openzeppelin/contracts-upgradeable@5.0.0/token/ERC20/ERC20Upgradeable.sol\":7114:7115  0 */\n      0x00\n        /* \"@openzeppelin/contracts-upgradeable@5.0.0/token/ERC20/ERC20Upgradeable.sol\":7085:7117  ERC20InvalidReceiver(address(0)) */\n      mload(0x40)\n      0xec442f0500000000000000000000000000000000000000000000000000000000\n      dup2\n      mstore\n      0x04\n      add\n      tag_204\n      swap2\n      swap1\n      tag_71\n      jump\t// in\n    tag_204:\n      mload(0x40)\n      dup1\n      swap2\n      sub\n      swap1\n      revert\n        /* \"@openzeppelin/contracts-upgradeable@5.0.0/token/ERC20/ERC20Upgradeable.sol\":7042:7128  if (to == address(0)) {... */\n    tag_203:\n        /* \"@openzeppelin/contracts-upgradeable@5.0.0/token/ERC20/ERC20Upgradeable.sol\":7137:7161  _update(from, to, value) */\n      tag_205\n        /* \"@openzeppelin/contracts-upgradeable@5.0.0/token/ERC20/ERC20Upgradeable.sol\":7145:7149  from */\n      dup4\n        /* \"@openzeppelin/contracts-upgradeable@5.0.0/token/ERC20/ERC20Upgradeable.sol\":7151:7153  to */\n      dup4\n        /* \"@openzeppelin/contracts-upgradeable@5.0.0/token/ERC20/ERC20Upgradeable.sol\":7155:7160  value */\n      dup4\n        /* \"@openzeppelin/contracts-upgradeable@5.0.0/token/ERC20/ERC20Upgradeable.sol\":7137:7144  _update */\n      tag_206\n        /* \"@openzeppelin/contracts-upgradeable@5.0.0/token/ERC20/ERC20Upgradeable.sol\":7137:7161  _update(from, to, value) */\n      jump\t// in\n    tag_205:\n        /* \"@openzeppelin/contracts-upgradeable@5.0.0/token/ERC20/ERC20Upgradeable.sol\":6868:7168  function _transfer(address from, address to, uint256 value) internal {... */\n      pop\n      pop\n      pop\n      jump\t// out\n        /* \"@openzeppelin/contracts-upgradeable@5.0.0/proxy/utils/UUPSUpgradeable.sol\":4599:4911  function _checkProxy() internal view virtual {... */\n    tag_124:\n        /* \"@openzeppelin/contracts-upgradeable@5.0.0/proxy/utils/UUPSUpgradeable.sol\":4688:4694  __self */\n      immutable(\"0x0b83f23a4eeb8c3f5f7d5934a2289bcf0186d09a12e1b7f20adf54e4b179db15\")\n        /* \"@openzeppelin/contracts-upgradeable@5.0.0/proxy/utils/UUPSUpgradeable.sol\":4671:4694  address(this) == __self */\n      0xffffffffffffffffffffffffffffffffffffffff\n      and\n        /* \"@openzeppelin/contracts-upgradeable@5.0.0/proxy/utils/UUPSUpgradeable.sol\":4679:4683  this */\n      address\n        /* \"@openzeppelin/contracts-upgradeable@5.0.0/proxy/utils/UUPSUpgradeable.sol\":4671:4694  address(this) == __self */\n      0xffffffffffffffffffffffffffffffffffffffff\n      and\n      eq\n        /* \"@openzeppelin/contracts-upgradeable@5.0.0/proxy/utils/UUPSUpgradeable.sol\":4671:4791  address(this) == __self || // Must be called through delegatecall... */\n      dup1\n      tag_208\n      jumpi\n      pop\n        /* \"@openzeppelin/contracts-upgradeable@5.0.0/proxy/utils/UUPSUpgradeable.sol\":4785:4791  __self */\n      immutable(\"0x0b83f23a4eeb8c3f5f7d5934a2289bcf0186d09a12e1b7f20adf54e4b179db15\")\n        /* \"@openzeppelin/contracts-upgradeable@5.0.0/proxy/utils/UUPSUpgradeable.sol\":4749:4791  ERC1967Utils.getImplementation() != __self */\n      0xffffffffffffffffffffffffffffffffffffffff\n      and\n        /* \"@openzeppelin/contracts-upgradeable@5.0.0/proxy/utils/UUPSUpgradeable.sol\":4749:4781  ERC1967Utils.getImplementation() */\n      tag_209\n        /* \"@openzeppelin/contracts-upgradeable@5.0.0/proxy/utils/UUPSUpgradeable.sol\":4749:4779  ERC1967Utils.getImplementation */\n      tag_210\n        /* \"@openzeppelin/contracts-upgradeable@5.0.0/proxy/utils/UUPSUpgradeable.sol\":4749:4781  ERC1967Utils.getImplementation() */\n      jump\t// in\n    tag_209:\n        /* \"@openzeppelin/contracts-upgradeable@5.0.0/proxy/utils/UUPSUpgradeable.sol\":4749:4791  ERC1967Utils.getImplementation() != __self */\n      0xffffffffffffffffffffffffffffffffffffffff\n      and\n      eq\n      iszero\n        /* \"@openzeppelin/contracts-upgradeable@5.0.0/proxy/utils/UUPSUpgradeable.sol\":4671:4791  address(this) == __self || // Must be called through delegatecall... */\n    tag_208:\n        /* \"@openzeppelin/contracts-upgradeable@5.0.0/proxy/utils/UUPSUpgradeable.sol\":4654:4905  if (... */\n      iszero\n      tag_211\n      jumpi\n        /* \"@openzeppelin/contracts-upgradeable@5.0.0/proxy/utils/UUPSUpgradeable.sol\":4865:4894  UUPSUnauthorizedCallContext() */\n      mload(0x40)\n      0xe07c8dba00000000000000000000000000000000000000000000000000000000\n      dup2\n      mstore\n      0x04\n      add\n      mload(0x40)\n      dup1\n      swap2\n      sub\n      swap1\n      revert\n        /* \"@openzeppelin/contracts-upgradeable@5.0.0/proxy/utils/UUPSUpgradeable.sol\":4654:4905  if (... */\n    tag_211:\n        /* \"@openzeppelin/contracts-upgradeable@5.0.0/proxy/utils/UUPSUpgradeable.sol\":4599:4911  function _checkProxy() internal view virtual {... */\n      jump\t// out\n        /* \"contract-f627870540.sol\":843:955  function _authorizeUpgrade(address newImplementation)... */\n    tag_127:\n        /* \"@openzeppelin/contracts-upgradeable@5.0.0/access/OwnableUpgradeable.sol\":2334:2347  _checkOwner() */\n      tag_213\n        /* \"@openzeppelin/contracts-upgradeable@5.0.0/access/OwnableUpgradeable.sol\":2334:2345  _checkOwner */\n      tag_138\n        /* \"@openzeppelin/contracts-upgradeable@5.0.0/access/OwnableUpgradeable.sol\":2334:2347  _checkOwner() */\n      jump\t// in\n    tag_213:\n        /* \"contract-f627870540.sol\":843:955  function _authorizeUpgrade(address newImplementation)... */\n      pop\n      jump\t// out\n        /* \"@openzeppelin/contracts-upgradeable@5.0.0/proxy/utils/UUPSUpgradeable.sol\":6052:6590  function _upgradeToAndCallUUPS(address newImplementation, bytes memory data) private {... */\n    tag_129:\n        /* \"@openzeppelin/contracts-upgradeable@5.0.0/proxy/utils/UUPSUpgradeable.sol\":6169:6186  newImplementation */\n      dup2\n        /* \"@openzeppelin/contracts-upgradeable@5.0.0/proxy/utils/UUPSUpgradeable.sol\":6151:6201  IERC1822Proxiable(newImplementation).proxiableUUID */\n      0xffffffffffffffffffffffffffffffffffffffff\n      and\n      0x52d1902d\n        /* \"@openzeppelin/contracts-upgradeable@5.0.0/proxy/utils/UUPSUpgradeable.sol\":6151:6203  IERC1822Proxiable(newImplementation).proxiableUUID() */\n      mload(0x40)\n      dup2\n      0xffffffff\n      and\n      0xe0\n      shl\n      dup2\n      mstore\n      0x04\n      add\n      0x20\n      mload(0x40)\n      dup1\n      dup4\n      sub\n      dup2\n      dup7\n      gas\n      staticcall\n      swap3\n      pop\n      pop\n      pop\n      dup1\n      iszero\n      tag_216\n      jumpi\n      pop\n      mload(0x40)\n      returndatasize\n      not(0x1f)\n      0x1f\n      dup3\n      add\n      and\n      dup3\n      add\n      dup1\n      0x40\n      mstore\n      pop\n      dup2\n      add\n      swap1\n      tag_217\n      swap2\n      swap1\n      tag_218\n      jump\t// in\n    tag_217:\n      0x01\n    tag_216:\n        /* \"@openzeppelin/contracts-upgradeable@5.0.0/proxy/utils/UUPSUpgradeable.sol\":6147:6584  try IERC1822Proxiable(newImplementation).proxiableUUID() returns (bytes32 slot) {... */\n      tag_219\n      jumpi\n        /* \"@openzeppelin/contracts-upgradeable@5.0.0/proxy/utils/UUPSUpgradeable.sol\":6555:6572  newImplementation */\n      dup2\n        /* \"@openzeppelin/contracts-upgradeable@5.0.0/proxy/utils/UUPSUpgradeable.sol\":6513:6573  ERC1967Utils.ERC1967InvalidImplementation(newImplementation) */\n      mload(0x40)\n      0x4c9c8ce300000000000000000000000000000000000000000000000000000000\n      dup2\n      mstore\n      0x04\n      add\n      tag_223\n      swap2\n      swap1\n      tag_71\n      jump\t// in\n    tag_223:\n      mload(0x40)\n      dup1\n      swap2\n      sub\n      swap1\n      revert\n        /* \"@openzeppelin/contracts-upgradeable@5.0.0/proxy/utils/UUPSUpgradeable.sol\":6147:6584  try IERC1822Proxiable(newImplementation).proxiableUUID() returns (bytes32 slot) {... */\n    tag_219:\n        /* \"@openzeppelin/contracts/proxy/ERC1967/ERC1967Utils.sol\":1327:1393  0x360894a13ba1a3210667c828492db98dca3e2076cc3735a920a3ca505d382bbc */\n      0x360894a13ba1a3210667c828492db98dca3e2076cc3735a920a3ca505d382bbc\n        /* \"@openzeppelin/contracts-upgradeable@5.0.0/proxy/utils/UUPSUpgradeable.sol\":6253:6285  ERC1967Utils.IMPLEMENTATION_SLOT */\n      0x00\n      shl\n        /* \"@openzeppelin/contracts-upgradeable@5.0.0/proxy/utils/UUPSUpgradeable.sol\":6245:6249  slot */\n      dup2\n        /* \"@openzeppelin/contracts-upgradeable@5.0.0/proxy/utils/UUPSUpgradeable.sol\":6245:6285  slot != ERC1967Utils.IMPLEMENTATION_SLOT */\n      eq\n        /* \"@openzeppelin/contracts-upgradeable@5.0.0/proxy/utils/UUPSUpgradeable.sol\":6241:6361  if (slot != ERC1967Utils.IMPLEMENTATION_SLOT) {... */\n      tag_225\n      jumpi\n        /* \"@openzeppelin/contracts-upgradeable@5.0.0/proxy/utils/UUPSUpgradeable.sol\":6341:6345  slot */\n      dup1\n        /* \"@openzeppelin/contracts-upgradeable@5.0.0/proxy/utils/UUPSUpgradeable.sol\":6312:6346  UUPSUnsupportedProxiableUUID(slot) */\n      mload(0x40)\n      0xaa1d49a400000000000000000000000000000000000000000000000000000000\n      dup2\n      mstore\n      0x04\n      add\n      tag_226\n      swap2\n      swap1\n      tag_57\n      jump\t// in\n    tag_226:\n      mload(0x40)\n      dup1\n      swap2\n      sub\n      swap1\n      revert\n        /* \"@openzeppelin/contracts-upgradeable@5.0.0/proxy/utils/UUPSUpgradeable.sol\":6241:6361  if (slot != ERC1967Utils.IMPLEMENTATION_SLOT) {... */\n    tag_225:\n        /* \"@openzeppelin/contracts-upgradeable@5.0.0/proxy/utils/UUPSUpgradeable.sol\":6374:6428  ERC1967Utils.upgradeToAndCall(newImplementation, data) */\n      tag_227\n        /* \"@openzeppelin/contracts-upgradeable@5.0.0/proxy/utils/UUPSUpgradeable.sol\":6404:6421  newImplementation */\n      dup4\n        /* \"@openzeppelin/contracts-upgradeable@5.0.0/proxy/utils/UUPSUpgradeable.sol\":6423:6427  data */\n      dup4\n        /* \"@openzeppelin/contracts-upgradeable@5.0.0/proxy/utils/UUPSUpgradeable.sol\":6374:6403  ERC1967Utils.upgradeToAndCall */\n      tag_228\n        /* \"@openzeppelin/contracts-upgradeable@5.0.0/proxy/utils/UUPSUpgradeable.sol\":6374:6428  ERC1967Utils.upgradeToAndCall(newImplementation, data) */\n      jump\t// in\n    tag_227:\n        /* \"@openzeppelin/contracts-upgradeable@5.0.0/proxy/utils/UUPSUpgradeable.sol\":6204:6439  returns (bytes32 slot) {... */\n      pop\n        /* \"@openzeppelin/contracts-upgradeable@5.0.0/proxy/utils/UUPSUpgradeable.sol\":6052:6590  function _upgradeToAndCallUUPS(address newImplementation, bytes memory data) private {... */\n      pop\n      pop\n      jump\t// out\n        /* \"@openzeppelin/contracts-upgradeable@5.0.0/proxy/utils/UUPSUpgradeable.sol\":5028:5241  function _checkNotDelegated() internal view virtual {... */\n    tag_132:\n        /* \"@openzeppelin/contracts-upgradeable@5.0.0/proxy/utils/UUPSUpgradeable.sol\":5111:5117  __self */\n      immutable(\"0x0b83f23a4eeb8c3f5f7d5934a2289bcf0186d09a12e1b7f20adf54e4b179db15\")\n        /* \"@openzeppelin/contracts-upgradeable@5.0.0/proxy/utils/UUPSUpgradeable.sol\":5094:5117  address(this) != __self */\n      0xffffffffffffffffffffffffffffffffffffffff\n      and\n        /* \"@openzeppelin/contracts-upgradeable@5.0.0/proxy/utils/UUPSUpgradeable.sol\":5102:5106  this */\n      address\n        /* \"@openzeppelin/contracts-upgradeable@5.0.0/proxy/utils/UUPSUpgradeable.sol\":5094:5117  address(this) != __self */\n      0xffffffffffffffffffffffffffffffffffffffff\n      and\n      eq\n        /* \"@openzeppelin/contracts-upgradeable@5.0.0/proxy/utils/UUPSUpgradeable.sol\":5090:5235  if (address(this) != __self) {... */\n      tag_230\n      jumpi\n        /* \"@openzeppelin/contracts-upgradeable@5.0.0/proxy/utils/UUPSUpgradeable.sol\":5195:5224  UUPSUnauthorizedCallContext() */\n      mload(0x40)\n      0xe07c8dba00000000000000000000000000000000000000000000000000000000\n      dup2\n      mstore\n      0x04\n      add\n      mload(0x40)\n      dup1\n      swap2\n      sub\n      swap1\n      revert\n        /* \"@openzeppelin/contracts-upgradeable@5.0.0/proxy/utils/UUPSUpgradeable.sol\":5090:5235  if (address(this) != __self) {... */\n    tag_230:\n        /* \"@openzeppelin/contracts-upgradeable@5.0.0/proxy/utils/UUPSUpgradeable.sol\":5028:5241  function _checkNotDelegated() internal view virtual {... */\n      jump\t// out\n        /* \"@openzeppelin/contracts-upgradeable@5.0.0/access/OwnableUpgradeable.sol\":2658:2820  function _checkOwner() internal view virtual {... */\n    tag_138:\n        /* \"@openzeppelin/contracts-upgradeable@5.0.0/access/OwnableUpgradeable.sol\":2728:2740  _msgSender() */\n      tag_232\n        /* \"@openzeppelin/contracts-upgradeable@5.0.0/access/OwnableUpgradeable.sol\":2728:2738  _msgSender */\n      tag_110\n        /* \"@openzeppelin/contracts-upgradeable@5.0.0/access/OwnableUpgradeable.sol\":2728:2740  _msgSender() */\n      jump\t// in\n    tag_232:\n        /* \"@openzeppelin/contracts-upgradeable@5.0.0/access/OwnableUpgradeable.sol\":2717:2740  owner() != _msgSender() */\n      0xffffffffffffffffffffffffffffffffffffffff\n      and\n        /* \"@openzeppelin/contracts-upgradeable@5.0.0/access/OwnableUpgradeable.sol\":2717:2724  owner() */\n      tag_233\n        /* \"@openzeppelin/contracts-upgradeable@5.0.0/access/OwnableUpgradeable.sol\":2717:2722  owner */\n      tag_69\n        /* \"@openzeppelin/contracts-upgradeable@5.0.0/access/OwnableUpgradeable.sol\":2717:2724  owner() */\n      jump\t// in\n    tag_233:\n        /* \"@openzeppelin/contracts-upgradeable@5.0.0/access/OwnableUpgradeable.sol\":2717:2740  owner() != _msgSender() */\n      0xffffffffffffffffffffffffffffffffffffffff\n      and\n      eq\n        /* \"@openzeppelin/contracts-upgradeable@5.0.0/access/OwnableUpgradeable.sol\":2713:2814  if (owner() != _msgSender()) {... */\n      tag_234\n      jumpi\n        /* \"@openzeppelin/contracts-upgradeable@5.0.0/access/OwnableUpgradeable.sol\":2790:2802  _msgSender() */\n      tag_235\n        /* \"@openzeppelin/contracts-upgradeable@5.0.0/access/OwnableUpgradeable.sol\":2790:2800  _msgSender */\n      tag_110\n        /* \"@openzeppelin/contracts-upgradeable@5.0.0/access/OwnableUpgradeable.sol\":2790:2802  _msgSender() */\n      jump\t// in\n    tag_235:\n        /* \"@openzeppelin/contracts-upgradeable@5.0.0/access/OwnableUpgradeable.sol\":2763:2803  OwnableUnauthorizedAccount(_msgSender()) */\n      mload(0x40)\n      0x118cdaa700000000000000000000000000000000000000000000000000000000\n      dup2\n      mstore\n      0x04\n      add\n      tag_236\n      swap2\n      swap1\n      tag_71\n      jump\t// in\n    tag_236:\n      mload(0x40)\n      dup1\n      swap2\n      sub\n      swap1\n      revert\n        /* \"@openzeppelin/contracts-upgradeable@5.0.0/access/OwnableUpgradeable.sol\":2713:2814  if (owner() != _msgSender()) {... */\n    tag_234:\n        /* \"@openzeppelin/contracts-upgradeable@5.0.0/access/OwnableUpgradeable.sol\":2658:2820  function _checkOwner() internal view virtual {... */\n      jump\t// out\n        /* \"@openzeppelin/contracts-upgradeable@5.0.0/access/OwnableUpgradeable.sol\":3774:4022  function _transferOwnership(address newOwner) internal virtual {... */\n    tag_141:\n        /* \"@openzeppelin/contracts-upgradeable@5.0.0/access/OwnableUpgradeable.sol\":3847:3871  OwnableStorage storage $ */\n      0x00\n        /* \"@openzeppelin/contracts-upgradeable@5.0.0/access/OwnableUpgradeable.sol\":3874:3894  _getOwnableStorage() */\n      tag_238\n        /* \"@openzeppelin/contracts-upgradeable@5.0.0/access/OwnableUpgradeable.sol\":3874:3892  _getOwnableStorage */\n      tag_144\n        /* \"@openzeppelin/contracts-upgradeable@5.0.0/access/OwnableUpgradeable.sol\":3874:3894  _getOwnableStorage() */\n      jump\t// in\n    tag_238:\n        /* \"@openzeppelin/contracts-upgradeable@5.0.0/access/OwnableUpgradeable.sol\":3847:3894  OwnableStorage storage $ = _getOwnableStorage() */\n      swap1\n      pop\n        /* \"@openzeppelin/contracts-upgradeable@5.0.0/access/OwnableUpgradeable.sol\":3904:3920  address oldOwner */\n      0x00\n        /* \"@openzeppelin/contracts-upgradeable@5.0.0/access/OwnableUpgradeable.sol\":3923:3924  $ */\n      dup2\n        /* \"@openzeppelin/contracts-upgradeable@5.0.0/access/OwnableUpgradeable.sol\":3923:3931  $._owner */\n      0x00\n      add\n      0x00\n      swap1\n      sload\n      swap1\n      0x0100\n      exp\n      swap1\n      div\n      0xffffffffffffffffffffffffffffffffffffffff\n      and\n        /* \"@openzeppelin/contracts-upgradeable@5.0.0/access/OwnableUpgradeable.sol\":3904:3931  address oldOwner = $._owner */\n      swap1\n      pop\n        /* \"@openzeppelin/contracts-upgradeable@5.0.0/access/OwnableUpgradeable.sol\":3952:3960  newOwner */\n      dup3\n        /* \"@openzeppelin/contracts-upgradeable@5.0.0/access/OwnableUpgradeable.sol\":3941:3942  $ */\n      dup3\n        /* \"@openzeppelin/contracts-upgradeable@5.0.0/access/OwnableUpgradeable.sol\":3941:3949  $._owner */\n      0x00\n      add\n      0x00\n        /* \"@openzeppelin/contracts-upgradeable@5.0.0/access/OwnableUpgradeable.sol\":3941:3960  $._owner = newOwner */\n      0x0100\n      exp\n      dup2\n      sload\n      dup2\n      0xffffffffffffffffffffffffffffffffffffffff\n      mul\n      not\n      and\n      swap1\n      dup4\n      0xffffffffffffffffffffffffffffffffffffffff\n      and\n      mul\n      or\n      swap1\n      sstore\n      pop\n        /* \"@openzeppelin/contracts-upgradeable@5.0.0/access/OwnableUpgradeable.sol\":4006:4014  newOwner */\n      dup3\n        /* \"@openzeppelin/contracts-upgradeable@5.0.0/access/OwnableUpgradeable.sol\":3975:4015  OwnershipTransferred(oldOwner, newOwner) */\n      0xffffffffffffffffffffffffffffffffffffffff\n      and\n        /* \"@openzeppelin/contracts-upgradeable@5.0.0/access/OwnableUpgradeable.sol\":3996:4004  oldOwner */\n      dup2\n        /* \"@openzeppelin/contracts-upgradeable@5.0.0/access/OwnableUpgradeable.sol\":3975:4015  OwnershipTransferred(oldOwner, newOwner) */\n      0xffffffffffffffffffffffffffffffffffffffff\n      and\n      0x8be0079c531659141344cd1fd0a4f28419497f9722a3daafe3b4186f6b6457e0\n      mload(0x40)\n      mload(0x40)\n      dup1\n      swap2\n      sub\n      swap1\n      log3\n        /* \"@openzeppelin/contracts-upgradeable@5.0.0/access/OwnableUpgradeable.sol\":3837:4022  {... */\n      pop\n      pop\n        /* \"@openzeppelin/contracts-upgradeable@5.0.0/access/OwnableUpgradeable.sol\":3774:4022  function _transferOwnership(address newOwner) internal virtual {... */\n      pop\n      jump\t// out\n        /* \"@openzeppelin/contracts-upgradeable@5.0.0/access/OwnableUpgradeable.sol\":1192:1351  function _getOwnableStorage() private pure returns (OwnableStorage storage $) {... */\n    tag_144:\n        /* \"@openzeppelin/contracts-upgradeable@5.0.0/access/OwnableUpgradeable.sol\":1244:1268  OwnableStorage storage $ */\n      0x00\n        /* \"@openzeppelin/contracts-upgradeable@5.0.0/access/OwnableUpgradeable.sol\":1313:1335  OwnableStorageLocation */\n      0x9016d09d72d40fdae2fd8ceac6b6234c7706214fd39c1cd1e609a0528c199300\n        /* \"@openzeppelin/contracts-upgradeable@5.0.0/access/OwnableUpgradeable.sol\":1303:1335  $.slot := OwnableStorageLocation */\n      swap1\n      pop\n        /* \"@openzeppelin/contracts-upgradeable@5.0.0/access/OwnableUpgradeable.sol\":1192:1351  function _getOwnableStorage() private pure returns (OwnableStorage storage $) {... */\n      swap1\n      jump\t// out\n        /* \"@openzeppelin/contracts-upgradeable@5.0.0/proxy/utils/Initializable.sol\":8737:8907  function _getInitializableStorage() private pure returns (InitializableStorage storage $) {... */\n    tag_157:\n        /* \"@openzeppelin/contracts-upgradeable@5.0.0/proxy/utils/Initializable.sol\":8795:8825  InitializableStorage storage $ */\n      0x00\n        /* \"@openzeppelin/contracts-upgradeable@5.0.0/proxy/utils/Initializable.sol\":8870:8891  INITIALIZABLE_STORAGE */\n      0xf0c57e16840df040f15088dc2f81fe391c3923bec73e23a9662efc9c229c6a00\n        /* \"@openzeppelin/contracts-upgradeable@5.0.0/proxy/utils/Initializable.sol\":8860:8891  $.slot := INITIALIZABLE_STORAGE */\n      swap1\n      pop\n        /* \"@openzeppelin/contracts-upgradeable@5.0.0/proxy/utils/Initializable.sol\":8737:8907  function _getInitializableStorage() private pure returns (InitializableStorage storage $) {... */\n      swap1\n      jump\t// out\n        /* \"@openzeppelin/contracts-upgradeable@5.0.0/token/ERC20/ERC20Upgradeable.sol\":2577:2724  function __ERC20_init(string memory name_, string memory symbol_) internal onlyInitializing {... */\n    tag_165:\n        /* \"@openzeppelin/contracts-upgradeable@5.0.0/proxy/utils/Initializable.sol\":6931:6951  _checkInitializing() */\n      tag_242\n        /* \"@openzeppelin/contracts-upgradeable@5.0.0/proxy/utils/Initializable.sol\":6931:6949  _checkInitializing */\n      tag_243\n        /* \"@openzeppelin/contracts-upgradeable@5.0.0/proxy/utils/Initializable.sol\":6931:6951  _checkInitializing() */\n      jump\t// in\n    tag_242:\n        /* \"@openzeppelin/contracts-upgradeable@5.0.0/token/ERC20/ERC20Upgradeable.sol\":2679:2717  __ERC20_init_unchained(name_, symbol_) */\n      tag_245\n        /* \"@openzeppelin/contracts-upgradeable@5.0.0/token/ERC20/ERC20Upgradeable.sol\":2702:2707  name_ */\n      dup3\n        /* \"@openzeppelin/contracts-upgradeable@5.0.0/token/ERC20/ERC20Upgradeable.sol\":2709:2716  symbol_ */\n      dup3\n        /* \"@openzeppelin/contracts-upgradeable@5.0.0/token/ERC20/ERC20Upgradeable.sol\":2679:2701  __ERC20_init_unchained */\n      tag_246\n        /* \"@openzeppelin/contracts-upgradeable@5.0.0/token/ERC20/ERC20Upgradeable.sol\":2679:2717  __ERC20_init_unchained(name_, symbol_) */\n      jump\t// in\n    tag_245:\n        /* \"@openzeppelin/contracts-upgradeable@5.0.0/token/ERC20/ERC20Upgradeable.sol\":2577:2724  function __ERC20_init(string memory name_, string memory symbol_) internal onlyInitializing {... */\n      pop\n      pop\n      jump\t// out\n        /* \"@openzeppelin/contracts-upgradeable@5.0.0/access/OwnableUpgradeable.sol\":1847:1974  function __Ownable_init(address initialOwner) internal onlyInitializing {... */\n    tag_167:\n        /* \"@openzeppelin/contracts-upgradeable@5.0.0/proxy/utils/Initializable.sol\":6931:6951  _checkInitializing() */\n      tag_248\n        /* \"@openzeppelin/contracts-upgradeable@5.0.0/proxy/utils/Initializable.sol\":6931:6949  _checkInitializing */\n      tag_243\n        /* \"@openzeppelin/contracts-upgradeable@5.0.0/proxy/utils/Initializable.sol\":6931:6951  _checkInitializing() */\n      jump\t// in\n    tag_248:\n        /* \"@openzeppelin/contracts-upgradeable@5.0.0/access/OwnableUpgradeable.sol\":1929:1967  __Ownable_init_unchained(initialOwner) */\n      tag_250\n        /* \"@openzeppelin/contracts-upgradeable@5.0.0/access/OwnableUpgradeable.sol\":1954:1966  initialOwner */\n      dup2\n        /* \"@openzeppelin/contracts-upgradeable@5.0.0/access/OwnableUpgradeable.sol\":1929:1953  __Ownable_init_unchained */\n      tag_251\n        /* \"@openzeppelin/contracts-upgradeable@5.0.0/access/OwnableUpgradeable.sol\":1929:1967  __Ownable_init_unchained(initialOwner) */\n      jump\t// in\n    tag_250:\n        /* \"@openzeppelin/contracts-upgradeable@5.0.0/access/OwnableUpgradeable.sol\":1847:1974  function __Ownable_init(address initialOwner) internal onlyInitializing {... */\n      pop\n      jump\t// out\n        /* \"@openzeppelin/contracts-upgradeable@5.0.0/proxy/utils/UUPSUpgradeable.sol\":2968:3035  function __UUPSUpgradeable_init() internal onlyInitializing {... */\n    tag_169:\n        /* \"@openzeppelin/contracts-upgradeable@5.0.0/proxy/utils/Initializable.sol\":6931:6951  _checkInitializing() */\n      tag_253\n        /* \"@openzeppelin/contracts-upgradeable@5.0.0/proxy/utils/Initializable.sol\":6931:6949  _checkInitializing */\n      tag_243\n        /* \"@openzeppelin/contracts-upgradeable@5.0.0/proxy/utils/Initializable.sol\":6931:6951  _checkInitializing() */\n      jump\t// in\n    tag_253:\n        /* \"@openzeppelin/contracts-upgradeable@5.0.0/proxy/utils/UUPSUpgradeable.sol\":2968:3035  function __UUPSUpgradeable_init() internal onlyInitializing {... */\n      jump\t// out\n        /* \"@openzeppelin/contracts-upgradeable@5.0.0/token/ERC20/ERC20Upgradeable.sol\":8996:9204  function _mint(address account, uint256 value) internal {... */\n    tag_176:\n        /* \"@openzeppelin/contracts-upgradeable@5.0.0/token/ERC20/ERC20Upgradeable.sol\":9085:9086  0 */\n      0x00\n        /* \"@openzeppelin/contracts-upgradeable@5.0.0/token/ERC20/ERC20Upgradeable.sol\":9066:9087  account == address(0) */\n      0xffffffffffffffffffffffffffffffffffffffff\n      and\n        /* \"@openzeppelin/contracts-upgradeable@5.0.0/token/ERC20/ERC20Upgradeable.sol\":9066:9073  account */\n      dup3\n        /* \"@openzeppelin/contracts-upgradeable@5.0.0/token/ERC20/ERC20Upgradeable.sol\":9066:9087  account == address(0) */\n      0xffffffffffffffffffffffffffffffffffffffff\n      and\n      sub\n        /* \"@openzeppelin/contracts-upgradeable@5.0.0/token/ERC20/ERC20Upgradeable.sol\":9062:9153  if (account == address(0)) {... */\n      tag_256\n      jumpi\n        /* \"@openzeppelin/contracts-upgradeable@5.0.0/token/ERC20/ERC20Upgradeable.sol\":9139:9140  0 */\n      0x00\n        /* \"@openzeppelin/contracts-upgradeable@5.0.0/token/ERC20/ERC20Upgradeable.sol\":9110:9142  ERC20InvalidReceiver(address(0)) */\n      mload(0x40)\n      0xec442f0500000000000000000000000000000000000000000000000000000000\n      dup2\n      mstore\n      0x04\n      add\n      tag_257\n      swap2\n      swap1\n      tag_71\n      jump\t// in\n    tag_257:\n      mload(0x40)\n      dup1\n      swap2\n      sub\n      swap1\n      revert\n        /* \"@openzeppelin/contracts-upgradeable@5.0.0/token/ERC20/ERC20Upgradeable.sol\":9062:9153  if (account == address(0)) {... */\n    tag_256:\n        /* \"@openzeppelin/contracts-upgradeable@5.0.0/token/ERC20/ERC20Upgradeable.sol\":9162:9197  _update(address(0), account, value) */\n      tag_258\n        /* \"@openzeppelin/contracts-upgradeable@5.0.0/token/ERC20/ERC20Upgradeable.sol\":9178:9179  0 */\n      0x00\n        /* \"@openzeppelin/contracts-upgradeable@5.0.0/token/ERC20/ERC20Upgradeable.sol\":9182:9189  account */\n      dup4\n        /* \"@openzeppelin/contracts-upgradeable@5.0.0/token/ERC20/ERC20Upgradeable.sol\":9191:9196  value */\n      dup4\n        /* \"@openzeppelin/contracts-upgradeable@5.0.0/token/ERC20/ERC20Upgradeable.sol\":9162:9169  _update */\n      tag_206\n        /* \"@openzeppelin/contracts-upgradeable@5.0.0/token/ERC20/ERC20Upgradeable.sol\":9162:9197  _update(address(0), account, value) */\n      jump\t// in\n    tag_258:\n        /* \"@openzeppelin/contracts-upgradeable@5.0.0/token/ERC20/ERC20Upgradeable.sol\":8996:9204  function _mint(address account, uint256 value) internal {... */\n      pop\n      pop\n      jump\t// out\n        /* \"@openzeppelin/contracts-upgradeable@5.0.0/token/ERC20/ERC20Upgradeable.sol\":11224:11711  function _approve(address owner, address spender, uint256 value, bool emitEvent) internal virtual {... */\n    tag_192:\n        /* \"@openzeppelin/contracts-upgradeable@5.0.0/token/ERC20/ERC20Upgradeable.sol\":11332:11354  ERC20Storage storage $ */\n      0x00\n        /* \"@openzeppelin/contracts-upgradeable@5.0.0/token/ERC20/ERC20Upgradeable.sol\":11357:11375  _getERC20Storage() */\n      tag_260\n        /* \"@openzeppelin/contracts-upgradeable@5.0.0/token/ERC20/ERC20Upgradeable.sol\":11357:11373  _getERC20Storage */\n      tag_101\n        /* \"@openzeppelin/contracts-upgradeable@5.0.0/token/ERC20/ERC20Upgradeable.sol\":11357:11375  _getERC20Storage() */\n      jump\t// in\n    tag_260:\n        /* \"@openzeppelin/contracts-upgradeable@5.0.0/token/ERC20/ERC20Upgradeable.sol\":11332:11375  ERC20Storage storage $ = _getERC20Storage() */\n      swap1\n      pop\n        /* \"@openzeppelin/contracts-upgradeable@5.0.0/token/ERC20/ERC20Upgradeable.sol\":11406:11407  0 */\n      0x00\n        /* \"@openzeppelin/contracts-upgradeable@5.0.0/token/ERC20/ERC20Upgradeable.sol\":11389:11408  owner == address(0) */\n      0xffffffffffffffffffffffffffffffffffffffff\n      and\n        /* \"@openzeppelin/contracts-upgradeable@5.0.0/token/ERC20/ERC20Upgradeable.sol\":11389:11394  owner */\n      dup6\n        /* \"@openzeppelin/contracts-upgradeable@5.0.0/token/ERC20/ERC20Upgradeable.sol\":11389:11408  owner == address(0) */\n      0xffffffffffffffffffffffffffffffffffffffff\n      and\n      sub\n        /* \"@openzeppelin/contracts-upgradeable@5.0.0/token/ERC20/ERC20Upgradeable.sol\":11385:11474  if (owner == address(0)) {... */\n      tag_261\n      jumpi\n        /* \"@openzeppelin/contracts-upgradeable@5.0.0/token/ERC20/ERC20Upgradeable.sol\":11460:11461  0 */\n      0x00\n        /* \"@openzeppelin/contracts-upgradeable@5.0.0/token/ERC20/ERC20Upgradeable.sol\":11431:11463  ERC20InvalidApprover(address(0)) */\n      mload(0x40)\n      0xe602df0500000000000000000000000000000000000000000000000000000000\n      dup2\n      mstore\n      0x04\n      add\n      tag_262\n      swap2\n      swap1\n      tag_71\n      jump\t// in\n    tag_262:\n      mload(0x40)\n      dup1\n      swap2\n      sub\n      swap1\n      revert\n        /* \"@openzeppelin/contracts-upgradeable@5.0.0/token/ERC20/ERC20Upgradeable.sol\":11385:11474  if (owner == address(0)) {... */\n    tag_261:\n        /* \"@openzeppelin/contracts-upgradeable@5.0.0/token/ERC20/ERC20Upgradeable.sol\":11506:11507  0 */\n      0x00\n        /* \"@openzeppelin/contracts-upgradeable@5.0.0/token/ERC20/ERC20Upgradeable.sol\":11487:11508  spender == address(0) */\n      0xffffffffffffffffffffffffffffffffffffffff\n      and\n        /* \"@openzeppelin/contracts-upgradeable@5.0.0/token/ERC20/ERC20Upgradeable.sol\":11487:11494  spender */\n      dup5\n        /* \"@openzeppelin/contracts-upgradeable@5.0.0/token/ERC20/ERC20Upgradeable.sol\":11487:11508  spender == address(0) */\n      0xffffffffffffffffffffffffffffffffffffffff\n      and\n      sub\n        /* \"@openzeppelin/contracts-upgradeable@5.0.0/token/ERC20/ERC20Upgradeable.sol\":11483:11573  if (spender == address(0)) {... */\n      tag_263\n      jumpi\n        /* \"@openzeppelin/contracts-upgradeable@5.0.0/token/ERC20/ERC20Upgradeable.sol\":11559:11560  0 */\n      0x00\n        /* \"@openzeppelin/contracts-upgradeable@5.0.0/token/ERC20/ERC20Upgradeable.sol\":11531:11562  ERC20InvalidSpender(address(0)) */\n      mload(0x40)\n      0x94280d6200000000000000000000000000000000000000000000000000000000\n      dup2\n      mstore\n      0x04\n      add\n      tag_264\n      swap2\n      swap1\n      tag_71\n      jump\t// in\n    tag_264:\n      mload(0x40)\n      dup1\n      swap2\n      sub\n      swap1\n      revert\n        /* \"@openzeppelin/contracts-upgradeable@5.0.0/token/ERC20/ERC20Upgradeable.sol\":11483:11573  if (spender == address(0)) {... */\n    tag_263:\n        /* \"@openzeppelin/contracts-upgradeable@5.0.0/token/ERC20/ERC20Upgradeable.sol\":11614:11619  value */\n      dup3\n        /* \"@openzeppelin/contracts-upgradeable@5.0.0/token/ERC20/ERC20Upgradeable.sol\":11582:11583  $ */\n      dup2\n        /* \"@openzeppelin/contracts-upgradeable@5.0.0/token/ERC20/ERC20Upgradeable.sol\":11582:11595  $._allowances */\n      0x01\n      add\n        /* \"@openzeppelin/contracts-upgradeable@5.0.0/token/ERC20/ERC20Upgradeable.sol\":11582:11602  $._allowances[owner] */\n      0x00\n        /* \"@openzeppelin/contracts-upgradeable@5.0.0/token/ERC20/ERC20Upgradeable.sol\":11596:11601  owner */\n      dup8\n        /* \"@openzeppelin/contracts-upgradeable@5.0.0/token/ERC20/ERC20Upgradeable.sol\":11582:11602  $._allowances[owner] */\n      0xffffffffffffffffffffffffffffffffffffffff\n      and\n      0xffffffffffffffffffffffffffffffffffffffff\n      and\n      dup2\n      mstore\n      0x20\n      add\n      swap1\n      dup2\n      mstore\n      0x20\n      add\n      0x00\n      keccak256\n        /* \"@openzeppelin/contracts-upgradeable@5.0.0/token/ERC20/ERC20Upgradeable.sol\":11582:11611  $._allowances[owner][spender] */\n      0x00\n        /* \"@openzeppelin/contracts-upgradeable@5.0.0/token/ERC20/ERC20Upgradeable.sol\":11603:11610  spender */\n      dup7\n        /* \"@openzeppelin/contracts-upgradeable@5.0.0/token/ERC20/ERC20Upgradeable.sol\":11582:11611  $._allowances[owner][spender] */\n      0xffffffffffffffffffffffffffffffffffffffff\n      and\n      0xffffffffffffffffffffffffffffffffffffffff\n      and\n      dup2\n      mstore\n      0x20\n      add\n      swap1\n      dup2\n      mstore\n      0x20\n      add\n      0x00\n      keccak256\n        /* \"@openzeppelin/contracts-upgradeable@5.0.0/token/ERC20/ERC20Upgradeable.sol\":11582:11619  $._allowances[owner][spender] = value */\n      dup2\n      swap1\n      sstore\n      pop\n        /* \"@openzeppelin/contracts-upgradeable@5.0.0/token/ERC20/ERC20Upgradeable.sol\":11633:11642  emitEvent */\n      dup2\n        /* \"@openzeppelin/contracts-upgradeable@5.0.0/token/ERC20/ERC20Upgradeable.sol\":11629:11705  if (emitEvent) {... */\n      iszero\n      tag_265\n      jumpi\n        /* \"@openzeppelin/contracts-upgradeable@5.0.0/token/ERC20/ERC20Upgradeable.sol\":11679:11686  spender */\n      dup4\n        /* \"@openzeppelin/contracts-upgradeable@5.0.0/token/ERC20/ERC20Upgradeable.sol\":11663:11694  Approval(owner, spender, value) */\n      0xffffffffffffffffffffffffffffffffffffffff\n      and\n        /* \"@openzeppelin/contracts-upgradeable@5.0.0/token/ERC20/ERC20Upgradeable.sol\":11672:11677  owner */\n      dup6\n        /* \"@openzeppelin/contracts-upgradeable@5.0.0/token/ERC20/ERC20Upgradeable.sol\":11663:11694  Approval(owner, spender, value) */\n      0xffffffffffffffffffffffffffffffffffffffff\n      and\n      0x8c5be1e5ebec7d5bd14f71427d1e84f3dd0314c0f7b2291e5b200ac8c7c3b925\n        /* \"@openzeppelin/contracts-upgradeable@5.0.0/token/ERC20/ERC20Upgradeable.sol\":11688:11693  value */\n      dup6\n        /* \"@openzeppelin/contracts-upgradeable@5.0.0/token/ERC20/ERC20Upgradeable.sol\":11663:11694  Approval(owner, spender, value) */\n      mload(0x40)\n      tag_266\n      swap2\n      swap1\n      tag_37\n      jump\t// in\n    tag_266:\n      mload(0x40)\n      dup1\n      swap2\n      sub\n      swap1\n      log3\n        /* \"@openzeppelin/contracts-upgradeable@5.0.0/token/ERC20/ERC20Upgradeable.sol\":11629:11705  if (emitEvent) {... */\n    tag_265:\n        /* \"@openzeppelin/contracts-upgradeable@5.0.0/token/ERC20/ERC20Upgradeable.sol\":11322:11711  {... */\n      pop\n        /* \"@openzeppelin/contracts-upgradeable@5.0.0/token/ERC20/ERC20Upgradeable.sol\":11224:11711  function _approve(address owner, address spender, uint256 value, bool emitEvent) internal virtual {... */\n      pop\n      pop\n      pop\n      pop\n      jump\t// out\n        /* \"@openzeppelin/contracts-upgradeable@5.0.0/token/ERC20/ERC20Upgradeable.sol\":7483:8653  function _update(address from, address to, uint256 value) internal virtual {... */\n    tag_206:\n        /* \"@openzeppelin/contracts-upgradeable@5.0.0/token/ERC20/ERC20Upgradeable.sol\":7568:7590  ERC20Storage storage $ */\n      0x00\n        /* \"@openzeppelin/contracts-upgradeable@5.0.0/token/ERC20/ERC20Upgradeable.sol\":7593:7611  _getERC20Storage() */\n      tag_268\n        /* \"@openzeppelin/contracts-upgradeable@5.0.0/token/ERC20/ERC20Upgradeable.sol\":7593:7609  _getERC20Storage */\n      tag_101\n        /* \"@openzeppelin/contracts-upgradeable@5.0.0/token/ERC20/ERC20Upgradeable.sol\":7593:7611  _getERC20Storage() */\n      jump\t// in\n    tag_268:\n        /* \"@openzeppelin/contracts-upgradeable@5.0.0/token/ERC20/ERC20Upgradeable.sol\":7568:7611  ERC20Storage storage $ = _getERC20Storage() */\n      swap1\n      pop\n        /* \"@openzeppelin/contracts-upgradeable@5.0.0/token/ERC20/ERC20Upgradeable.sol\":7641:7642  0 */\n      0x00\n        /* \"@openzeppelin/contracts-upgradeable@5.0.0/token/ERC20/ERC20Upgradeable.sol\":7625:7643  from == address(0) */\n      0xffffffffffffffffffffffffffffffffffffffff\n      and\n        /* \"@openzeppelin/contracts-upgradeable@5.0.0/token/ERC20/ERC20Upgradeable.sol\":7625:7629  from */\n      dup5\n        /* \"@openzeppelin/contracts-upgradeable@5.0.0/token/ERC20/ERC20Upgradeable.sol\":7625:7643  from == address(0) */\n      0xffffffffffffffffffffffffffffffffffffffff\n      and\n      sub\n        /* \"@openzeppelin/contracts-upgradeable@5.0.0/token/ERC20/ERC20Upgradeable.sol\":7621:8167  if (from == address(0)) {... */\n      tag_269\n      jumpi\n        /* \"@openzeppelin/contracts-upgradeable@5.0.0/token/ERC20/ERC20Upgradeable.sol\":7779:7784  value */\n      dup2\n        /* \"@openzeppelin/contracts-upgradeable@5.0.0/token/ERC20/ERC20Upgradeable.sol\":7761:7762  $ */\n      dup2\n        /* \"@openzeppelin/contracts-upgradeable@5.0.0/token/ERC20/ERC20Upgradeable.sol\":7761:7775  $._totalSupply */\n      0x02\n      add\n      0x00\n        /* \"@openzeppelin/contracts-upgradeable@5.0.0/token/ERC20/ERC20Upgradeable.sol\":7761:7784  $._totalSupply += value */\n      dup3\n      dup3\n      sload\n      tag_270\n      swap2\n      swap1\n      tag_271\n      jump\t// in\n    tag_270:\n      swap3\n      pop\n      pop\n      dup2\n      swap1\n      sstore\n      pop\n        /* \"@openzeppelin/contracts-upgradeable@5.0.0/token/ERC20/ERC20Upgradeable.sol\":7621:8167  if (from == address(0)) {... */\n      jump(tag_272)\n    tag_269:\n        /* \"@openzeppelin/contracts-upgradeable@5.0.0/token/ERC20/ERC20Upgradeable.sol\":7815:7834  uint256 fromBalance */\n      0x00\n        /* \"@openzeppelin/contracts-upgradeable@5.0.0/token/ERC20/ERC20Upgradeable.sol\":7837:7838  $ */\n      dup2\n        /* \"@openzeppelin/contracts-upgradeable@5.0.0/token/ERC20/ERC20Upgradeable.sol\":7837:7848  $._balances */\n      0x00\n      add\n        /* \"@openzeppelin/contracts-upgradeable@5.0.0/token/ERC20/ERC20Upgradeable.sol\":7837:7854  $._balances[from] */\n      0x00\n        /* \"@openzeppelin/contracts-upgradeable@5.0.0/token/ERC20/ERC20Upgradeable.sol\":7849:7853  from */\n      dup7\n        /* \"@openzeppelin/contracts-upgradeable@5.0.0/token/ERC20/ERC20Upgradeable.sol\":7837:7854  $._balances[from] */\n      0xffffffffffffffffffffffffffffffffffffffff\n      and\n      0xffffffffffffffffffffffffffffffffffffffff\n      and\n      dup2\n      mstore\n      0x20\n      add\n      swap1\n      dup2\n      mstore\n      0x20\n      add\n      0x00\n      keccak256\n      sload\n        /* \"@openzeppelin/contracts-upgradeable@5.0.0/token/ERC20/ERC20Upgradeable.sol\":7815:7854  uint256 fromBalance = $._balances[from] */\n      swap1\n      pop\n        /* \"@openzeppelin/contracts-upgradeable@5.0.0/token/ERC20/ERC20Upgradeable.sol\":7886:7891  value */\n      dup3\n        /* \"@openzeppelin/contracts-upgradeable@5.0.0/token/ERC20/ERC20Upgradeable.sol\":7872:7883  fromBalance */\n      dup2\n        /* \"@openzeppelin/contracts-upgradeable@5.0.0/token/ERC20/ERC20Upgradeable.sol\":7872:7891  fromBalance < value */\n      lt\n        /* \"@openzeppelin/contracts-upgradeable@5.0.0/token/ERC20/ERC20Upgradeable.sol\":7868:7983  if (fromBalance < value) {... */\n      iszero\n      tag_273\n      jumpi\n        /* \"@openzeppelin/contracts-upgradeable@5.0.0/token/ERC20/ERC20Upgradeable.sol\":7943:7947  from */\n      dup5\n        /* \"@openzeppelin/contracts-upgradeable@5.0.0/token/ERC20/ERC20Upgradeable.sol\":7949:7960  fromBalance */\n      dup2\n        /* \"@openzeppelin/contracts-upgradeable@5.0.0/token/ERC20/ERC20Upgradeable.sol\":7962:7967  value */\n      dup5\n        /* \"@openzeppelin/contracts-upgradeable@5.0.0/token/ERC20/ERC20Upgradeable.sol\":7918:7968  ERC20InsufficientBalance(from, fromBalance, value) */\n      mload(0x40)\n      0xe450d38c00000000000000000000000000000000000000000000000000000000\n      dup2\n      mstore\n      0x04\n      add\n      tag_274\n      swap4\n      swap3\n      swap2\n      swap1\n      tag_198\n      jump\t// in\n    tag_274:\n      mload(0x40)\n      dup1\n      swap2\n      sub\n      swap1\n      revert\n        /* \"@openzeppelin/contracts-upgradeable@5.0.0/token/ERC20/ERC20Upgradeable.sol\":7868:7983  if (fromBalance < value) {... */\n    tag_273:\n        /* \"@openzeppelin/contracts-upgradeable@5.0.0/token/ERC20/ERC20Upgradeable.sol\":8137:8142  value */\n      dup3\n        /* \"@openzeppelin/contracts-upgradeable@5.0.0/token/ERC20/ERC20Upgradeable.sol\":8123:8134  fromBalance */\n      dup2\n        /* \"@openzeppelin/contracts-upgradeable@5.0.0/token/ERC20/ERC20Upgradeable.sol\":8123:8142  fromBalance - value */\n      sub\n        /* \"@openzeppelin/contracts-upgradeable@5.0.0/token/ERC20/ERC20Upgradeable.sol\":8103:8104  $ */\n      dup3\n        /* \"@openzeppelin/contracts-upgradeable@5.0.0/token/ERC20/ERC20Upgradeable.sol\":8103:8114  $._balances */\n      0x00\n      add\n        /* \"@openzeppelin/contracts-upgradeable@5.0.0/token/ERC20/ERC20Upgradeable.sol\":8103:8120  $._balances[from] */\n      0x00\n        /* \"@openzeppelin/contracts-upgradeable@5.0.0/token/ERC20/ERC20Upgradeable.sol\":8115:8119  from */\n      dup8\n        /* \"@openzeppelin/contracts-upgradeable@5.0.0/token/ERC20/ERC20Upgradeable.sol\":8103:8120  $._balances[from] */\n      0xffffffffffffffffffffffffffffffffffffffff\n      and\n      0xffffffffffffffffffffffffffffffffffffffff\n      and\n      dup2\n      mstore\n      0x20\n      add\n      swap1\n      dup2\n      mstore\n      0x20\n      add\n      0x00\n      keccak256\n        /* \"@openzeppelin/contracts-upgradeable@5.0.0/token/ERC20/ERC20Upgradeable.sol\":8103:8142  $._balances[from] = fromBalance - value */\n      dup2\n      swap1\n      sstore\n      pop\n        /* \"@openzeppelin/contracts-upgradeable@5.0.0/token/ERC20/ERC20Upgradeable.sol\":7801:8167  {... */\n      pop\n        /* \"@openzeppelin/contracts-upgradeable@5.0.0/token/ERC20/ERC20Upgradeable.sol\":7621:8167  if (from == address(0)) {... */\n    tag_272:\n        /* \"@openzeppelin/contracts-upgradeable@5.0.0/token/ERC20/ERC20Upgradeable.sol\":8195:8196  0 */\n      0x00\n        /* \"@openzeppelin/contracts-upgradeable@5.0.0/token/ERC20/ERC20Upgradeable.sol\":8181:8197  to == address(0) */\n      0xffffffffffffffffffffffffffffffffffffffff\n      and\n        /* \"@openzeppelin/contracts-upgradeable@5.0.0/token/ERC20/ERC20Upgradeable.sol\":8181:8183  to */\n      dup4\n        /* \"@openzeppelin/contracts-upgradeable@5.0.0/token/ERC20/ERC20Upgradeable.sol\":8181:8197  to == address(0) */\n      0xffffffffffffffffffffffffffffffffffffffff\n      and\n      sub\n        /* \"@openzeppelin/contracts-upgradeable@5.0.0/token/ERC20/ERC20Upgradeable.sol\":8177:8606  if (to == address(0)) {... */\n      tag_275\n      jumpi\n        /* \"@openzeppelin/contracts-upgradeable@5.0.0/token/ERC20/ERC20Upgradeable.sol\":8362:8367  value */\n      dup2\n        /* \"@openzeppelin/contracts-upgradeable@5.0.0/token/ERC20/ERC20Upgradeable.sol\":8344:8345  $ */\n      dup2\n        /* \"@openzeppelin/contracts-upgradeable@5.0.0/token/ERC20/ERC20Upgradeable.sol\":8344:8358  $._totalSupply */\n      0x02\n      add\n      0x00\n        /* \"@openzeppelin/contracts-upgradeable@5.0.0/token/ERC20/ERC20Upgradeable.sol\":8344:8367  $._totalSupply -= value */\n      dup3\n      dup3\n      sload\n      sub\n      swap3\n      pop\n      pop\n      dup2\n      swap1\n      sstore\n      pop\n        /* \"@openzeppelin/contracts-upgradeable@5.0.0/token/ERC20/ERC20Upgradeable.sol\":8177:8606  if (to == address(0)) {... */\n      jump(tag_276)\n    tag_275:\n        /* \"@openzeppelin/contracts-upgradeable@5.0.0/token/ERC20/ERC20Upgradeable.sol\":8576:8581  value */\n      dup2\n        /* \"@openzeppelin/contracts-upgradeable@5.0.0/token/ERC20/ERC20Upgradeable.sol\":8557:8558  $ */\n      dup2\n        /* \"@openzeppelin/contracts-upgradeable@5.0.0/token/ERC20/ERC20Upgradeable.sol\":8557:8568  $._balances */\n      0x00\n      add\n        /* \"@openzeppelin/contracts-upgradeable@5.0.0/token/ERC20/ERC20Upgradeable.sol\":8557:8572  $._balances[to] */\n      0x00\n        /* \"@openzeppelin/contracts-upgradeable@5.0.0/token/ERC20/ERC20Upgradeable.sol\":8569:8571  to */\n      dup6\n        /* \"@openzeppelin/contracts-upgradeable@5.0.0/token/ERC20/ERC20Upgradeable.sol\":8557:8572  $._balances[to] */\n      0xffffffffffffffffffffffffffffffffffffffff\n      and\n      0xffffffffffffffffffffffffffffffffffffffff\n      and\n      dup2\n      mstore\n      0x20\n      add\n      swap1\n      dup2\n      mstore\n      0x20\n      add\n      0x00\n      keccak256\n      0x00\n        /* \"@openzeppelin/contracts-upgradeable@5.0.0/token/ERC20/ERC20Upgradeable.sol\":8557:8581  $._balances[to] += value */\n      dup3\n      dup3\n      sload\n      add\n      swap3\n      pop\n      pop\n      dup2\n      swap1\n      sstore\n      pop\n        /* \"@openzeppelin/contracts-upgradeable@5.0.0/token/ERC20/ERC20Upgradeable.sol\":8177:8606  if (to == address(0)) {... */\n    tag_276:\n        /* \"@openzeppelin/contracts-upgradeable@5.0.0/token/ERC20/ERC20Upgradeable.sol\":8636:8638  to */\n      dup3\n        /* \"@openzeppelin/contracts-upgradeable@5.0.0/token/ERC20/ERC20Upgradeable.sol\":8621:8646  Transfer(from, to, value) */\n      0xffffffffffffffffffffffffffffffffffffffff\n      and\n        /* \"@openzeppelin/contracts-upgradeable@5.0.0/token/ERC20/ERC20Upgradeable.sol\":8630:8634  from */\n      dup5\n        /* \"@openzeppelin/contracts-upgradeable@5.0.0/token/ERC20/ERC20Upgradeable.sol\":8621:8646  Transfer(from, to, value) */\n      0xffffffffffffffffffffffffffffffffffffffff\n      and\n      0xddf252ad1be2c89b69c2b068fc378daa952ba7f163c4a11628f55a4df523b3ef\n        /* \"@openzeppelin/contracts-upgradeable@5.0.0/token/ERC20/ERC20Upgradeable.sol\":8640:8645  value */\n      dup5\n        /* \"@openzeppelin/contracts-upgradeable@5.0.0/token/ERC20/ERC20Upgradeable.sol\":8621:8646  Transfer(from, to, value) */\n      mload(0x40)\n      tag_277\n      swap2\n      swap1\n      tag_37\n      jump\t// in\n    tag_277:\n      mload(0x40)\n      dup1\n      swap2\n      sub\n      swap1\n      log3\n        /* \"@openzeppelin/contracts-upgradeable@5.0.0/token/ERC20/ERC20Upgradeable.sol\":7558:8653  {... */\n      pop\n        /* \"@openzeppelin/contracts-upgradeable@5.0.0/token/ERC20/ERC20Upgradeable.sol\":7483:8653  function _update(address from, address to, uint256 value) internal virtual {... */\n      pop\n      pop\n      pop\n      jump\t// out\n        /* \"@openzeppelin/contracts/proxy/ERC1967/ERC1967Utils.sol\":1957:2095  function getImplementation() internal view returns (address) {... */\n    tag_210:\n        /* \"@openzeppelin/contracts/proxy/ERC1967/ERC1967Utils.sol\":2009:2016  address */\n      0x00\n        /* \"@openzeppelin/contracts/proxy/ERC1967/ERC1967Utils.sol\":2035:2082  StorageSlot.getAddressSlot(IMPLEMENTATION_SLOT) */\n      tag_279\n        /* \"@openzeppelin/contracts/proxy/ERC1967/ERC1967Utils.sol\":1327:1393  0x360894a13ba1a3210667c828492db98dca3e2076cc3735a920a3ca505d382bbc */\n      0x360894a13ba1a3210667c828492db98dca3e2076cc3735a920a3ca505d382bbc\n        /* \"@openzeppelin/contracts/proxy/ERC1967/ERC1967Utils.sol\":2062:2081  IMPLEMENTATION_SLOT */\n      0x00\n      shl\n        /* \"@openzeppelin/contracts/proxy/ERC1967/ERC1967Utils.sol\":2035:2061  StorageSlot.getAddressSlot */\n      tag_280\n        /* \"@openzeppelin/contracts/proxy/ERC1967/ERC1967Utils.sol\":2035:2082  StorageSlot.getAddressSlot(IMPLEMENTATION_SLOT) */\n      jump\t// in\n    tag_279:\n        /* \"@openzeppelin/contracts/proxy/ERC1967/ERC1967Utils.sol\":2035:2088  StorageSlot.getAddressSlot(IMPLEMENTATION_SLOT).value */\n      0x00\n      add\n      0x00\n      swap1\n      sload\n      swap1\n      0x0100\n      exp\n      swap1\n      div\n      0xffffffffffffffffffffffffffffffffffffffff\n      and\n        /* \"@openzeppelin/contracts/proxy/ERC1967/ERC1967Utils.sol\":2028:2088  return StorageSlot.getAddressSlot(IMPLEMENTATION_SLOT).value */\n      swap1\n      pop\n        /* \"@openzeppelin/contracts/proxy/ERC1967/ERC1967Utils.sol\":1957:2095  function getImplementation() internal view returns (address) {... */\n      swap1\n      jump\t// out\n        /* \"@openzeppelin/contracts/proxy/ERC1967/ERC1967Utils.sol\":2779:3114  function upgradeToAndCall(address newImplementation, bytes memory data) internal {... */\n    tag_228:\n        /* \"@openzeppelin/contracts/proxy/ERC1967/ERC1967Utils.sol\":2870:2907  _setImplementation(newImplementation) */\n      tag_282\n        /* \"@openzeppelin/contracts/proxy/ERC1967/ERC1967Utils.sol\":2889:2906  newImplementation */\n      dup3\n        /* \"@openzeppelin/contracts/proxy/ERC1967/ERC1967Utils.sol\":2870:2888  _setImplementation */\n      tag_283\n        /* \"@openzeppelin/contracts/proxy/ERC1967/ERC1967Utils.sol\":2870:2907  _setImplementation(newImplementation) */\n      jump\t// in\n    tag_282:\n        /* \"@openzeppelin/contracts/proxy/ERC1967/ERC1967Utils.sol\":2931:2948  newImplementation */\n      dup2\n        /* \"@openzeppelin/contracts/proxy/ERC1967/ERC1967Utils.sol\":2922:2949  Upgraded(newImplementation) */\n      0xffffffffffffffffffffffffffffffffffffffff\n      and\n      0xbc7cd75a20ee27fd9adebab32041f755214dbc6bffa90cc0225b39da2e5c2d3b\n      mload(0x40)\n      mload(0x40)\n      dup1\n      swap2\n      sub\n      swap1\n      log2\n        /* \"@openzeppelin/contracts/proxy/ERC1967/ERC1967Utils.sol\":2978:2979  0 */\n      0x00\n        /* \"@openzeppelin/contracts/proxy/ERC1967/ERC1967Utils.sol\":2964:2968  data */\n      dup2\n        /* \"@openzeppelin/contracts/proxy/ERC1967/ERC1967Utils.sol\":2964:2975  data.length */\n      mload\n        /* \"@openzeppelin/contracts/proxy/ERC1967/ERC1967Utils.sol\":2964:2979  data.length > 0 */\n      gt\n        /* \"@openzeppelin/contracts/proxy/ERC1967/ERC1967Utils.sol\":2960:3108  if (data.length > 0) {... */\n      iszero\n      tag_284\n      jumpi\n        /* \"@openzeppelin/contracts/proxy/ERC1967/ERC1967Utils.sol\":2995:3048  Address.functionDelegateCall(newImplementation, data) */\n      tag_285\n        /* \"@openzeppelin/contracts/proxy/ERC1967/ERC1967Utils.sol\":3024:3041  newImplementation */\n      dup3\n        /* \"@openzeppelin/contracts/proxy/ERC1967/ERC1967Utils.sol\":3043:3047  data */\n      dup3\n        /* \"@openzeppelin/contracts/proxy/ERC1967/ERC1967Utils.sol\":2995:3023  Address.functionDelegateCall */\n      tag_286\n        /* \"@openzeppelin/contracts/proxy/ERC1967/ERC1967Utils.sol\":2995:3048  Address.functionDelegateCall(newImplementation, data) */\n      jump\t// in\n    tag_285:\n      pop\n        /* \"@openzeppelin/contracts/proxy/ERC1967/ERC1967Utils.sol\":2960:3108  if (data.length > 0) {... */\n      jump(tag_287)\n    tag_284:\n        /* \"@openzeppelin/contracts/proxy/ERC1967/ERC1967Utils.sol\":3079:3097  _checkNonPayable() */\n      tag_288\n        /* \"@openzeppelin/contracts/proxy/ERC1967/ERC1967Utils.sol\":3079:3095  _checkNonPayable */\n      tag_289\n        /* \"@openzeppelin/contracts/proxy/ERC1967/ERC1967Utils.sol\":3079:3097  _checkNonPayable() */\n      jump\t// in\n    tag_288:\n        /* \"@openzeppelin/contracts/proxy/ERC1967/ERC1967Utils.sol\":2960:3108  if (data.length > 0) {... */\n    tag_287:\n        /* \"@openzeppelin/contracts/proxy/ERC1967/ERC1967Utils.sol\":2779:3114  function upgradeToAndCall(address newImplementation, bytes memory data) internal {... */\n      pop\n      pop\n      jump\t// out\n        /* \"@openzeppelin/contracts-upgradeable@5.0.0/proxy/utils/Initializable.sol\":7084:7225  function _checkInitializing() internal view virtual {... */\n    tag_243:\n        /* \"@openzeppelin/contracts-upgradeable@5.0.0/proxy/utils/Initializable.sol\":7151:7168  _isInitializing() */\n      tag_291\n        /* \"@openzeppelin/contracts-upgradeable@5.0.0/proxy/utils/Initializable.sol\":7151:7166  _isInitializing */\n      tag_292\n        /* \"@openzeppelin/contracts-upgradeable@5.0.0/proxy/utils/Initializable.sol\":7151:7168  _isInitializing() */\n      jump\t// in\n    tag_291:\n        /* \"@openzeppelin/contracts-upgradeable@5.0.0/proxy/utils/Initializable.sol\":7146:7219  if (!_isInitializing()) {... */\n      tag_293\n      jumpi\n        /* \"@openzeppelin/contracts-upgradeable@5.0.0/proxy/utils/Initializable.sol\":7191:7208  NotInitializing() */\n      mload(0x40)\n      0xd7e6bcf800000000000000000000000000000000000000000000000000000000\n      dup2\n      mstore\n      0x04\n      add\n      mload(0x40)\n      dup1\n      swap2\n      sub\n      swap1\n      revert\n        /* \"@openzeppelin/contracts-upgradeable@5.0.0/proxy/utils/Initializable.sol\":7146:7219  if (!_isInitializing()) {... */\n    tag_293:\n        /* \"@openzeppelin/contracts-upgradeable@5.0.0/proxy/utils/Initializable.sol\":7084:7225  function _checkInitializing() internal view virtual {... */\n      jump\t// out\n        /* \"@openzeppelin/contracts-upgradeable@5.0.0/token/ERC20/ERC20Upgradeable.sol\":2730:2946  function __ERC20_init_unchained(string memory name_, string memory symbol_) internal onlyInitializing {... */\n    tag_246:\n        /* \"@openzeppelin/contracts-upgradeable@5.0.0/proxy/utils/Initializable.sol\":6931:6951  _checkInitializing() */\n      tag_295\n        /* \"@openzeppelin/contracts-upgradeable@5.0.0/proxy/utils/Initializable.sol\":6931:6949  _checkInitializing */\n      tag_243\n        /* \"@openzeppelin/contracts-upgradeable@5.0.0/proxy/utils/Initializable.sol\":6931:6951  _checkInitializing() */\n      jump\t// in\n    tag_295:\n        /* \"@openzeppelin/contracts-upgradeable@5.0.0/token/ERC20/ERC20Upgradeable.sol\":2842:2864  ERC20Storage storage $ */\n      0x00\n        /* \"@openzeppelin/contracts-upgradeable@5.0.0/token/ERC20/ERC20Upgradeable.sol\":2867:2885  _getERC20Storage() */\n      tag_297\n        /* \"@openzeppelin/contracts-upgradeable@5.0.0/token/ERC20/ERC20Upgradeable.sol\":2867:2883  _getERC20Storage */\n      tag_101\n        /* \"@openzeppelin/contracts-upgradeable@5.0.0/token/ERC20/ERC20Upgradeable.sol\":2867:2885  _getERC20Storage() */\n      jump\t// in\n    tag_297:\n        /* \"@openzeppelin/contracts-upgradeable@5.0.0/token/ERC20/ERC20Upgradeable.sol\":2842:2885  ERC20Storage storage $ = _getERC20Storage() */\n      swap1\n      pop\n        /* \"@openzeppelin/contracts-upgradeable@5.0.0/token/ERC20/ERC20Upgradeable.sol\":2905:2910  name_ */\n      dup3\n        /* \"@openzeppelin/contracts-upgradeable@5.0.0/token/ERC20/ERC20Upgradeable.sol\":2895:2896  $ */\n      dup2\n        /* \"@openzeppelin/contracts-upgradeable@5.0.0/token/ERC20/ERC20Upgradeable.sol\":2895:2902  $._name */\n      0x03\n      add\n        /* \"@openzeppelin/contracts-upgradeable@5.0.0/token/ERC20/ERC20Upgradeable.sol\":2895:2910  $._name = name_ */\n      swap1\n      dup2\n      tag_298\n      swap2\n      swap1\n      tag_299\n      jump\t// in\n    tag_298:\n      pop\n        /* \"@openzeppelin/contracts-upgradeable@5.0.0/token/ERC20/ERC20Upgradeable.sol\":2932:2939  symbol_ */\n      dup2\n        /* \"@openzeppelin/contracts-upgradeable@5.0.0/token/ERC20/ERC20Upgradeable.sol\":2920:2921  $ */\n      dup2\n        /* \"@openzeppelin/contracts-upgradeable@5.0.0/token/ERC20/ERC20Upgradeable.sol\":2920:2929  $._symbol */\n      0x04\n      add\n        /* \"@openzeppelin/contracts-upgradeable@5.0.0/token/ERC20/ERC20Upgradeable.sol\":2920:2939  $._symbol = symbol_ */\n      swap1\n      dup2\n      tag_300\n      swap2\n      swap1\n      tag_299\n      jump\t// in\n    tag_300:\n      pop\n        /* \"@openzeppelin/contracts-upgradeable@5.0.0/token/ERC20/ERC20Upgradeable.sol\":2832:2946  {... */\n      pop\n        /* \"@openzeppelin/contracts-upgradeable@5.0.0/token/ERC20/ERC20Upgradeable.sol\":2730:2946  function __ERC20_init_unchained(string memory name_, string memory symbol_) internal onlyInitializing {... */\n      pop\n      pop\n      jump\t// out\n        /* \"@openzeppelin/contracts-upgradeable@5.0.0/access/OwnableUpgradeable.sol\":1980:2215  function __Ownable_init_unchained(address initialOwner) internal onlyInitializing {... */\n    tag_251:\n        /* \"@openzeppelin/contracts-upgradeable@5.0.0/proxy/utils/Initializable.sol\":6931:6951  _checkInitializing() */\n      tag_302\n        /* \"@openzeppelin/contracts-upgradeable@5.0.0/proxy/utils/Initializable.sol\":6931:6949  _checkInitializing */\n      tag_243\n        /* \"@openzeppelin/contracts-upgradeable@5.0.0/proxy/utils/Initializable.sol\":6931:6951  _checkInitializing() */\n      jump\t// in\n    tag_302:\n        /* \"@openzeppelin/contracts-upgradeable@5.0.0/access/OwnableUpgradeable.sol\":2100:2101  0 */\n      0x00\n        /* \"@openzeppelin/contracts-upgradeable@5.0.0/access/OwnableUpgradeable.sol\":2076:2102  initialOwner == address(0) */\n      0xffffffffffffffffffffffffffffffffffffffff\n      and\n        /* \"@openzeppelin/contracts-upgradeable@5.0.0/access/OwnableUpgradeable.sol\":2076:2088  initialOwner */\n      dup2\n        /* \"@openzeppelin/contracts-upgradeable@5.0.0/access/OwnableUpgradeable.sol\":2076:2102  initialOwner == address(0) */\n      0xffffffffffffffffffffffffffffffffffffffff\n      and\n      sub\n        /* \"@openzeppelin/contracts-upgradeable@5.0.0/access/OwnableUpgradeable.sol\":2072:2167  if (initialOwner == address(0)) {... */\n      tag_304\n      jumpi\n        /* \"@openzeppelin/contracts-upgradeable@5.0.0/access/OwnableUpgradeable.sol\":2153:2154  0 */\n      0x00\n        /* \"@openzeppelin/contracts-upgradeable@5.0.0/access/OwnableUpgradeable.sol\":2125:2156  OwnableInvalidOwner(address(0)) */\n      mload(0x40)\n      0x1e4fbdf700000000000000000000000000000000000000000000000000000000\n      dup2\n      mstore\n      0x04\n      add\n      tag_305\n      swap2\n      swap1\n      tag_71\n      jump\t// in\n    tag_305:\n      mload(0x40)\n      dup1\n      swap2\n      sub\n      swap1\n      revert\n        /* \"@openzeppelin/contracts-upgradeable@5.0.0/access/OwnableUpgradeable.sol\":2072:2167  if (initialOwner == address(0)) {... */\n    tag_304:\n        /* \"@openzeppelin/contracts-upgradeable@5.0.0/access/OwnableUpgradeable.sol\":2176:2208  _transferOwnership(initialOwner) */\n      tag_306\n        /* \"@openzeppelin/contracts-upgradeable@5.0.0/access/OwnableUpgradeable.sol\":2195:2207  initialOwner */\n      dup2\n        /* \"@openzeppelin/contracts-upgradeable@5.0.0/access/OwnableUpgradeable.sol\":2176:2194  _transferOwnership */\n      tag_141\n        /* \"@openzeppelin/contracts-upgradeable@5.0.0/access/OwnableUpgradeable.sol\":2176:2208  _transferOwnership(initialOwner) */\n      jump\t// in\n    tag_306:\n        /* \"@openzeppelin/contracts-upgradeable@5.0.0/access/OwnableUpgradeable.sol\":1980:2215  function __Ownable_init_unchained(address initialOwner) internal onlyInitializing {... */\n      pop\n      jump\t// out\n        /* \"@openzeppelin/contracts/utils/StorageSlot.sol\":1684:1874  function getAddressSlot(bytes32 slot) internal pure returns (AddressSlot storage r) {... */\n    tag_280:\n        /* \"@openzeppelin/contracts/utils/StorageSlot.sol\":1745:1766  AddressSlot storage r */\n      0x00\n        /* \"@openzeppelin/contracts/utils/StorageSlot.sol\":1854:1858  slot */\n      dup2\n        /* \"@openzeppelin/contracts/utils/StorageSlot.sol\":1844:1858  r.slot := slot */\n      swap1\n      pop\n        /* \"@openzeppelin/contracts/utils/StorageSlot.sol\":1684:1874  function getAddressSlot(bytes32 slot) internal pure returns (AddressSlot storage r) {... */\n      swap2\n      swap1\n      pop\n      jump\t// out\n        /* \"@openzeppelin/contracts/proxy/ERC1967/ERC1967Utils.sol\":2186:2467  function _setImplementation(address newImplementation) private {... */\n    tag_283:\n        /* \"@openzeppelin/contracts/proxy/ERC1967/ERC1967Utils.sol\":2296:2297  0 */\n      0x00\n        /* \"@openzeppelin/contracts/proxy/ERC1967/ERC1967Utils.sol\":2263:2280  newImplementation */\n      dup2\n        /* \"@openzeppelin/contracts/proxy/ERC1967/ERC1967Utils.sol\":2263:2292  newImplementation.code.length */\n      0xffffffffffffffffffffffffffffffffffffffff\n      and\n      extcodesize\n        /* \"@openzeppelin/contracts/proxy/ERC1967/ERC1967Utils.sol\":2263:2297  newImplementation.code.length == 0 */\n      sub\n        /* \"@openzeppelin/contracts/proxy/ERC1967/ERC1967Utils.sol\":2259:2378  if (newImplementation.code.length == 0) {... */\n      tag_309\n      jumpi\n        /* \"@openzeppelin/contracts/proxy/ERC1967/ERC1967Utils.sol\":2349:2366  newImplementation */\n      dup1\n        /* \"@openzeppelin/contracts/proxy/ERC1967/ERC1967Utils.sol\":2320:2367  ERC1967InvalidImplementation(newImplementation) */\n      mload(0x40)\n      0x4c9c8ce300000000000000000000000000000000000000000000000000000000\n      dup2\n      mstore\n      0x04\n      add\n      tag_310\n      swap2\n      swap1\n      tag_71\n      jump\t// in\n    tag_310:\n      mload(0x40)\n      dup1\n      swap2\n      sub\n      swap1\n      revert\n        /* \"@openzeppelin/contracts/proxy/ERC1967/ERC1967Utils.sol\":2259:2378  if (newImplementation.code.length == 0) {... */\n    tag_309:\n        /* \"@openzeppelin/contracts/proxy/ERC1967/ERC1967Utils.sol\":2443:2460  newImplementation */\n      dup1\n        /* \"@openzeppelin/contracts/proxy/ERC1967/ERC1967Utils.sol\":2387:2434  StorageSlot.getAddressSlot(IMPLEMENTATION_SLOT) */\n      tag_311\n        /* \"@openzeppelin/contracts/proxy/ERC1967/ERC1967Utils.sol\":1327:1393  0x360894a13ba1a3210667c828492db98dca3e2076cc3735a920a3ca505d382bbc */\n      0x360894a13ba1a3210667c828492db98dca3e2076cc3735a920a3ca505d382bbc\n        /* \"@openzeppelin/contracts/proxy/ERC1967/ERC1967Utils.sol\":2414:2433  IMPLEMENTATION_SLOT */\n      0x00\n      shl\n        /* \"@openzeppelin/contracts/proxy/ERC1967/ERC1967Utils.sol\":2387:2413  StorageSlot.getAddressSlot */\n      tag_280\n        /* \"@openzeppelin/contracts/proxy/ERC1967/ERC1967Utils.sol\":2387:2434  StorageSlot.getAddressSlot(IMPLEMENTATION_SLOT) */\n      jump\t// in\n    tag_311:\n        /* \"@openzeppelin/contracts/proxy/ERC1967/ERC1967Utils.sol\":2387:2440  StorageSlot.getAddressSlot(IMPLEMENTATION_SLOT).value */\n      0x00\n      add\n      0x00\n        /* \"@openzeppelin/contracts/proxy/ERC1967/ERC1967Utils.sol\":2387:2460  StorageSlot.getAddressSlot(IMPLEMENTATION_SLOT).value = newImplementation */\n      0x0100\n      exp\n      dup2\n      sload\n      dup2\n      0xffffffffffffffffffffffffffffffffffffffff\n      mul\n      not\n      and\n      swap1\n      dup4\n      0xffffffffffffffffffffffffffffffffffffffff\n      and\n      mul\n      or\n      swap1\n      sstore\n      pop\n        /* \"@openzeppelin/contracts/proxy/ERC1967/ERC1967Utils.sol\":2186:2467  function _setImplementation(address newImplementation) private {... */\n      pop\n      jump\t// out\n        /* \"@openzeppelin/contracts/utils/Address.sol\":4106:4359  function functionDelegateCall(address target, bytes memory data) internal returns (bytes memory) {... */\n    tag_286:\n        /* \"@openzeppelin/contracts/utils/Address.sol\":4189:4201  bytes memory */\n      0x60\n        /* \"@openzeppelin/contracts/utils/Address.sol\":4214:4226  bool success */\n      0x00\n        /* \"@openzeppelin/contracts/utils/Address.sol\":4228:4251  bytes memory returndata */\n      dup1\n        /* \"@openzeppelin/contracts/utils/Address.sol\":4255:4261  target */\n      dup5\n        /* \"@openzeppelin/contracts/utils/Address.sol\":4255:4274  target.delegatecall */\n      0xffffffffffffffffffffffffffffffffffffffff\n      and\n        /* \"@openzeppelin/contracts/utils/Address.sol\":4275:4279  data */\n      dup5\n        /* \"@openzeppelin/contracts/utils/Address.sol\":4255:4280  target.delegatecall(data) */\n      mload(0x40)\n      tag_313\n      swap2\n      swap1\n      tag_314\n      jump\t// in\n    tag_313:\n      0x00\n      mload(0x40)\n      dup1\n      dup4\n      sub\n      dup2\n      dup6\n      gas\n      delegatecall\n      swap2\n      pop\n      pop\n      returndatasize\n      dup1\n      0x00\n      dup2\n      eq\n      tag_317\n      jumpi\n      mload(0x40)\n      swap2\n      pop\n      and(add(returndatasize, 0x3f), not(0x1f))\n      dup3\n      add\n      0x40\n      mstore\n      returndatasize\n      dup3\n      mstore\n      returndatasize\n      0x00\n      0x20\n      dup5\n      add\n      returndatacopy\n      jump(tag_316)\n    tag_317:\n      0x60\n      swap2\n      pop\n    tag_316:\n      pop\n        /* \"@openzeppelin/contracts/utils/Address.sol\":4213:4280  (bool success, bytes memory returndata) = target.delegatecall(data) */\n      swap2\n      pop\n      swap2\n      pop\n        /* \"@openzeppelin/contracts/utils/Address.sol\":4297:4352  verifyCallResultFromTarget(target, success, returndata) */\n      tag_318\n        /* \"@openzeppelin/contracts/utils/Address.sol\":4324:4330  target */\n      dup6\n        /* \"@openzeppelin/contracts/utils/Address.sol\":4332:4339  success */\n      dup4\n        /* \"@openzeppelin/contracts/utils/Address.sol\":4341:4351  returndata */\n      dup4\n        /* \"@openzeppelin/contracts/utils/Address.sol\":4297:4323  verifyCallResultFromTarget */\n      tag_319\n        /* \"@openzeppelin/contracts/utils/Address.sol\":4297:4352  verifyCallResultFromTarget(target, success, returndata) */\n      jump\t// in\n    tag_318:\n        /* \"@openzeppelin/contracts/utils/Address.sol\":4290:4352  return verifyCallResultFromTarget(target, success, returndata) */\n      swap3\n      pop\n      pop\n      pop\n        /* \"@openzeppelin/contracts/utils/Address.sol\":4106:4359  function functionDelegateCall(address target, bytes memory data) internal returns (bytes memory) {... */\n      swap3\n      swap2\n      pop\n      pop\n      jump\t// out\n        /* \"@openzeppelin/contracts/proxy/ERC1967/ERC1967Utils.sol\":6598:6720  function _checkNonPayable() private {... */\n    tag_289:\n        /* \"@openzeppelin/contracts/proxy/ERC1967/ERC1967Utils.sol\":6660:6661  0 */\n      0x00\n        /* \"@openzeppelin/contracts/proxy/ERC1967/ERC1967Utils.sol\":6648:6657  msg.value */\n      callvalue\n        /* \"@openzeppelin/contracts/proxy/ERC1967/ERC1967Utils.sol\":6648:6661  msg.value > 0 */\n      gt\n        /* \"@openzeppelin/contracts/proxy/ERC1967/ERC1967Utils.sol\":6644:6714  if (msg.value > 0) {... */\n      iszero\n      tag_321\n      jumpi\n        /* \"@openzeppelin/contracts/proxy/ERC1967/ERC1967Utils.sol\":6684:6703  ERC1967NonPayable() */\n      mload(0x40)\n      0xb398979f00000000000000000000000000000000000000000000000000000000\n      dup2\n      mstore\n      0x04\n      add\n      mload(0x40)\n      dup1\n      swap2\n      sub\n      swap1\n      revert\n        /* \"@openzeppelin/contracts/proxy/ERC1967/ERC1967Utils.sol\":6644:6714  if (msg.value > 0) {... */\n    tag_321:\n        /* \"@openzeppelin/contracts/proxy/ERC1967/ERC1967Utils.sol\":6598:6720  function _checkNonPayable() private {... */\n      jump\t// out\n        /* \"@openzeppelin/contracts-upgradeable@5.0.0/proxy/utils/Initializable.sol\":8487:8607  function _isInitializing() internal view returns (bool) {... */\n    tag_292:\n        /* \"@openzeppelin/contracts-upgradeable@5.0.0/proxy/utils/Initializable.sol\":8537:8541  bool */\n      0x00\n        /* \"@openzeppelin/contracts-upgradeable@5.0.0/proxy/utils/Initializable.sol\":8560:8586  _getInitializableStorage() */\n      tag_323\n        /* \"@openzeppelin/contracts-upgradeable@5.0.0/proxy/utils/Initializable.sol\":8560:8584  _getInitializableStorage */\n      tag_157\n        /* \"@openzeppelin/contracts-upgradeable@5.0.0/proxy/utils/Initializable.sol\":8560:8586  _getInitializableStorage() */\n      jump\t// in\n    tag_323:\n        /* \"@openzeppelin/contracts-upgradeable@5.0.0/proxy/utils/Initializable.sol\":8560:8600  _getInitializableStorage()._initializing */\n      0x00\n      add\n      0x08\n      swap1\n      sload\n      swap1\n      0x0100\n      exp\n      swap1\n      div\n      0xff\n      and\n        /* \"@openzeppelin/contracts-upgradeable@5.0.0/proxy/utils/Initializable.sol\":8553:8600  return _getInitializableStorage()._initializing */\n      swap1\n      pop\n        /* \"@openzeppelin/contracts-upgradeable@5.0.0/proxy/utils/Initializable.sol\":8487:8607  function _isInitializing() internal view returns (bool) {... */\n      swap1\n      jump\t// out\n        /* \"@openzeppelin/contracts/utils/Address.sol\":4625:5207  function verifyCallResultFromTarget(... */\n    tag_319:\n        /* \"@openzeppelin/contracts/utils/Address.sol\":4769:4781  bytes memory */\n      0x60\n        /* \"@openzeppelin/contracts/utils/Address.sol\":4798:4805  success */\n      dup3\n        /* \"@openzeppelin/contracts/utils/Address.sol\":4793:5201  if (!success) {... */\n      tag_325\n      jumpi\n        /* \"@openzeppelin/contracts/utils/Address.sol\":4821:4840  _revert(returndata) */\n      tag_326\n        /* \"@openzeppelin/contracts/utils/Address.sol\":4829:4839  returndata */\n      dup3\n        /* \"@openzeppelin/contracts/utils/Address.sol\":4821:4828  _revert */\n      tag_327\n        /* \"@openzeppelin/contracts/utils/Address.sol\":4821:4840  _revert(returndata) */\n      jump\t// in\n    tag_326:\n        /* \"@openzeppelin/contracts/utils/Address.sol\":4793:5201  if (!success) {... */\n      jump(tag_328)\n    tag_325:\n        /* \"@openzeppelin/contracts/utils/Address.sol\":5066:5067  0 */\n      0x00\n        /* \"@openzeppelin/contracts/utils/Address.sol\":5045:5055  returndata */\n      dup3\n        /* \"@openzeppelin/contracts/utils/Address.sol\":5045:5062  returndata.length */\n      mload\n        /* \"@openzeppelin/contracts/utils/Address.sol\":5045:5067  returndata.length == 0 */\n      eq\n        /* \"@openzeppelin/contracts/utils/Address.sol\":5045:5094  returndata.length == 0 && target.code.length == 0 */\n      dup1\n      iszero\n      tag_329\n      jumpi\n      pop\n        /* \"@openzeppelin/contracts/utils/Address.sol\":5093:5094  0 */\n      0x00\n        /* \"@openzeppelin/contracts/utils/Address.sol\":5071:5077  target */\n      dup5\n        /* \"@openzeppelin/contracts/utils/Address.sol\":5071:5089  target.code.length */\n      0xffffffffffffffffffffffffffffffffffffffff\n      and\n      extcodesize\n        /* \"@openzeppelin/contracts/utils/Address.sol\":5071:5094  target.code.length == 0 */\n      eq\n        /* \"@openzeppelin/contracts/utils/Address.sol\":5045:5094  returndata.length == 0 && target.code.length == 0 */\n    tag_329:\n        /* \"@openzeppelin/contracts/utils/Address.sol\":5041:5160  if (returndata.length == 0 && target.code.length == 0) {... */\n      iszero\n      tag_330\n      jumpi\n        /* \"@openzeppelin/contracts/utils/Address.sol\":5138:5144  target */\n      dup4\n        /* \"@openzeppelin/contracts/utils/Address.sol\":5121:5145  AddressEmptyCode(target) */\n      mload(0x40)\n      0x9996b31500000000000000000000000000000000000000000000000000000000\n      dup2\n      mstore\n      0x04\n      add\n      tag_331\n      swap2\n      swap1\n      tag_71\n      jump\t// in\n    tag_331:\n      mload(0x40)\n      dup1\n      swap2\n      sub\n      swap1\n      revert\n        /* \"@openzeppelin/contracts/utils/Address.sol\":5041:5160  if (returndata.length == 0 && target.code.length == 0) {... */\n    tag_330:\n        /* \"@openzeppelin/contracts/utils/Address.sol\":5180:5190  returndata */\n      dup2\n        /* \"@openzeppelin/contracts/utils/Address.sol\":5173:5190  return returndata */\n      swap1\n      pop\n      jump(tag_324)\n        /* \"@openzeppelin/contracts/utils/Address.sol\":4793:5201  if (!success) {... */\n    tag_328:\n        /* \"@openzeppelin/contracts/utils/Address.sol\":4625:5207  function verifyCallResultFromTarget(... */\n    tag_324:\n      swap4\n      swap3\n      pop\n      pop\n      pop\n      jump\t// out\n        /* \"@openzeppelin/contracts/utils/Address.sol\":5743:6259  function _revert(bytes memory returndata) private pure {... */\n    tag_327:\n        /* \"@openzeppelin/contracts/utils/Address.sol\":5894:5895  0 */\n      0x00\n        /* \"@openzeppelin/contracts/utils/Address.sol\":5874:5884  returndata */\n      dup2\n        /* \"@openzeppelin/contracts/utils/Address.sol\":5874:5891  returndata.length */\n      mload\n        /* \"@openzeppelin/contracts/utils/Address.sol\":5874:5895  returndata.length > 0 */\n      gt\n        /* \"@openzeppelin/contracts/utils/Address.sol\":5870:6253  if (returndata.length > 0) {... */\n      iszero\n      tag_333\n      jumpi\n        /* \"@openzeppelin/contracts/utils/Address.sol\":6102:6112  returndata */\n      dup1\n        /* \"@openzeppelin/contracts/utils/Address.sol\":6096:6113  mload(returndata) */\n      mload\n        /* \"@openzeppelin/contracts/utils/Address.sol\":6158:6173  returndata_size */\n      dup1\n        /* \"@openzeppelin/contracts/utils/Address.sol\":6145:6155  returndata */\n      dup3\n        /* \"@openzeppelin/contracts/utils/Address.sol\":6141:6143  32 */\n      0x20\n        /* \"@openzeppelin/contracts/utils/Address.sol\":6137:6156  add(32, returndata) */\n      add\n        /* \"@openzeppelin/contracts/utils/Address.sol\":6130:6174  revert(add(32, returndata), returndata_size) */\n      revert\n        /* \"@openzeppelin/contracts/utils/Address.sol\":5870:6253  if (returndata.length > 0) {... */\n    tag_333:\n        /* \"@openzeppelin/contracts/utils/Address.sol\":6225:6242  FailedInnerCall() */\n      mload(0x40)\n      0x1425ea4200000000000000000000000000000000000000000000000000000000\n      dup2\n      mstore\n      0x04\n      add\n      mload(0x40)\n      dup1\n      swap2\n      sub\n      swap1\n      revert\n        /* \"#utility.yul\":7:106   */\n    tag_335:\n        /* \"#utility.yul\":59:65   */\n      0x00\n        /* \"#utility.yul\":93:98   */\n      dup2\n        /* \"#utility.yul\":87:99   */\n      mload\n        /* \"#utility.yul\":77:99   */\n      swap1\n      pop\n        /* \"#utility.yul\":7:106   */\n      swap2\n      swap1\n      pop\n      jump\t// out\n        /* \"#utility.yul\":112:281   */\n    tag_336:\n        /* \"#utility.yul\":196:207   */\n      0x00\n        /* \"#utility.yul\":230:236   */\n      dup3\n        /* \"#utility.yul\":225:228   */\n      dup3\n        /* \"#utility.yul\":218:237   */\n      mstore\n        /* \"#utility.yul\":270:274   */\n      0x20\n        /* \"#utility.yul\":265:268   */\n      dup3\n        /* \"#utility.yul\":261:275   */\n      add\n        /* \"#utility.yul\":246:275   */\n      swap1\n      pop\n        /* \"#utility.yul\":112:281   */\n      swap3\n      swap2\n      pop\n      pop\n      jump\t// out\n        /* \"#utility.yul\":287:533   */\n    tag_337:\n        /* \"#utility.yul\":368:369   */\n      0x00\n        /* \"#utility.yul\":378:491   */\n    tag_400:\n        /* \"#utility.yul\":392:398   */\n      dup4\n        /* \"#utility.yul\":389:390   */\n      dup2\n        /* \"#utility.yul\":386:399   */\n      lt\n        /* \"#utility.yul\":378:491   */\n      iszero\n      tag_402\n      jumpi\n        /* \"#utility.yul\":477:478   */\n      dup1\n        /* \"#utility.yul\":472:475   */\n      dup3\n        /* \"#utility.yul\":468:479   */\n      add\n        /* \"#utility.yul\":462:480   */\n      mload\n        /* \"#utility.yul\":458:459   */\n      dup2\n        /* \"#utility.yul\":453:456   */\n      dup5\n        /* \"#utility.yul\":449:460   */\n      add\n        /* \"#utility.yul\":442:481   */\n      mstore\n        /* \"#utility.yul\":414:416   */\n      0x20\n        /* \"#utility.yul\":411:412   */\n      dup2\n        /* \"#utility.yul\":407:417   */\n      add\n        /* \"#utility.yul\":402:417   */\n      swap1\n      pop\n        /* \"#utility.yul\":378:491   */\n      jump(tag_400)\n    tag_402:\n        /* \"#utility.yul\":525:526   */\n      0x00\n        /* \"#utility.yul\":516:522   */\n      dup5\n        /* \"#utility.yul\":511:514   */\n      dup5\n        /* \"#utility.yul\":507:523   */\n      add\n        /* \"#utility.yul\":500:527   */\n      mstore\n        /* \"#utility.yul\":349:533   */\n      pop\n        /* \"#utility.yul\":287:533   */\n      pop\n      pop\n      pop\n      jump\t// out\n        /* \"#utility.yul\":539:641   */\n    tag_338:\n        /* \"#utility.yul\":580:586   */\n      0x00\n        /* \"#utility.yul\":631:633   */\n      0x1f\n        /* \"#utility.yul\":627:634   */\n      not\n        /* \"#utility.yul\":622:624   */\n      0x1f\n        /* \"#utility.yul\":615:620   */\n      dup4\n        /* \"#utility.yul\":611:625   */\n      add\n        /* \"#utility.yul\":607:635   */\n      and\n        /* \"#utility.yul\":597:635   */\n      swap1\n      pop\n        /* \"#utility.yul\":539:641   */\n      swap2\n      swap1\n      pop\n      jump\t// out\n        /* \"#utility.yul\":647:1024   */\n    tag_339:\n        /* \"#utility.yul\":735:738   */\n      0x00\n        /* \"#utility.yul\":763:802   */\n      tag_405\n        /* \"#utility.yul\":796:801   */\n      dup3\n        /* \"#utility.yul\":763:802   */\n      tag_335\n      jump\t// in\n    tag_405:\n        /* \"#utility.yul\":818:889   */\n      tag_406\n        /* \"#utility.yul\":882:888   */\n      dup2\n        /* \"#utility.yul\":877:880   */\n      dup6\n        /* \"#utility.yul\":818:889   */\n      tag_336\n      jump\t// in\n    tag_406:\n        /* \"#utility.yul\":811:889   */\n      swap4\n      pop\n        /* \"#utility.yul\":898:963   */\n      tag_407\n        /* \"#utility.yul\":956:962   */\n      dup2\n        /* \"#utility.yul\":951:954   */\n      dup6\n        /* \"#utility.yul\":944:948   */\n      0x20\n        /* \"#utility.yul\":937:942   */\n      dup7\n        /* \"#utility.yul\":933:949   */\n      add\n        /* \"#utility.yul\":898:963   */\n      tag_337\n      jump\t// in\n    tag_407:\n        /* \"#utility.yul\":988:1017   */\n      tag_408\n        /* \"#utility.yul\":1010:1016   */\n      dup2\n        /* \"#utility.yul\":988:1017   */\n      tag_338\n      jump\t// in\n    tag_408:\n        /* \"#utility.yul\":983:986   */\n      dup5\n        /* \"#utility.yul\":979:1018   */\n      add\n        /* \"#utility.yul\":972:1018   */\n      swap2\n      pop\n        /* \"#utility.yul\":739:1024   */\n      pop\n        /* \"#utility.yul\":647:1024   */\n      swap3\n      swap2\n      pop\n      pop\n      jump\t// out\n        /* \"#utility.yul\":1030:1343   */\n    tag_25:\n        /* \"#utility.yul\":1143:1147   */\n      0x00\n        /* \"#utility.yul\":1181:1183   */\n      0x20\n        /* \"#utility.yul\":1170:1179   */\n      dup3\n        /* \"#utility.yul\":1166:1184   */\n      add\n        /* \"#utility.yul\":1158:1184   */\n      swap1\n      pop\n        /* \"#utility.yul\":1230:1239   */\n      dup2\n        /* \"#utility.yul\":1224:1228   */\n      dup2\n        /* \"#utility.yul\":1220:1240   */\n      sub\n        /* \"#utility.yul\":1216:1217   */\n      0x00\n        /* \"#utility.yul\":1205:1214   */\n      dup4\n        /* \"#utility.yul\":1201:1218   */\n      add\n        /* \"#utility.yul\":1194:1241   */\n      mstore\n        /* \"#utility.yul\":1258:1336   */\n      tag_410\n        /* \"#utility.yul\":1331:1335   */\n      dup2\n        /* \"#utility.yul\":1322:1328   */\n      dup5\n        /* \"#utility.yul\":1258:1336   */\n      tag_339\n      jump\t// in\n    tag_410:\n        /* \"#utility.yul\":1250:1336   */\n      swap1\n      pop\n        /* \"#utility.yul\":1030:1343   */\n      swap3\n      swap2\n      pop\n      pop\n      jump\t// out\n        /* \"#utility.yul\":1349:1424   */\n    tag_340:\n        /* \"#utility.yul\":1382:1388   */\n      0x00\n        /* \"#utility.yul\":1415:1417   */\n      0x40\n        /* \"#utility.yul\":1409:1418   */\n      mload\n        /* \"#utility.yul\":1399:1418   */\n      swap1\n      pop\n        /* \"#utility.yul\":1349:1424   */\n      swap1\n      jump\t// out\n        /* \"#utility.yul\":1430:1547   */\n    tag_341:\n        /* \"#utility.yul\":1539:1540   */\n      0x00\n        /* \"#utility.yul\":1536:1537   */\n      dup1\n        /* \"#utility.yul\":1529:1541   */\n      revert\n        /* \"#utility.yul\":1553:1670   */\n    tag_342:\n        /* \"#utility.yul\":1662:1663   */\n      0x00\n        /* \"#utility.yul\":1659:1660   */\n      dup1\n        /* \"#utility.yul\":1652:1664   */\n      revert\n        /* \"#utility.yul\":1676:1802   */\n    tag_343:\n        /* \"#utility.yul\":1713:1720   */\n      0x00\n        /* \"#utility.yul\":1753:1795   */\n      0xffffffffffffffffffffffffffffffffffffffff\n        /* \"#utility.yul\":1746:1751   */\n      dup3\n        /* \"#utility.yul\":1742:1796   */\n      and\n        /* \"#utility.yul\":1731:1796   */\n      swap1\n      pop\n        /* \"#utility.yul\":1676:1802   */\n      swap2\n      swap1\n      pop\n      jump\t// out\n        /* \"#utility.yul\":1808:1904   */\n    tag_344:\n        /* \"#utility.yul\":1845:1852   */\n      0x00\n        /* \"#utility.yul\":1874:1898   */\n      tag_416\n        /* \"#utility.yul\":1892:1897   */\n      dup3\n        /* \"#utility.yul\":1874:1898   */\n      tag_343\n      jump\t// in\n    tag_416:\n        /* \"#utility.yul\":1863:1898   */\n      swap1\n      pop\n        /* \"#utility.yul\":1808:1904   */\n      swap2\n      swap1\n      pop\n      jump\t// out\n        /* \"#utility.yul\":1910:2032   */\n    tag_345:\n        /* \"#utility.yul\":1983:2007   */\n      tag_418\n        /* \"#utility.yul\":2001:2006   */\n      dup2\n        /* \"#utility.yul\":1983:2007   */\n      tag_344\n      jump\t// in\n    tag_418:\n        /* \"#utility.yul\":1976:1981   */\n      dup2\n        /* \"#utility.yul\":1973:2008   */\n      eq\n        /* \"#utility.yul\":1963:2026   */\n      tag_419\n      jumpi\n        /* \"#utility.yul\":2022:2023   */\n      0x00\n        /* \"#utility.yul\":2019:2020   */\n      dup1\n        /* \"#utility.yul\":2012:2024   */\n      revert\n        /* \"#utility.yul\":1963:2026   */\n    tag_419:\n        /* \"#utility.yul\":1910:2032   */\n      pop\n      jump\t// out\n        /* \"#utility.yul\":2038:2177   */\n    tag_346:\n        /* \"#utility.yul\":2084:2089   */\n      0x00\n        /* \"#utility.yul\":2122:2128   */\n      dup2\n        /* \"#utility.yul\":2109:2129   */\n      calldataload\n        /* \"#utility.yul\":2100:2129   */\n      swap1\n      pop\n        /* \"#utility.yul\":2138:2171   */\n      tag_421\n        /* \"#utility.yul\":2165:2170   */\n      dup2\n        /* \"#utility.yul\":2138:2171   */\n      tag_345\n      jump\t// in\n    tag_421:\n        /* \"#utility.yul\":2038:2177   */\n      swap3\n      swap2\n      pop\n      pop\n      jump\t// out\n        /* \"#utility.yul\":2183:2260   */\n    tag_347:\n        /* \"#utility.yul\":2220:2227   */\n      0x00\n        /* \"#utility.yul\":2249:2254   */\n      dup2\n        /* \"#utility.yul\":2238:2254   */\n      swap1\n      pop\n        /* \"#utility.yul\":2183:2260   */\n      swap2\n      swap1\n      pop\n      jump\t// out\n        /* \"#utility.yul\":2266:2388   */\n    tag_348:\n        /* \"#utility.yul\":2339:2363   */\n      tag_424\n        /* \"#utility.yul\":2357:2362   */\n      dup2\n        /* \"#utility.yul\":2339:2363   */\n      tag_347\n      jump\t// in\n    tag_424:\n        /* \"#utility.yul\":2332:2337   */\n      dup2\n        /* \"#utility.yul\":2329:2364   */\n      eq\n        /* \"#utility.yul\":2319:2382   */\n      tag_425\n      jumpi\n        /* \"#utility.yul\":2378:2379   */\n      0x00\n        /* \"#utility.yul\":2375:2376   */\n      dup1\n        /* \"#utility.yul\":2368:2380   */\n      revert\n        /* \"#utility.yul\":2319:2382   */\n    tag_425:\n        /* \"#utility.yul\":2266:2388   */\n      pop\n      jump\t// out\n        /* \"#utility.yul\":2394:2533   */\n    tag_349:\n        /* \"#utility.yul\":2440:2445   */\n      0x00\n        /* \"#utility.yul\":2478:2484   */\n      dup2\n        /* \"#utility.yul\":2465:2485   */\n      calldataload\n        /* \"#utility.yul\":2456:2485   */\n      swap1\n      pop\n        /* \"#utility.yul\":2494:2527   */\n      tag_427\n        /* \"#utility.yul\":2521:2526   */\n      dup2\n        /* \"#utility.yul\":2494:2527   */\n      tag_348\n      jump\t// in\n    tag_427:\n        /* \"#utility.yul\":2394:2533   */\n      swap3\n      swap2\n      pop\n      pop\n      jump\t// out\n        /* \"#utility.yul\":2539:3013   */\n    tag_29:\n        /* \"#utility.yul\":2607:2613   */\n      0x00\n        /* \"#utility.yul\":2615:2621   */\n      dup1\n        /* \"#utility.yul\":2664:2666   */\n      0x40\n        /* \"#utility.yul\":2652:2661   */\n      dup4\n        /* \"#utility.yul\":2643:2650   */\n      dup6\n        /* \"#utility.yul\":2639:2662   */\n      sub\n        /* \"#utility.yul\":2635:2667   */\n      slt\n        /* \"#utility.yul\":2632:2751   */\n      iszero\n      tag_429\n      jumpi\n        /* \"#utility.yul\":2670:2749   */\n      tag_430\n      tag_341\n      jump\t// in\n    tag_430:\n        /* \"#utility.yul\":2632:2751   */\n    tag_429:\n        /* \"#utility.yul\":2790:2791   */\n      0x00\n        /* \"#utility.yul\":2815:2868   */\n      tag_431\n        /* \"#utility.yul\":2860:2867   */\n      dup6\n        /* \"#utility.yul\":2851:2857   */\n      dup3\n        /* \"#utility.yul\":2840:2849   */\n      dup7\n        /* \"#utility.yul\":2836:2858   */\n      add\n        /* \"#utility.yul\":2815:2868   */\n      tag_346\n      jump\t// in\n    tag_431:\n        /* \"#utility.yul\":2805:2868   */\n      swap3\n      pop\n        /* \"#utility.yul\":2761:2878   */\n      pop\n        /* \"#utility.yul\":2917:2919   */\n      0x20\n        /* \"#utility.yul\":2943:2996   */\n      tag_432\n        /* \"#utility.yul\":2988:2995   */\n      dup6\n        /* \"#utility.yul\":2979:2985   */\n      dup3\n        /* \"#utility.yul\":2968:2977   */\n      dup7\n        /* \"#utility.yul\":2964:2986   */\n      add\n        /* \"#utility.yul\":2943:2996   */\n      tag_349\n      jump\t// in\n    tag_432:\n        /* \"#utility.yul\":2933:2996   */\n      swap2\n      pop\n        /* \"#utility.yul\":2888:3006   */\n      pop\n        /* \"#utility.yul\":2539:3013   */\n      swap3\n      pop\n      swap3\n      swap1\n      pop\n      jump\t// out\n        /* \"#utility.yul\":3019:3109   */\n    tag_350:\n        /* \"#utility.yul\":3053:3060   */\n      0x00\n        /* \"#utility.yul\":3096:3101   */\n      dup2\n        /* \"#utility.yul\":3089:3102   */\n      iszero\n        /* \"#utility.yul\":3082:3103   */\n      iszero\n        /* \"#utility.yul\":3071:3103   */\n      swap1\n      pop\n        /* \"#utility.yul\":3019:3109   */\n      swap2\n      swap1\n      pop\n      jump\t// out\n        /* \"#utility.yul\":3115:3224   */\n    tag_351:\n        /* \"#utility.yul\":3196:3217   */\n      tag_435\n        /* \"#utility.yul\":3211:3216   */\n      dup2\n        /* \"#utility.yul\":3196:3217   */\n      tag_350\n      jump\t// in\n    tag_435:\n        /* \"#utility.yul\":3191:3194   */\n      dup3\n        /* \"#utility.yul\":3184:3218   */\n      mstore\n        /* \"#utility.yul\":3115:3224   */\n      pop\n      pop\n      jump\t// out\n        /* \"#utility.yul\":3230:3440   */\n    tag_32:\n        /* \"#utility.yul\":3317:3321   */\n      0x00\n        /* \"#utility.yul\":3355:3357   */\n      0x20\n        /* \"#utility.yul\":3344:3353   */\n      dup3\n        /* \"#utility.yul\":3340:3358   */\n      add\n        /* \"#utility.yul\":3332:3358   */\n      swap1\n      pop\n        /* \"#utility.yul\":3368:3433   */\n      tag_437\n        /* \"#utility.yul\":3430:3431   */\n      0x00\n        /* \"#utility.yul\":3419:3428   */\n      dup4\n        /* \"#utility.yul\":3415:3432   */\n      add\n        /* \"#utility.yul\":3406:3412   */\n      dup5\n        /* \"#utility.yul\":3368:3433   */\n      tag_351\n      jump\t// in\n    tag_437:\n        /* \"#utility.yul\":3230:3440   */\n      swap3\n      swap2\n      pop\n      pop\n      jump\t// out\n        /* \"#utility.yul\":3446:3564   */\n    tag_352:\n        /* \"#utility.yul\":3533:3557   */\n      tag_439\n        /* \"#utility.yul\":3551:3556   */\n      dup2\n        /* \"#utility.yul\":3533:3557   */\n      tag_347\n      jump\t// in\n    tag_439:\n        /* \"#utility.yul\":3528:3531   */\n      dup3\n        /* \"#utility.yul\":3521:3558   */\n      mstore\n        /* \"#utility.yul\":3446:3564   */\n      pop\n      pop\n      jump\t// out\n        /* \"#utility.yul\":3570:3792   */\n    tag_37:\n        /* \"#utility.yul\":3663:3667   */\n      0x00\n        /* \"#utility.yul\":3701:3703   */\n      0x20\n        /* \"#utility.yul\":3690:3699   */\n      dup3\n        /* \"#utility.yul\":3686:3704   */\n      add\n        /* \"#utility.yul\":3678:3704   */\n      swap1\n      pop\n        /* \"#utility.yul\":3714:3785   */\n      tag_441\n        /* \"#utility.yul\":3782:3783   */\n      0x00\n        /* \"#utility.yul\":3771:3780   */\n      dup4\n        /* \"#utility.yul\":3767:3784   */\n      add\n        /* \"#utility.yul\":3758:3764   */\n      dup5\n        /* \"#utility.yul\":3714:3785   */\n      tag_352\n      jump\t// in\n    tag_441:\n        /* \"#utility.yul\":3570:3792   */\n      swap3\n      swap2\n      pop\n      pop\n      jump\t// out\n        /* \"#utility.yul\":3798:4417   */\n    tag_41:\n        /* \"#utility.yul\":3875:3881   */\n      0x00\n        /* \"#utility.yul\":3883:3889   */\n      dup1\n        /* \"#utility.yul\":3891:3897   */\n      0x00\n        /* \"#utility.yul\":3940:3942   */\n      0x60\n        /* \"#utility.yul\":3928:3937   */\n      dup5\n        /* \"#utility.yul\":3919:3926   */\n      dup7\n        /* \"#utility.yul\":3915:3938   */\n      sub\n        /* \"#utility.yul\":3911:3943   */\n      slt\n        /* \"#utility.yul\":3908:4027   */\n      iszero\n      tag_443\n      jumpi\n        /* \"#utility.yul\":3946:4025   */\n      tag_444\n      tag_341\n      jump\t// in\n    tag_444:\n        /* \"#utility.yul\":3908:4027   */\n    tag_443:\n        /* \"#utility.yul\":4066:4067   */\n      0x00\n        /* \"#utility.yul\":4091:4144   */\n      tag_445\n        /* \"#utility.yul\":4136:4143   */\n      dup7\n        /* \"#utility.yul\":4127:4133   */\n      dup3\n        /* \"#utility.yul\":4116:4125   */\n      dup8\n        /* \"#utility.yul\":4112:4134   */\n      add\n        /* \"#utility.yul\":4091:4144   */\n      tag_346\n      jump\t// in\n    tag_445:\n        /* \"#utility.yul\":4081:4144   */\n      swap4\n      pop\n        /* \"#utility.yul\":4037:4154   */\n      pop\n        /* \"#utility.yul\":4193:4195   */\n      0x20\n        /* \"#utility.yul\":4219:4272   */\n      tag_446\n        /* \"#utility.yul\":4264:4271   */\n      dup7\n        /* \"#utility.yul\":4255:4261   */\n      dup3\n        /* \"#utility.yul\":4244:4253   */\n      dup8\n        /* \"#utility.yul\":4240:4262   */\n      add\n        /* \"#utility.yul\":4219:4272   */\n      tag_346\n      jump\t// in\n    tag_446:\n        /* \"#utility.yul\":4209:4272   */\n      swap3\n      pop\n        /* \"#utility.yul\":4164:4282   */\n      pop\n        /* \"#utility.yul\":4321:4323   */\n      0x40\n        /* \"#utility.yul\":4347:4400   */\n      tag_447\n        /* \"#utility.yul\":4392:4399   */\n      dup7\n        /* \"#utility.yul\":4383:4389   */\n      dup3\n        /* \"#utility.yul\":4372:4381   */\n      dup8\n        /* \"#utility.yul\":4368:4390   */\n      add\n        /* \"#utility.yul\":4347:4400   */\n      tag_349\n      jump\t// in\n    tag_447:\n        /* \"#utility.yul\":4337:4400   */\n      swap2\n      pop\n        /* \"#utility.yul\":4292:4410   */\n      pop\n        /* \"#utility.yul\":3798:4417   */\n      swap3\n      pop\n      swap3\n      pop\n      swap3\n      jump\t// out\n        /* \"#utility.yul\":4423:4509   */\n    tag_353:\n        /* \"#utility.yul\":4458:4465   */\n      0x00\n        /* \"#utility.yul\":4498:4502   */\n      0xff\n        /* \"#utility.yul\":4491:4496   */\n      dup3\n        /* \"#utility.yul\":4487:4503   */\n      and\n        /* \"#utility.yul\":4476:4503   */\n      swap1\n      pop\n        /* \"#utility.yul\":4423:4509   */\n      swap2\n      swap1\n      pop\n      jump\t// out\n        /* \"#utility.yul\":4515:4627   */\n    tag_354:\n        /* \"#utility.yul\":4598:4620   */\n      tag_450\n        /* \"#utility.yul\":4614:4619   */\n      dup2\n        /* \"#utility.yul\":4598:4620   */\n      tag_353\n      jump\t// in\n    tag_450:\n        /* \"#utility.yul\":4593:4596   */\n      dup3\n        /* \"#utility.yul\":4586:4621   */\n      mstore\n        /* \"#utility.yul\":4515:4627   */\n      pop\n      pop\n      jump\t// out\n        /* \"#utility.yul\":4633:4847   */\n    tag_48:\n        /* \"#utility.yul\":4722:4726   */\n      0x00\n        /* \"#utility.yul\":4760:4762   */\n      0x20\n        /* \"#utility.yul\":4749:4758   */\n      dup3\n        /* \"#utility.yul\":4745:4763   */\n      add\n        /* \"#utility.yul\":4737:4763   */\n      swap1\n      pop\n        /* \"#utility.yul\":4773:4840   */\n      tag_452\n        /* \"#utility.yul\":4837:4838   */\n      0x00\n        /* \"#utility.yul\":4826:4835   */\n      dup4\n        /* \"#utility.yul\":4822:4839   */\n      add\n        /* \"#utility.yul\":4813:4819   */\n      dup5\n        /* \"#utility.yul\":4773:4840   */\n      tag_354\n      jump\t// in\n    tag_452:\n        /* \"#utility.yul\":4633:4847   */\n      swap3\n      swap2\n      pop\n      pop\n      jump\t// out\n        /* \"#utility.yul\":4853:4970   */\n    tag_355:\n        /* \"#utility.yul\":4962:4963   */\n      0x00\n        /* \"#utility.yul\":4959:4960   */\n      dup1\n        /* \"#utility.yul\":4952:4964   */\n      revert\n        /* \"#utility.yul\":4976:5093   */\n    tag_356:\n        /* \"#utility.yul\":5085:5086   */\n      0x00\n        /* \"#utility.yul\":5082:5083   */\n      dup1\n        /* \"#utility.yul\":5075:5087   */\n      revert\n        /* \"#utility.yul\":5099:5279   */\n    tag_357:\n        /* \"#utility.yul\":5147:5224   */\n      0x4e487b7100000000000000000000000000000000000000000000000000000000\n        /* \"#utility.yul\":5144:5145   */\n      0x00\n        /* \"#utility.yul\":5137:5225   */\n      mstore\n        /* \"#utility.yul\":5244:5248   */\n      0x41\n        /* \"#utility.yul\":5241:5242   */\n      0x04\n        /* \"#utility.yul\":5234:5249   */\n      mstore\n        /* \"#utility.yul\":5268:5272   */\n      0x24\n        /* \"#utility.yul\":5265:5266   */\n      0x00\n        /* \"#utility.yul\":5258:5273   */\n      revert\n        /* \"#utility.yul\":5285:5566   */\n    tag_358:\n        /* \"#utility.yul\":5368:5395   */\n      tag_457\n        /* \"#utility.yul\":5390:5394   */\n      dup3\n        /* \"#utility.yul\":5368:5395   */\n      tag_338\n      jump\t// in\n    tag_457:\n        /* \"#utility.yul\":5360:5366   */\n      dup2\n        /* \"#utility.yul\":5356:5396   */\n      add\n        /* \"#utility.yul\":5498:5504   */\n      dup2\n        /* \"#utility.yul\":5486:5496   */\n      dup2\n        /* \"#utility.yul\":5483:5505   */\n      lt\n        /* \"#utility.yul\":5462:5480   */\n      0xffffffffffffffff\n        /* \"#utility.yul\":5450:5460   */\n      dup3\n        /* \"#utility.yul\":5447:5481   */\n      gt\n        /* \"#utility.yul\":5444:5506   */\n      or\n        /* \"#utility.yul\":5441:5529   */\n      iszero\n      tag_458\n      jumpi\n        /* \"#utility.yul\":5509:5527   */\n      tag_459\n      tag_357\n      jump\t// in\n    tag_459:\n        /* \"#utility.yul\":5441:5529   */\n    tag_458:\n        /* \"#utility.yul\":5549:5559   */\n      dup1\n        /* \"#utility.yul\":5545:5547   */\n      0x40\n        /* \"#utility.yul\":5538:5560   */\n      mstore\n        /* \"#utility.yul\":5328:5566   */\n      pop\n        /* \"#utility.yul\":5285:5566   */\n      pop\n      pop\n      jump\t// out\n        /* \"#utility.yul\":5572:5701   */\n    tag_359:\n        /* \"#utility.yul\":5606:5612   */\n      0x00\n        /* \"#utility.yul\":5633:5653   */\n      tag_461\n      tag_340\n      jump\t// in\n    tag_461:\n        /* \"#utility.yul\":5623:5653   */\n      swap1\n      pop\n        /* \"#utility.yul\":5662:5695   */\n      tag_462\n        /* \"#utility.yul\":5690:5694   */\n      dup3\n        /* \"#utility.yul\":5682:5688   */\n      dup3\n        /* \"#utility.yul\":5662:5695   */\n      tag_358\n      jump\t// in\n    tag_462:\n        /* \"#utility.yul\":5572:5701   */\n      swap2\n      swap1\n      pop\n      jump\t// out\n        /* \"#utility.yul\":5707:6014   */\n    tag_360:\n        /* \"#utility.yul\":5768:5772   */\n      0x00\n        /* \"#utility.yul\":5858:5876   */\n      0xffffffffffffffff\n        /* \"#utility.yul\":5850:5856   */\n      dup3\n        /* \"#utility.yul\":5847:5877   */\n      gt\n        /* \"#utility.yul\":5844:5900   */\n      iszero\n      tag_464\n      jumpi\n        /* \"#utility.yul\":5880:5898   */\n      tag_465\n      tag_357\n      jump\t// in\n    tag_465:\n        /* \"#utility.yul\":5844:5900   */\n    tag_464:\n        /* \"#utility.yul\":5918:5947   */\n      tag_466\n        /* \"#utility.yul\":5940:5946   */\n      dup3\n        /* \"#utility.yul\":5918:5947   */\n      tag_338\n      jump\t// in\n    tag_466:\n        /* \"#utility.yul\":5910:5947   */\n      swap1\n      pop\n        /* \"#utility.yul\":6002:6006   */\n      0x20\n        /* \"#utility.yul\":5996:6000   */\n      dup2\n        /* \"#utility.yul\":5992:6007   */\n      add\n        /* \"#utility.yul\":5984:6007   */\n      swap1\n      pop\n        /* \"#utility.yul\":5707:6014   */\n      swap2\n      swap1\n      pop\n      jump\t// out\n        /* \"#utility.yul\":6020:6166   */\n    tag_361:\n        /* \"#utility.yul\":6117:6123   */\n      dup3\n        /* \"#utility.yul\":6112:6115   */\n      dup2\n        /* \"#utility.yul\":6107:6110   */\n      dup4\n        /* \"#utility.yul\":6094:6124   */\n      calldatacopy\n        /* \"#utility.yul\":6158:6159   */\n      0x00\n        /* \"#utility.yul\":6149:6155   */\n      dup4\n        /* \"#utility.yul\":6144:6147   */\n      dup4\n        /* \"#utility.yul\":6140:6156   */\n      add\n        /* \"#utility.yul\":6133:6160   */\n      mstore\n        /* \"#utility.yul\":6020:6166   */\n      pop\n      pop\n      pop\n      jump\t// out\n        /* \"#utility.yul\":6172:6595   */\n    tag_362:\n        /* \"#utility.yul\":6249:6254   */\n      0x00\n        /* \"#utility.yul\":6274:6339   */\n      tag_469\n        /* \"#utility.yul\":6290:6338   */\n      tag_470\n        /* \"#utility.yul\":6331:6337   */\n      dup5\n        /* \"#utility.yul\":6290:6338   */\n      tag_360\n      jump\t// in\n    tag_470:\n        /* \"#utility.yul\":6274:6339   */\n      tag_359\n      jump\t// in\n    tag_469:\n        /* \"#utility.yul\":6265:6339   */\n      swap1\n      pop\n        /* \"#utility.yul\":6362:6368   */\n      dup3\n        /* \"#utility.yul\":6355:6360   */\n      dup2\n        /* \"#utility.yul\":6348:6369   */\n      mstore\n        /* \"#utility.yul\":6400:6404   */\n      0x20\n        /* \"#utility.yul\":6393:6398   */\n      dup2\n        /* \"#utility.yul\":6389:6405   */\n      add\n        /* \"#utility.yul\":6438:6441   */\n      dup5\n        /* \"#utility.yul\":6429:6435   */\n      dup5\n        /* \"#utility.yul\":6424:6427   */\n      dup5\n        /* \"#utility.yul\":6420:6436   */\n      add\n        /* \"#utility.yul\":6417:6442   */\n      gt\n        /* \"#utility.yul\":6414:6526   */\n      iszero\n      tag_471\n      jumpi\n        /* \"#utility.yul\":6445:6524   */\n      tag_472\n      tag_356\n      jump\t// in\n    tag_472:\n        /* \"#utility.yul\":6414:6526   */\n    tag_471:\n        /* \"#utility.yul\":6535:6589   */\n      tag_473\n        /* \"#utility.yul\":6582:6588   */\n      dup5\n        /* \"#utility.yul\":6577:6580   */\n      dup3\n        /* \"#utility.yul\":6572:6575   */\n      dup6\n        /* \"#utility.yul\":6535:6589   */\n      tag_361\n      jump\t// in\n    tag_473:\n        /* \"#utility.yul\":6255:6595   */\n      pop\n        /* \"#utility.yul\":6172:6595   */\n      swap4\n      swap3\n      pop\n      pop\n      pop\n      jump\t// out\n        /* \"#utility.yul\":6614:6952   */\n    tag_363:\n        /* \"#utility.yul\":6669:6674   */\n      0x00\n        /* \"#utility.yul\":6718:6721   */\n      dup3\n        /* \"#utility.yul\":6711:6715   */\n      0x1f\n        /* \"#utility.yul\":6703:6709   */\n      dup4\n        /* \"#utility.yul\":6699:6716   */\n      add\n        /* \"#utility.yul\":6695:6722   */\n      slt\n        /* \"#utility.yul\":6685:6807   */\n      tag_475\n      jumpi\n        /* \"#utility.yul\":6726:6805   */\n      tag_476\n      tag_355\n      jump\t// in\n    tag_476:\n        /* \"#utility.yul\":6685:6807   */\n    tag_475:\n        /* \"#utility.yul\":6843:6849   */\n      dup2\n        /* \"#utility.yul\":6830:6850   */\n      calldataload\n        /* \"#utility.yul\":6868:6946   */\n      tag_477\n        /* \"#utility.yul\":6942:6945   */\n      dup5\n        /* \"#utility.yul\":6934:6940   */\n      dup3\n        /* \"#utility.yul\":6927:6931   */\n      0x20\n        /* \"#utility.yul\":6919:6925   */\n      dup7\n        /* \"#utility.yul\":6915:6932   */\n      add\n        /* \"#utility.yul\":6868:6946   */\n      tag_362\n      jump\t// in\n    tag_477:\n        /* \"#utility.yul\":6859:6946   */\n      swap2\n      pop\n        /* \"#utility.yul\":6675:6952   */\n      pop\n        /* \"#utility.yul\":6614:6952   */\n      swap3\n      swap2\n      pop\n      pop\n      jump\t// out\n        /* \"#utility.yul\":6958:7610   */\n    tag_51:\n        /* \"#utility.yul\":7035:7041   */\n      0x00\n        /* \"#utility.yul\":7043:7049   */\n      dup1\n        /* \"#utility.yul\":7092:7094   */\n      0x40\n        /* \"#utility.yul\":7080:7089   */\n      dup4\n        /* \"#utility.yul\":7071:7078   */\n      dup6\n        /* \"#utility.yul\":7067:7090   */\n      sub\n        /* \"#utility.yul\":7063:7095   */\n      slt\n        /* \"#utility.yul\":7060:7179   */\n      iszero\n      tag_479\n      jumpi\n        /* \"#utility.yul\":7098:7177   */\n      tag_480\n      tag_341\n      jump\t// in\n    tag_480:\n        /* \"#utility.yul\":7060:7179   */\n    tag_479:\n        /* \"#utility.yul\":7218:7219   */\n      0x00\n        /* \"#utility.yul\":7243:7296   */\n      tag_481\n        /* \"#utility.yul\":7288:7295   */\n      dup6\n        /* \"#utility.yul\":7279:7285   */\n      dup3\n        /* \"#utility.yul\":7268:7277   */\n      dup7\n        /* \"#utility.yul\":7264:7286   */\n      add\n        /* \"#utility.yul\":7243:7296   */\n      tag_346\n      jump\t// in\n    tag_481:\n        /* \"#utility.yul\":7233:7296   */\n      swap3\n      pop\n        /* \"#utility.yul\":7189:7306   */\n      pop\n        /* \"#utility.yul\":7373:7375   */\n      0x20\n        /* \"#utility.yul\":7362:7371   */\n      dup4\n        /* \"#utility.yul\":7358:7376   */\n      add\n        /* \"#utility.yul\":7345:7377   */\n      calldataload\n        /* \"#utility.yul\":7404:7422   */\n      0xffffffffffffffff\n        /* \"#utility.yul\":7396:7402   */\n      dup2\n        /* \"#utility.yul\":7393:7423   */\n      gt\n        /* \"#utility.yul\":7390:7507   */\n      iszero\n      tag_482\n      jumpi\n        /* \"#utility.yul\":7426:7505   */\n      tag_483\n      tag_342\n      jump\t// in\n    tag_483:\n        /* \"#utility.yul\":7390:7507   */\n    tag_482:\n        /* \"#utility.yul\":7531:7593   */\n      tag_484\n        /* \"#utility.yul\":7585:7592   */\n      dup6\n        /* \"#utility.yul\":7576:7582   */\n      dup3\n        /* \"#utility.yul\":7565:7574   */\n      dup7\n        /* \"#utility.yul\":7561:7583   */\n      add\n        /* \"#utility.yul\":7531:7593   */\n      tag_363\n      jump\t// in\n    tag_484:\n        /* \"#utility.yul\":7521:7593   */\n      swap2\n      pop\n        /* \"#utility.yul\":7316:7603   */\n      pop\n        /* \"#utility.yul\":6958:7610   */\n      swap3\n      pop\n      swap3\n      swap1\n      pop\n      jump\t// out\n        /* \"#utility.yul\":7616:7693   */\n    tag_364:\n        /* \"#utility.yul\":7653:7660   */\n      0x00\n        /* \"#utility.yul\":7682:7687   */\n      dup2\n        /* \"#utility.yul\":7671:7687   */\n      swap1\n      pop\n        /* \"#utility.yul\":7616:7693   */\n      swap2\n      swap1\n      pop\n      jump\t// out\n        /* \"#utility.yul\":7699:7817   */\n    tag_365:\n        /* \"#utility.yul\":7786:7810   */\n      tag_487\n        /* \"#utility.yul\":7804:7809   */\n      dup2\n        /* \"#utility.yul\":7786:7810   */\n      tag_364\n      jump\t// in\n    tag_487:\n        /* \"#utility.yul\":7781:7784   */\n      dup3\n        /* \"#utility.yul\":7774:7811   */\n      mstore\n        /* \"#utility.yul\":7699:7817   */\n      pop\n      pop\n      jump\t// out\n        /* \"#utility.yul\":7823:8045   */\n    tag_57:\n        /* \"#utility.yul\":7916:7920   */\n      0x00\n        /* \"#utility.yul\":7954:7956   */\n      0x20\n        /* \"#utility.yul\":7943:7952   */\n      dup3\n        /* \"#utility.yul\":7939:7957   */\n      add\n        /* \"#utility.yul\":7931:7957   */\n      swap1\n      pop\n        /* \"#utility.yul\":7967:8038   */\n      tag_489\n        /* \"#utility.yul\":8035:8036   */\n      0x00\n        /* \"#utility.yul\":8024:8033   */\n      dup4\n        /* \"#utility.yul\":8020:8037   */\n      add\n        /* \"#utility.yul\":8011:8017   */\n      dup5\n        /* \"#utility.yul\":7967:8038   */\n      tag_365\n      jump\t// in\n    tag_489:\n        /* \"#utility.yul\":7823:8045   */\n      swap3\n      swap2\n      pop\n      pop\n      jump\t// out\n        /* \"#utility.yul\":8051:8380   */\n    tag_61:\n        /* \"#utility.yul\":8110:8116   */\n      0x00\n        /* \"#utility.yul\":8159:8161   */\n      0x20\n        /* \"#utility.yul\":8147:8156   */\n      dup3\n        /* \"#utility.yul\":8138:8145   */\n      dup5\n        /* \"#utility.yul\":8134:8157   */\n      sub\n        /* \"#utility.yul\":8130:8162   */\n      slt\n        /* \"#utility.yul\":8127:8246   */\n      iszero\n      tag_491\n      jumpi\n        /* \"#utility.yul\":8165:8244   */\n      tag_492\n      tag_341\n      jump\t// in\n    tag_492:\n        /* \"#utility.yul\":8127:8246   */\n    tag_491:\n        /* \"#utility.yul\":8285:8286   */\n      0x00\n        /* \"#utility.yul\":8310:8363   */\n      tag_493\n        /* \"#utility.yul\":8355:8362   */\n      dup5\n        /* \"#utility.yul\":8346:8352   */\n      dup3\n        /* \"#utility.yul\":8335:8344   */\n      dup6\n        /* \"#utility.yul\":8331:8353   */\n      add\n        /* \"#utility.yul\":8310:8363   */\n      tag_346\n      jump\t// in\n    tag_493:\n        /* \"#utility.yul\":8300:8363   */\n      swap2\n      pop\n        /* \"#utility.yul\":8256:8373   */\n      pop\n        /* \"#utility.yul\":8051:8380   */\n      swap3\n      swap2\n      pop\n      pop\n      jump\t// out\n        /* \"#utility.yul\":8386:8504   */\n    tag_366:\n        /* \"#utility.yul\":8473:8497   */\n      tag_495\n        /* \"#utility.yul\":8491:8496   */\n      dup2\n        /* \"#utility.yul\":8473:8497   */\n      tag_344\n      jump\t// in\n    tag_495:\n        /* \"#utility.yul\":8468:8471   */\n      dup3\n        /* \"#utility.yul\":8461:8498   */\n      mstore\n        /* \"#utility.yul\":8386:8504   */\n      pop\n      pop\n      jump\t// out\n        /* \"#utility.yul\":8510:8732   */\n    tag_71:\n        /* \"#utility.yul\":8603:8607   */\n      0x00\n        /* \"#utility.yul\":8641:8643   */\n      0x20\n        /* \"#utility.yul\":8630:8639   */\n      dup3\n        /* \"#utility.yul\":8626:8644   */\n      add\n        /* \"#utility.yul\":8618:8644   */\n      swap1\n      pop\n        /* \"#utility.yul\":8654:8725   */\n      tag_497\n        /* \"#utility.yul\":8722:8723   */\n      0x00\n        /* \"#utility.yul\":8711:8720   */\n      dup4\n        /* \"#utility.yul\":8707:8724   */\n      add\n        /* \"#utility.yul\":8698:8704   */\n      dup5\n        /* \"#utility.yul\":8654:8725   */\n      tag_366\n      jump\t// in\n    tag_497:\n        /* \"#utility.yul\":8510:8732   */\n      swap3\n      swap2\n      pop\n      pop\n      jump\t// out\n        /* \"#utility.yul\":8738:9212   */\n    tag_92:\n        /* \"#utility.yul\":8806:8812   */\n      0x00\n        /* \"#utility.yul\":8814:8820   */\n      dup1\n        /* \"#utility.yul\":8863:8865   */\n      0x40\n        /* \"#utility.yul\":8851:8860   */\n      dup4\n        /* \"#utility.yul\":8842:8849   */\n      dup6\n        /* \"#utility.yul\":8838:8861   */\n      sub\n        /* \"#utility.yul\":8834:8866   */\n      slt\n        /* \"#utility.yul\":8831:8950   */\n      iszero\n      tag_499\n      jumpi\n        /* \"#utility.yul\":8869:8948   */\n      tag_500\n      tag_341\n      jump\t// in\n    tag_500:\n        /* \"#utility.yul\":8831:8950   */\n    tag_499:\n        /* \"#utility.yul\":8989:8990   */\n      0x00\n        /* \"#utility.yul\":9014:9067   */\n      tag_501\n        /* \"#utility.yul\":9059:9066   */\n      dup6\n        /* \"#utility.yul\":9050:9056   */\n      dup3\n        /* \"#utility.yul\":9039:9048   */\n      dup7\n        /* \"#utility.yul\":9035:9057   */\n      add\n        /* \"#utility.yul\":9014:9067   */\n      tag_346\n      jump\t// in\n    tag_501:\n        /* \"#utility.yul\":9004:9067   */\n      swap3\n      pop\n        /* \"#utility.yul\":8960:9077   */\n      pop\n        /* \"#utility.yul\":9116:9118   */\n      0x20\n        /* \"#utility.yul\":9142:9195   */\n      tag_502\n        /* \"#utility.yul\":9187:9194   */\n      dup6\n        /* \"#utility.yul\":9178:9184   */\n      dup3\n        /* \"#utility.yul\":9167:9176   */\n      dup7\n        /* \"#utility.yul\":9163:9185   */\n      add\n        /* \"#utility.yul\":9142:9195   */\n      tag_346\n      jump\t// in\n    tag_502:\n        /* \"#utility.yul\":9132:9195   */\n      swap2\n      pop\n        /* \"#utility.yul\":9087:9205   */\n      pop\n        /* \"#utility.yul\":8738:9212   */\n      swap3\n      pop\n      swap3\n      swap1\n      pop\n      jump\t// out\n        /* \"#utility.yul\":9218:9398   */\n    tag_367:\n        /* \"#utility.yul\":9266:9343   */\n      0x4e487b7100000000000000000000000000000000000000000000000000000000\n        /* \"#utility.yul\":9263:9264   */\n      0x00\n        /* \"#utility.yul\":9256:9344   */\n      mstore\n        /* \"#utility.yul\":9363:9367   */\n      0x22\n        /* \"#utility.yul\":9360:9361   */\n      0x04\n        /* \"#utility.yul\":9353:9368   */\n      mstore\n        /* \"#utility.yul\":9387:9391   */\n      0x24\n        /* \"#utility.yul\":9384:9385   */\n      0x00\n        /* \"#utility.yul\":9377:9392   */\n      revert\n        /* \"#utility.yul\":9404:9724   */\n    tag_103:\n        /* \"#utility.yul\":9448:9454   */\n      0x00\n        /* \"#utility.yul\":9485:9486   */\n      0x02\n        /* \"#utility.yul\":9479:9483   */\n      dup3\n        /* \"#utility.yul\":9475:9487   */\n      div\n        /* \"#utility.yul\":9465:9487   */\n      swap1\n      pop\n        /* \"#utility.yul\":9532:9533   */\n      0x01\n        /* \"#utility.yul\":9526:9530   */\n      dup3\n        /* \"#utility.yul\":9522:9534   */\n      and\n        /* \"#utility.yul\":9553:9571   */\n      dup1\n        /* \"#utility.yul\":9543:9624   */\n      tag_505\n      jumpi\n        /* \"#utility.yul\":9609:9613   */\n      0x7f\n        /* \"#utility.yul\":9601:9607   */\n      dup3\n        /* \"#utility.yul\":9597:9614   */\n      and\n        /* \"#utility.yul\":9587:9614   */\n      swap2\n      pop\n        /* \"#utility.yul\":9543:9624   */\n    tag_505:\n        /* \"#utility.yul\":9671:9673   */\n      0x20\n        /* \"#utility.yul\":9663:9669   */\n      dup3\n        /* \"#utility.yul\":9660:9674   */\n      lt\n        /* \"#utility.yul\":9640:9658   */\n      dup2\n        /* \"#utility.yul\":9637:9675   */\n      sub\n        /* \"#utility.yul\":9634:9718   */\n      tag_506\n      jumpi\n        /* \"#utility.yul\":9690:9708   */\n      tag_507\n      tag_367\n      jump\t// in\n    tag_507:\n        /* \"#utility.yul\":9634:9718   */\n    tag_506:\n        /* \"#utility.yul\":9455:9724   */\n      pop\n        /* \"#utility.yul\":9404:9724   */\n      swap2\n      swap1\n      pop\n      jump\t// out\n        /* \"#utility.yul\":9730:9910   */\n    tag_368:\n        /* \"#utility.yul\":9778:9855   */\n      0x4e487b7100000000000000000000000000000000000000000000000000000000\n        /* \"#utility.yul\":9775:9776   */\n      0x00\n        /* \"#utility.yul\":9768:9856   */\n      mstore\n        /* \"#utility.yul\":9875:9879   */\n      0x11\n        /* \"#utility.yul\":9872:9873   */\n      0x04\n        /* \"#utility.yul\":9865:9880   */\n      mstore\n        /* \"#utility.yul\":9899:9903   */\n      0x24\n        /* \"#utility.yul\":9896:9897   */\n      0x00\n        /* \"#utility.yul\":9889:9904   */\n      revert\n        /* \"#utility.yul\":9916:10018   */\n    tag_369:\n        /* \"#utility.yul\":9958:9966   */\n      0x00\n        /* \"#utility.yul\":10005:10010   */\n      dup2\n        /* \"#utility.yul\":10002:10003   */\n      0x01\n        /* \"#utility.yul\":9998:10011   */\n      shr\n        /* \"#utility.yul\":9977:10011   */\n      swap1\n      pop\n        /* \"#utility.yul\":9916:10018   */\n      swap2\n      swap1\n      pop\n      jump\t// out\n        /* \"#utility.yul\":10024:10872   */\n    tag_370:\n        /* \"#utility.yul\":10085:10090   */\n      0x00\n        /* \"#utility.yul\":10092:10096   */\n      dup1\n        /* \"#utility.yul\":10116:10122   */\n      dup3\n        /* \"#utility.yul\":10107:10122   */\n      swap2\n      pop\n        /* \"#utility.yul\":10140:10145   */\n      dup4\n        /* \"#utility.yul\":10131:10145   */\n      swap1\n      pop\n        /* \"#utility.yul\":10154:10866   */\n    tag_511:\n        /* \"#utility.yul\":10175:10176   */\n      0x01\n        /* \"#utility.yul\":10165:10173   */\n      dup6\n        /* \"#utility.yul\":10162:10177   */\n      gt\n        /* \"#utility.yul\":10154:10866   */\n      iszero\n      tag_513\n      jumpi\n        /* \"#utility.yul\":10270:10274   */\n      dup1\n        /* \"#utility.yul\":10265:10268   */\n      dup7\n        /* \"#utility.yul\":10261:10275   */\n      div\n        /* \"#utility.yul\":10255:10259   */\n      dup2\n        /* \"#utility.yul\":10252:10276   */\n      gt\n        /* \"#utility.yul\":10249:10299   */\n      iszero\n      tag_514\n      jumpi\n        /* \"#utility.yul\":10279:10297   */\n      tag_515\n      tag_368\n      jump\t// in\n    tag_515:\n        /* \"#utility.yul\":10249:10299   */\n    tag_514:\n        /* \"#utility.yul\":10329:10330   */\n      0x01\n        /* \"#utility.yul\":10319:10327   */\n      dup6\n        /* \"#utility.yul\":10315:10331   */\n      and\n        /* \"#utility.yul\":10312:10763   */\n      iszero\n      tag_516\n      jumpi\n        /* \"#utility.yul\":10744:10748   */\n      dup1\n        /* \"#utility.yul\":10737:10742   */\n      dup3\n        /* \"#utility.yul\":10733:10749   */\n      mul\n        /* \"#utility.yul\":10724:10749   */\n      swap2\n      pop\n        /* \"#utility.yul\":10312:10763   */\n    tag_516:\n        /* \"#utility.yul\":10794:10798   */\n      dup1\n        /* \"#utility.yul\":10788:10792   */\n      dup2\n        /* \"#utility.yul\":10784:10799   */\n      mul\n        /* \"#utility.yul\":10776:10799   */\n      swap1\n      pop\n        /* \"#utility.yul\":10824:10856   */\n      tag_517\n        /* \"#utility.yul\":10847:10855   */\n      dup6\n        /* \"#utility.yul\":10824:10856   */\n      tag_369\n      jump\t// in\n    tag_517:\n        /* \"#utility.yul\":10812:10856   */\n      swap5\n      pop\n        /* \"#utility.yul\":10154:10866   */\n      jump(tag_511)\n    tag_513:\n        /* \"#utility.yul\":10024:10872   */\n      swap5\n      pop\n      swap5\n      swap3\n      pop\n      pop\n      pop\n      jump\t// out\n        /* \"#utility.yul\":10878:11951   */\n    tag_371:\n        /* \"#utility.yul\":10932:10937   */\n      0x00\n        /* \"#utility.yul\":11123:11131   */\n      dup3\n        /* \"#utility.yul\":11113:11153   */\n      tag_519\n      jumpi\n        /* \"#utility.yul\":11144:11145   */\n      0x01\n        /* \"#utility.yul\":11135:11145   */\n      swap1\n      pop\n        /* \"#utility.yul\":11146:11151   */\n      jump(tag_518)\n        /* \"#utility.yul\":11113:11153   */\n    tag_519:\n        /* \"#utility.yul\":11172:11176   */\n      dup2\n        /* \"#utility.yul\":11162:11198   */\n      tag_520\n      jumpi\n        /* \"#utility.yul\":11189:11190   */\n      0x00\n        /* \"#utility.yul\":11180:11190   */\n      swap1\n      pop\n        /* \"#utility.yul\":11191:11196   */\n      jump(tag_518)\n        /* \"#utility.yul\":11162:11198   */\n    tag_520:\n        /* \"#utility.yul\":11258:11262   */\n      dup2\n        /* \"#utility.yul\":11306:11307   */\n      0x01\n        /* \"#utility.yul\":11301:11328   */\n      dup2\n      eq\n      tag_522\n      jumpi\n        /* \"#utility.yul\":11342:11343   */\n      0x02\n        /* \"#utility.yul\":11337:11528   */\n      dup2\n      eq\n      tag_523\n      jumpi\n        /* \"#utility.yul\":11251:11528   */\n      jump(tag_521)\n        /* \"#utility.yul\":11301:11328   */\n    tag_522:\n        /* \"#utility.yul\":11319:11320   */\n      0x01\n        /* \"#utility.yul\":11310:11320   */\n      swap2\n      pop\n        /* \"#utility.yul\":11321:11326   */\n      pop\n      jump(tag_518)\n        /* \"#utility.yul\":11337:11528   */\n    tag_523:\n        /* \"#utility.yul\":11382:11385   */\n      0xff\n        /* \"#utility.yul\":11372:11380   */\n      dup5\n        /* \"#utility.yul\":11369:11386   */\n      gt\n        /* \"#utility.yul\":11366:11409   */\n      iszero\n      tag_524\n      jumpi\n        /* \"#utility.yul\":11389:11407   */\n      tag_525\n      tag_368\n      jump\t// in\n    tag_525:\n        /* \"#utility.yul\":11366:11409   */\n    tag_524:\n        /* \"#utility.yul\":11438:11446   */\n      dup4\n        /* \"#utility.yul\":11435:11436   */\n      0x02\n        /* \"#utility.yul\":11431:11447   */\n      exp\n        /* \"#utility.yul\":11422:11447   */\n      swap2\n      pop\n        /* \"#utility.yul\":11473:11476   */\n      dup5\n        /* \"#utility.yul\":11466:11471   */\n      dup3\n        /* \"#utility.yul\":11463:11477   */\n      gt\n        /* \"#utility.yul\":11460:11500   */\n      iszero\n      tag_526\n      jumpi\n        /* \"#utility.yul\":11480:11498   */\n      tag_527\n      tag_368\n      jump\t// in\n    tag_527:\n        /* \"#utility.yul\":11460:11500   */\n    tag_526:\n        /* \"#utility.yul\":11513:11518   */\n      pop\n      jump(tag_518)\n        /* \"#utility.yul\":11251:11528   */\n    tag_521:\n      pop\n        /* \"#utility.yul\":11637:11639   */\n      0x20\n        /* \"#utility.yul\":11627:11635   */\n      dup4\n        /* \"#utility.yul\":11624:11640   */\n      lt\n        /* \"#utility.yul\":11618:11621   */\n      0x0133\n        /* \"#utility.yul\":11612:11616   */\n      dup4\n        /* \"#utility.yul\":11609:11622   */\n      lt\n        /* \"#utility.yul\":11605:11641   */\n      and\n        /* \"#utility.yul\":11587:11589   */\n      0x4e\n        /* \"#utility.yul\":11577:11585   */\n      dup5\n        /* \"#utility.yul\":11574:11590   */\n      lt\n        /* \"#utility.yul\":11569:11571   */\n      0x0b\n        /* \"#utility.yul\":11563:11567   */\n      dup5\n        /* \"#utility.yul\":11560:11572   */\n      lt\n        /* \"#utility.yul\":11556:11591   */\n      and\n        /* \"#utility.yul\":11540:11651   */\n      or\n        /* \"#utility.yul\":11537:11783   */\n      iszero\n      tag_528\n      jumpi\n        /* \"#utility.yul\":11693:11701   */\n      dup3\n        /* \"#utility.yul\":11687:11691   */\n      dup3\n        /* \"#utility.yul\":11683:11702   */\n      exp\n        /* \"#utility.yul\":11674:11702   */\n      swap1\n      pop\n        /* \"#utility.yul\":11728:11731   */\n      dup4\n        /* \"#utility.yul\":11721:11726   */\n      dup2\n        /* \"#utility.yul\":11718:11732   */\n      gt\n        /* \"#utility.yul\":11715:11755   */\n      iszero\n      tag_529\n      jumpi\n        /* \"#utility.yul\":11735:11753   */\n      tag_530\n      tag_368\n      jump\t// in\n    tag_530:\n        /* \"#utility.yul\":11715:11755   */\n    tag_529:\n        /* \"#utility.yul\":11768:11773   */\n      jump(tag_518)\n        /* \"#utility.yul\":11537:11783   */\n    tag_528:\n        /* \"#utility.yul\":11808:11850   */\n      tag_531\n        /* \"#utility.yul\":11846:11849   */\n      dup5\n        /* \"#utility.yul\":11836:11844   */\n      dup5\n        /* \"#utility.yul\":11830:11834   */\n      dup5\n        /* \"#utility.yul\":11827:11828   */\n      0x01\n        /* \"#utility.yul\":11808:11850   */\n      tag_370\n      jump\t// in\n    tag_531:\n        /* \"#utility.yul\":11793:11850   */\n      swap3\n      pop\n      swap1\n      pop\n        /* \"#utility.yul\":11882:11886   */\n      dup2\n        /* \"#utility.yul\":11877:11880   */\n      dup5\n        /* \"#utility.yul\":11873:11887   */\n      div\n        /* \"#utility.yul\":11866:11871   */\n      dup2\n        /* \"#utility.yul\":11863:11888   */\n      gt\n        /* \"#utility.yul\":11860:11911   */\n      iszero\n      tag_532\n      jumpi\n        /* \"#utility.yul\":11891:11909   */\n      tag_533\n      tag_368\n      jump\t// in\n    tag_533:\n        /* \"#utility.yul\":11860:11911   */\n    tag_532:\n        /* \"#utility.yul\":11940:11944   */\n      dup2\n        /* \"#utility.yul\":11933:11938   */\n      dup2\n        /* \"#utility.yul\":11929:11945   */\n      mul\n        /* \"#utility.yul\":11920:11945   */\n      swap1\n      pop\n        /* \"#utility.yul\":10878:11951   */\n    tag_518:\n      swap4\n      swap3\n      pop\n      pop\n      pop\n      jump\t// out\n        /* \"#utility.yul\":11957:12238   */\n    tag_173:\n        /* \"#utility.yul\":12015:12020   */\n      0x00\n        /* \"#utility.yul\":12039:12062   */\n      tag_535\n        /* \"#utility.yul\":12057:12061   */\n      dup3\n        /* \"#utility.yul\":12039:12062   */\n      tag_347\n      jump\t// in\n    tag_535:\n        /* \"#utility.yul\":12031:12062   */\n      swap2\n      pop\n        /* \"#utility.yul\":12083:12108   */\n      tag_536\n        /* \"#utility.yul\":12099:12107   */\n      dup4\n        /* \"#utility.yul\":12083:12108   */\n      tag_353\n      jump\t// in\n    tag_536:\n        /* \"#utility.yul\":12071:12108   */\n      swap3\n      pop\n        /* \"#utility.yul\":12127:12231   */\n      tag_537\n        /* \"#utility.yul\":12164:12230   */\n      0xffffffffffffffffffffffffffffffffffffffffffffffffffffffffffffffff\n        /* \"#utility.yul\":12154:12162   */\n      dup5\n        /* \"#utility.yul\":12148:12152   */\n      dup5\n        /* \"#utility.yul\":12127:12231   */\n      tag_371\n      jump\t// in\n    tag_537:\n        /* \"#utility.yul\":12118:12231   */\n      swap1\n      pop\n        /* \"#utility.yul\":11957:12238   */\n      swap3\n      swap2\n      pop\n      pop\n      jump\t// out\n        /* \"#utility.yul\":12244:12654   */\n    tag_175:\n        /* \"#utility.yul\":12284:12291   */\n      0x00\n        /* \"#utility.yul\":12307:12327   */\n      tag_539\n        /* \"#utility.yul\":12325:12326   */\n      dup3\n        /* \"#utility.yul\":12307:12327   */\n      tag_347\n      jump\t// in\n    tag_539:\n        /* \"#utility.yul\":12302:12327   */\n      swap2\n      pop\n        /* \"#utility.yul\":12341:12361   */\n      tag_540\n        /* \"#utility.yul\":12359:12360   */\n      dup4\n        /* \"#utility.yul\":12341:12361   */\n      tag_347\n      jump\t// in\n    tag_540:\n        /* \"#utility.yul\":12336:12361   */\n      swap3\n      pop\n        /* \"#utility.yul\":12396:12397   */\n      dup3\n        /* \"#utility.yul\":12393:12394   */\n      dup3\n        /* \"#utility.yul\":12389:12398   */\n      mul\n        /* \"#utility.yul\":12418:12448   */\n      tag_541\n        /* \"#utility.yul\":12436:12447   */\n      dup2\n        /* \"#utility.yul\":12418:12448   */\n      tag_347\n      jump\t// in\n    tag_541:\n        /* \"#utility.yul\":12407:12448   */\n      swap2\n      pop\n        /* \"#utility.yul\":12597:12598   */\n      dup3\n        /* \"#utility.yul\":12588:12595   */\n      dup3\n        /* \"#utility.yul\":12584:12599   */\n      div\n        /* \"#utility.yul\":12581:12582   */\n      dup5\n        /* \"#utility.yul\":12578:12600   */\n      eq\n        /* \"#utility.yul\":12558:12559   */\n      dup4\n        /* \"#utility.yul\":12551:12560   */\n      iszero\n        /* \"#utility.yul\":12531:12614   */\n      or\n        /* \"#utility.yul\":12508:12647   */\n      tag_542\n      jumpi\n        /* \"#utility.yul\":12627:12645   */\n      tag_543\n      tag_368\n      jump\t// in\n    tag_543:\n        /* \"#utility.yul\":12508:12647   */\n    tag_542:\n        /* \"#utility.yul\":12292:12654   */\n      pop\n        /* \"#utility.yul\":12244:12654   */\n      swap3\n      swap2\n      pop\n      pop\n      jump\t// out\n        /* \"#utility.yul\":12660:12745   */\n    tag_372:\n        /* \"#utility.yul\":12705:12712   */\n      0x00\n        /* \"#utility.yul\":12734:12739   */\n      dup2\n        /* \"#utility.yul\":12723:12739   */\n      swap1\n      pop\n        /* \"#utility.yul\":12660:12745   */\n      swap2\n      swap1\n      pop\n      jump\t// out\n        /* \"#utility.yul\":12751:12852   */\n    tag_373:\n        /* \"#utility.yul\":12787:12794   */\n      0x00\n        /* \"#utility.yul\":12827:12845   */\n      0xffffffffffffffff\n        /* \"#utility.yul\":12820:12825   */\n      dup3\n        /* \"#utility.yul\":12816:12846   */\n      and\n        /* \"#utility.yul\":12805:12846   */\n      swap1\n      pop\n        /* \"#utility.yul\":12751:12852   */\n      swap2\n      swap1\n      pop\n      jump\t// out\n        /* \"#utility.yul\":12858:12918   */\n    tag_374:\n        /* \"#utility.yul\":12886:12889   */\n      0x00\n        /* \"#utility.yul\":12907:12912   */\n      dup2\n        /* \"#utility.yul\":12900:12912   */\n      swap1\n      pop\n        /* \"#utility.yul\":12858:12918   */\n      swap2\n      swap1\n      pop\n      jump\t// out\n        /* \"#utility.yul\":12924:13080   */\n    tag_375:\n        /* \"#utility.yul\":12981:12990   */\n      0x00\n        /* \"#utility.yul\":13014:13074   */\n      tag_548\n        /* \"#utility.yul\":13031:13073   */\n      tag_549\n        /* \"#utility.yul\":13040:13072   */\n      tag_550\n        /* \"#utility.yul\":13066:13071   */\n      dup5\n        /* \"#utility.yul\":13040:13072   */\n      tag_372\n      jump\t// in\n    tag_550:\n        /* \"#utility.yul\":13031:13073   */\n      tag_374\n      jump\t// in\n    tag_549:\n        /* \"#utility.yul\":13014:13074   */\n      tag_373\n      jump\t// in\n    tag_548:\n        /* \"#utility.yul\":13001:13074   */\n      swap1\n      pop\n        /* \"#utility.yul\":12924:13080   */\n      swap2\n      swap1\n      pop\n      jump\t// out\n        /* \"#utility.yul\":13086:13231   */\n    tag_376:\n        /* \"#utility.yul\":13180:13224   */\n      tag_552\n        /* \"#utility.yul\":13218:13223   */\n      dup2\n        /* \"#utility.yul\":13180:13224   */\n      tag_375\n      jump\t// in\n    tag_552:\n        /* \"#utility.yul\":13175:13178   */\n      dup3\n        /* \"#utility.yul\":13168:13225   */\n      mstore\n        /* \"#utility.yul\":13086:13231   */\n      pop\n      pop\n      jump\t// out\n        /* \"#utility.yul\":13237:13473   */\n    tag_179:\n        /* \"#utility.yul\":13337:13341   */\n      0x00\n        /* \"#utility.yul\":13375:13377   */\n      0x20\n        /* \"#utility.yul\":13364:13373   */\n      dup3\n        /* \"#utility.yul\":13360:13378   */\n      add\n        /* \"#utility.yul\":13352:13378   */\n      swap1\n      pop\n        /* \"#utility.yul\":13388:13466   */\n      tag_554\n        /* \"#utility.yul\":13463:13464   */\n      0x00\n        /* \"#utility.yul\":13452:13461   */\n      dup4\n        /* \"#utility.yul\":13448:13465   */\n      add\n        /* \"#utility.yul\":13439:13445   */\n      dup5\n        /* \"#utility.yul\":13388:13466   */\n      tag_376\n      jump\t// in\n    tag_554:\n        /* \"#utility.yul\":13237:13473   */\n      swap3\n      swap2\n      pop\n      pop\n      jump\t// out\n        /* \"#utility.yul\":13479:13921   */\n    tag_198:\n        /* \"#utility.yul\":13628:13632   */\n      0x00\n        /* \"#utility.yul\":13666:13668   */\n      0x60\n        /* \"#utility.yul\":13655:13664   */\n      dup3\n        /* \"#utility.yul\":13651:13669   */\n      add\n        /* \"#utility.yul\":13643:13669   */\n      swap1\n      pop\n        /* \"#utility.yul\":13679:13750   */\n      tag_556\n        /* \"#utility.yul\":13747:13748   */\n      0x00\n        /* \"#utility.yul\":13736:13745   */\n      dup4\n        /* \"#utility.yul\":13732:13749   */\n      add\n        /* \"#utility.yul\":13723:13729   */\n      dup7\n        /* \"#utility.yul\":13679:13750   */\n      tag_366\n      jump\t// in\n    tag_556:\n        /* \"#utility.yul\":13760:13832   */\n      tag_557\n        /* \"#utility.yul\":13828:13830   */\n      0x20\n        /* \"#utility.yul\":13817:13826   */\n      dup4\n        /* \"#utility.yul\":13813:13831   */\n      add\n        /* \"#utility.yul\":13804:13810   */\n      dup6\n        /* \"#utility.yul\":13760:13832   */\n      tag_352\n      jump\t// in\n    tag_557:\n        /* \"#utility.yul\":13842:13914   */\n      tag_558\n        /* \"#utility.yul\":13910:13912   */\n      0x40\n        /* \"#utility.yul\":13899:13908   */\n      dup4\n        /* \"#utility.yul\":13895:13913   */\n      add\n        /* \"#utility.yul\":13886:13892   */\n      dup5\n        /* \"#utility.yul\":13842:13914   */\n      tag_352\n      jump\t// in\n    tag_558:\n        /* \"#utility.yul\":13479:13921   */\n      swap5\n      swap4\n      pop\n      pop\n      pop\n      pop\n      jump\t// out\n        /* \"#utility.yul\":13927:14049   */\n    tag_377:\n        /* \"#utility.yul\":14000:14024   */\n      tag_560\n        /* \"#utility.yul\":14018:14023   */\n      dup2\n        /* \"#utility.yul\":14000:14024   */\n      tag_364\n      jump\t// in\n    tag_560:\n        /* \"#utility.yul\":13993:13998   */\n      dup2\n        /* \"#utility.yul\":13990:14025   */\n      eq\n        /* \"#utility.yul\":13980:14043   */\n      tag_561\n      jumpi\n        /* \"#utility.yul\":14039:14040   */\n      0x00\n        /* \"#utility.yul\":14036:14037   */\n      dup1\n        /* \"#utility.yul\":14029:14041   */\n      revert\n        /* \"#utility.yul\":13980:14043   */\n    tag_561:\n        /* \"#utility.yul\":13927:14049   */\n      pop\n      jump\t// out\n        /* \"#utility.yul\":14055:14198   */\n    tag_378:\n        /* \"#utility.yul\":14112:14117   */\n      0x00\n        /* \"#utility.yul\":14143:14149   */\n      dup2\n        /* \"#utility.yul\":14137:14150   */\n      mload\n        /* \"#utility.yul\":14128:14150   */\n      swap1\n      pop\n        /* \"#utility.yul\":14159:14192   */\n      tag_563\n        /* \"#utility.yul\":14186:14191   */\n      dup2\n        /* \"#utility.yul\":14159:14192   */\n      tag_377\n      jump\t// in\n    tag_563:\n        /* \"#utility.yul\":14055:14198   */\n      swap3\n      swap2\n      pop\n      pop\n      jump\t// out\n        /* \"#utility.yul\":14204:14555   */\n    tag_218:\n        /* \"#utility.yul\":14274:14280   */\n      0x00\n        /* \"#utility.yul\":14323:14325   */\n      0x20\n        /* \"#utility.yul\":14311:14320   */\n      dup3\n        /* \"#utility.yul\":14302:14309   */\n      dup5\n        /* \"#utility.yul\":14298:14321   */\n      sub\n        /* \"#utility.yul\":14294:14326   */\n      slt\n        /* \"#utility.yul\":14291:14410   */\n      iszero\n      tag_565\n      jumpi\n        /* \"#utility.yul\":14329:14408   */\n      tag_566\n      tag_341\n      jump\t// in\n    tag_566:\n        /* \"#utility.yul\":14291:14410   */\n    tag_565:\n        /* \"#utility.yul\":14449:14450   */\n      0x00\n        /* \"#utility.yul\":14474:14538   */\n      tag_567\n        /* \"#utility.yul\":14530:14537   */\n      dup5\n        /* \"#utility.yul\":14521:14527   */\n      dup3\n        /* \"#utility.yul\":14510:14519   */\n      dup6\n        /* \"#utility.yul\":14506:14528   */\n      add\n        /* \"#utility.yul\":14474:14538   */\n      tag_378\n      jump\t// in\n    tag_567:\n        /* \"#utility.yul\":14464:14538   */\n      swap2\n      pop\n        /* \"#utility.yul\":14420:14548   */\n      pop\n        /* \"#utility.yul\":14204:14555   */\n      swap3\n      swap2\n      pop\n      pop\n      jump\t// out\n        /* \"#utility.yul\":14561:14752   */\n    tag_271:\n        /* \"#utility.yul\":14601:14604   */\n      0x00\n        /* \"#utility.yul\":14620:14640   */\n      tag_569\n        /* \"#utility.yul\":14638:14639   */\n      dup3\n        /* \"#utility.yul\":14620:14640   */\n      tag_347\n      jump\t// in\n    tag_569:\n        /* \"#utility.yul\":14615:14640   */\n      swap2\n      pop\n        /* \"#utility.yul\":14654:14674   */\n      tag_570\n        /* \"#utility.yul\":14672:14673   */\n      dup4\n        /* \"#utility.yul\":14654:14674   */\n      tag_347\n      jump\t// in\n    tag_570:\n        /* \"#utility.yul\":14649:14674   */\n      swap3\n      pop\n        /* \"#utility.yul\":14697:14698   */\n      dup3\n        /* \"#utility.yul\":14694:14695   */\n      dup3\n        /* \"#utility.yul\":14690:14699   */\n      add\n        /* \"#utility.yul\":14683:14699   */\n      swap1\n      pop\n        /* \"#utility.yul\":14718:14721   */\n      dup1\n        /* \"#utility.yul\":14715:14716   */\n      dup3\n        /* \"#utility.yul\":14712:14722   */\n      gt\n        /* \"#utility.yul\":14709:14745   */\n      iszero\n      tag_571\n      jumpi\n        /* \"#utility.yul\":14725:14743   */\n      tag_572\n      tag_368\n      jump\t// in\n    tag_572:\n        /* \"#utility.yul\":14709:14745   */\n    tag_571:\n        /* \"#utility.yul\":14561:14752   */\n      swap3\n      swap2\n      pop\n      pop\n      jump\t// out\n        /* \"#utility.yul\":14758:14899   */\n    tag_379:\n        /* \"#utility.yul\":14807:14811   */\n      0x00\n        /* \"#utility.yul\":14830:14833   */\n      dup2\n        /* \"#utility.yul\":14822:14833   */\n      swap1\n      pop\n        /* \"#utility.yul\":14853:14856   */\n      dup2\n        /* \"#utility.yul\":14850:14851   */\n      0x00\n        /* \"#utility.yul\":14843:14857   */\n      mstore\n        /* \"#utility.yul\":14887:14891   */\n      0x20\n        /* \"#utility.yul\":14884:14885   */\n      0x00\n        /* \"#utility.yul\":14874:14892   */\n      keccak256\n        /* \"#utility.yul\":14866:14892   */\n      swap1\n      pop\n        /* \"#utility.yul\":14758:14899   */\n      swap2\n      swap1\n      pop\n      jump\t// out\n        /* \"#utility.yul\":14905:14998   */\n    tag_380:\n        /* \"#utility.yul\":14942:14948   */\n      0x00\n        /* \"#utility.yul\":14989:14991   */\n      0x20\n        /* \"#utility.yul\":14984:14986   */\n      0x1f\n        /* \"#utility.yul\":14977:14982   */\n      dup4\n        /* \"#utility.yul\":14973:14987   */\n      add\n        /* \"#utility.yul\":14969:14992   */\n      div\n        /* \"#utility.yul\":14959:14992   */\n      swap1\n      pop\n        /* \"#utility.yul\":14905:14998   */\n      swap2\n      swap1\n      pop\n      jump\t// out\n        /* \"#utility.yul\":15004:15111   */\n    tag_381:\n        /* \"#utility.yul\":15048:15056   */\n      0x00\n        /* \"#utility.yul\":15098:15103   */\n      dup3\n        /* \"#utility.yul\":15092:15096   */\n      dup3\n        /* \"#utility.yul\":15088:15104   */\n      shl\n        /* \"#utility.yul\":15067:15104   */\n      swap1\n      pop\n        /* \"#utility.yul\":15004:15111   */\n      swap3\n      swap2\n      pop\n      pop\n      jump\t// out\n        /* \"#utility.yul\":15117:15510   */\n    tag_382:\n        /* \"#utility.yul\":15186:15192   */\n      0x00\n        /* \"#utility.yul\":15236:15237   */\n      0x08\n        /* \"#utility.yul\":15224:15234   */\n      dup4\n        /* \"#utility.yul\":15220:15238   */\n      mul\n        /* \"#utility.yul\":15259:15356   */\n      tag_577\n        /* \"#utility.yul\":15289:15355   */\n      0xffffffffffffffffffffffffffffffffffffffffffffffffffffffffffffffff\n        /* \"#utility.yul\":15278:15287   */\n      dup3\n        /* \"#utility.yul\":15259:15356   */\n      tag_381\n      jump\t// in\n    tag_577:\n        /* \"#utility.yul\":15377:15416   */\n      tag_578\n        /* \"#utility.yul\":15407:15415   */\n      dup7\n        /* \"#utility.yul\":15396:15405   */\n      dup4\n        /* \"#utility.yul\":15377:15416   */\n      tag_381\n      jump\t// in\n    tag_578:\n        /* \"#utility.yul\":15365:15416   */\n      swap6\n      pop\n        /* \"#utility.yul\":15449:15453   */\n      dup1\n        /* \"#utility.yul\":15445:15454   */\n      not\n        /* \"#utility.yul\":15438:15443   */\n      dup5\n        /* \"#utility.yul\":15434:15455   */\n      and\n        /* \"#utility.yul\":15425:15455   */\n      swap4\n      pop\n        /* \"#utility.yul\":15498:15502   */\n      dup1\n        /* \"#utility.yul\":15488:15496   */\n      dup7\n        /* \"#utility.yul\":15484:15503   */\n      and\n        /* \"#utility.yul\":15477:15482   */\n      dup5\n        /* \"#utility.yul\":15474:15504   */\n      or\n        /* \"#utility.yul\":15464:15504   */\n      swap3\n      pop\n        /* \"#utility.yul\":15193:15510   */\n      pop\n      pop\n        /* \"#utility.yul\":15117:15510   */\n      swap4\n      swap3\n      pop\n      pop\n      pop\n      jump\t// out\n        /* \"#utility.yul\":15516:15658   */\n    tag_383:\n        /* \"#utility.yul\":15566:15575   */\n      0x00\n        /* \"#utility.yul\":15599:15652   */\n      tag_580\n        /* \"#utility.yul\":15617:15651   */\n      tag_581\n        /* \"#utility.yul\":15626:15650   */\n      tag_582\n        /* \"#utility.yul\":15644:15649   */\n      dup5\n        /* \"#utility.yul\":15626:15650   */\n      tag_347\n      jump\t// in\n    tag_582:\n        /* \"#utility.yul\":15617:15651   */\n      tag_374\n      jump\t// in\n    tag_581:\n        /* \"#utility.yul\":15599:15652   */\n      tag_347\n      jump\t// in\n    tag_580:\n        /* \"#utility.yul\":15586:15652   */\n      swap1\n      pop\n        /* \"#utility.yul\":15516:15658   */\n      swap2\n      swap1\n      pop\n      jump\t// out\n        /* \"#utility.yul\":15664:15739   */\n    tag_384:\n        /* \"#utility.yul\":15707:15710   */\n      0x00\n        /* \"#utility.yul\":15728:15733   */\n      dup2\n        /* \"#utility.yul\":15721:15733   */\n      swap1\n      pop\n        /* \"#utility.yul\":15664:15739   */\n      swap2\n      swap1\n      pop\n      jump\t// out\n        /* \"#utility.yul\":15745:16014   */\n    tag_385:\n        /* \"#utility.yul\":15855:15894   */\n      tag_585\n        /* \"#utility.yul\":15886:15893   */\n      dup4\n        /* \"#utility.yul\":15855:15894   */\n      tag_383\n      jump\t// in\n    tag_585:\n        /* \"#utility.yul\":15916:16007   */\n      tag_586\n        /* \"#utility.yul\":15965:16006   */\n      tag_587\n        /* \"#utility.yul\":15989:16005   */\n      dup3\n        /* \"#utility.yul\":15965:16006   */\n      tag_384\n      jump\t// in\n    tag_587:\n        /* \"#utility.yul\":15957:15963   */\n      dup5\n        /* \"#utility.yul\":15950:15954   */\n      dup5\n        /* \"#utility.yul\":15944:15955   */\n      sload\n        /* \"#utility.yul\":15916:16007   */\n      tag_382\n      jump\t// in\n    tag_586:\n        /* \"#utility.yul\":15910:15914   */\n      dup3\n        /* \"#utility.yul\":15903:16008   */\n      sstore\n        /* \"#utility.yul\":15821:16014   */\n      pop\n        /* \"#utility.yul\":15745:16014   */\n      pop\n      pop\n      pop\n      jump\t// out\n        /* \"#utility.yul\":16020:16093   */\n    tag_386:\n        /* \"#utility.yul\":16065:16068   */\n      0x00\n        /* \"#utility.yul\":16020:16093   */\n      swap1\n      jump\t// out\n        /* \"#utility.yul\":16099:16288   */\n    tag_387:\n        /* \"#utility.yul\":16176:16208   */\n      tag_590\n      tag_386\n      jump\t// in\n    tag_590:\n        /* \"#utility.yul\":16217:16282   */\n      tag_591\n        /* \"#utility.yul\":16275:16281   */\n      dup2\n        /* \"#utility.yul\":16267:16273   */\n      dup5\n        /* \"#utility.yul\":16261:16265   */\n      dup5\n        /* \"#utility.yul\":16217:16282   */\n      tag_385\n      jump\t// in\n    tag_591:\n        /* \"#utility.yul\":16152:16288   */\n      pop\n        /* \"#utility.yul\":16099:16288   */\n      pop\n      pop\n      jump\t// out\n        /* \"#utility.yul\":16294:16480   */\n    tag_388:\n        /* \"#utility.yul\":16354:16474   */\n    tag_593:\n        /* \"#utility.yul\":16371:16374   */\n      dup2\n        /* \"#utility.yul\":16364:16369   */\n      dup2\n        /* \"#utility.yul\":16361:16375   */\n      lt\n        /* \"#utility.yul\":16354:16474   */\n      iszero\n      tag_595\n      jumpi\n        /* \"#utility.yul\":16425:16464   */\n      tag_596\n        /* \"#utility.yul\":16462:16463   */\n      0x00\n        /* \"#utility.yul\":16455:16460   */\n      dup3\n        /* \"#utility.yul\":16425:16464   */\n      tag_387\n      jump\t// in\n    tag_596:\n        /* \"#utility.yul\":16398:16399   */\n      0x01\n        /* \"#utility.yul\":16391:16396   */\n      dup2\n        /* \"#utility.yul\":16387:16400   */\n      add\n        /* \"#utility.yul\":16378:16400   */\n      swap1\n      pop\n        /* \"#utility.yul\":16354:16474   */\n      jump(tag_593)\n    tag_595:\n        /* \"#utility.yul\":16294:16480   */\n      pop\n      pop\n      jump\t// out\n        /* \"#utility.yul\":16486:17029   */\n    tag_389:\n        /* \"#utility.yul\":16587:16589   */\n      0x1f\n        /* \"#utility.yul\":16582:16585   */\n      dup3\n        /* \"#utility.yul\":16579:16590   */\n      gt\n        /* \"#utility.yul\":16576:17022   */\n      iszero\n      tag_598\n      jumpi\n        /* \"#utility.yul\":16621:16659   */\n      tag_599\n        /* \"#utility.yul\":16653:16658   */\n      dup2\n        /* \"#utility.yul\":16621:16659   */\n      tag_379\n      jump\t// in\n    tag_599:\n        /* \"#utility.yul\":16705:16734   */\n      tag_600\n        /* \"#utility.yul\":16723:16733   */\n      dup5\n        /* \"#utility.yul\":16705:16734   */\n      tag_380\n      jump\t// in\n    tag_600:\n        /* \"#utility.yul\":16695:16703   */\n      dup2\n        /* \"#utility.yul\":16691:16735   */\n      add\n        /* \"#utility.yul\":16888:16890   */\n      0x20\n        /* \"#utility.yul\":16876:16886   */\n      dup6\n        /* \"#utility.yul\":16873:16891   */\n      lt\n        /* \"#utility.yul\":16870:16919   */\n      iszero\n      tag_601\n      jumpi\n        /* \"#utility.yul\":16909:16917   */\n      dup2\n        /* \"#utility.yul\":16894:16917   */\n      swap1\n      pop\n        /* \"#utility.yul\":16870:16919   */\n    tag_601:\n        /* \"#utility.yul\":16932:17012   */\n      tag_602\n        /* \"#utility.yul\":16988:17010   */\n      tag_603\n        /* \"#utility.yul\":17006:17009   */\n      dup6\n        /* \"#utility.yul\":16988:17010   */\n      tag_380\n      jump\t// in\n    tag_603:\n        /* \"#utility.yul\":16978:16986   */\n      dup4\n        /* \"#utility.yul\":16974:17011   */\n      add\n        /* \"#utility.yul\":16961:16972   */\n      dup3\n        /* \"#utility.yul\":16932:17012   */\n      tag_388\n      jump\t// in\n    tag_602:\n        /* \"#utility.yul\":16591:17022   */\n      pop\n      pop\n        /* \"#utility.yul\":16576:17022   */\n    tag_598:\n        /* \"#utility.yul\":16486:17029   */\n      pop\n      pop\n      pop\n      jump\t// out\n        /* \"#utility.yul\":17035:17152   */\n    tag_390:\n        /* \"#utility.yul\":17089:17097   */\n      0x00\n        /* \"#utility.yul\":17139:17144   */\n      dup3\n        /* \"#utility.yul\":17133:17137   */\n      dup3\n        /* \"#utility.yul\":17129:17145   */\n      shr\n        /* \"#utility.yul\":17108:17145   */\n      swap1\n      pop\n        /* \"#utility.yul\":17035:17152   */\n      swap3\n      swap2\n      pop\n      pop\n      jump\t// out\n        /* \"#utility.yul\":17158:17327   */\n    tag_391:\n        /* \"#utility.yul\":17202:17208   */\n      0x00\n        /* \"#utility.yul\":17235:17286   */\n      tag_606\n        /* \"#utility.yul\":17283:17284   */\n      0x00\n        /* \"#utility.yul\":17279:17285   */\n      not\n        /* \"#utility.yul\":17271:17276   */\n      dup5\n        /* \"#utility.yul\":17268:17269   */\n      0x08\n        /* \"#utility.yul\":17264:17277   */\n      mul\n        /* \"#utility.yul\":17235:17286   */\n      tag_390\n      jump\t// in\n    tag_606:\n        /* \"#utility.yul\":17231:17287   */\n      not\n        /* \"#utility.yul\":17316:17320   */\n      dup1\n        /* \"#utility.yul\":17310:17314   */\n      dup4\n        /* \"#utility.yul\":17306:17321   */\n      and\n        /* \"#utility.yul\":17296:17321   */\n      swap2\n      pop\n        /* \"#utility.yul\":17209:17327   */\n      pop\n        /* \"#utility.yul\":17158:17327   */\n      swap3\n      swap2\n      pop\n      pop\n      jump\t// out\n        /* \"#utility.yul\":17332:17627   */\n    tag_392:\n        /* \"#utility.yul\":17408:17412   */\n      0x00\n        /* \"#utility.yul\":17554:17583   */\n      tag_608\n        /* \"#utility.yul\":17579:17582   */\n      dup4\n        /* \"#utility.yul\":17573:17577   */\n      dup4\n        /* \"#utility.yul\":17554:17583   */\n      tag_391\n      jump\t// in\n    tag_608:\n        /* \"#utility.yul\":17546:17583   */\n      swap2\n      pop\n        /* \"#utility.yul\":17616:17619   */\n      dup3\n        /* \"#utility.yul\":17613:17614   */\n      0x02\n        /* \"#utility.yul\":17609:17620   */\n      mul\n        /* \"#utility.yul\":17603:17607   */\n      dup3\n        /* \"#utility.yul\":17600:17621   */\n      or\n        /* \"#utility.yul\":17592:17621   */\n      swap1\n      pop\n        /* \"#utility.yul\":17332:17627   */\n      swap3\n      swap2\n      pop\n      pop\n      jump\t// out\n        /* \"#utility.yul\":17632:19027   */\n    tag_299:\n        /* \"#utility.yul\":17749:17786   */\n      tag_610\n        /* \"#utility.yul\":17782:17785   */\n      dup3\n        /* \"#utility.yul\":17749:17786   */\n      tag_335\n      jump\t// in\n    tag_610:\n        /* \"#utility.yul\":17851:17869   */\n      0xffffffffffffffff\n        /* \"#utility.yul\":17843:17849   */\n      dup2\n        /* \"#utility.yul\":17840:17870   */\n      gt\n        /* \"#utility.yul\":17837:17893   */\n      iszero\n      tag_611\n      jumpi\n        /* \"#utility.yul\":17873:17891   */\n      tag_612\n      tag_357\n      jump\t// in\n    tag_612:\n        /* \"#utility.yul\":17837:17893   */\n    tag_611:\n        /* \"#utility.yul\":17917:17955   */\n      tag_613\n        /* \"#utility.yul\":17949:17953   */\n      dup3\n        /* \"#utility.yul\":17943:17954   */\n      sload\n        /* \"#utility.yul\":17917:17955   */\n      tag_103\n      jump\t// in\n    tag_613:\n        /* \"#utility.yul\":18002:18069   */\n      tag_614\n        /* \"#utility.yul\":18062:18068   */\n      dup3\n        /* \"#utility.yul\":18054:18060   */\n      dup3\n        /* \"#utility.yul\":18048:18052   */\n      dup6\n        /* \"#utility.yul\":18002:18069   */\n      tag_389\n      jump\t// in\n    tag_614:\n        /* \"#utility.yul\":18096:18097   */\n      0x00\n        /* \"#utility.yul\":18120:18124   */\n      0x20\n        /* \"#utility.yul\":18107:18124   */\n      swap1\n      pop\n        /* \"#utility.yul\":18152:18154   */\n      0x1f\n        /* \"#utility.yul\":18144:18150   */\n      dup4\n        /* \"#utility.yul\":18141:18155   */\n      gt\n        /* \"#utility.yul\":18169:18170   */\n      0x01\n        /* \"#utility.yul\":18164:18782   */\n      dup2\n      eq\n      tag_616\n      jumpi\n        /* \"#utility.yul\":18826:18827   */\n      0x00\n        /* \"#utility.yul\":18843:18849   */\n      dup5\n        /* \"#utility.yul\":18840:18917   */\n      iszero\n      tag_617\n      jumpi\n        /* \"#utility.yul\":18892:18901   */\n      dup3\n        /* \"#utility.yul\":18887:18890   */\n      dup8\n        /* \"#utility.yul\":18883:18902   */\n      add\n        /* \"#utility.yul\":18877:18903   */\n      mload\n        /* \"#utility.yul\":18868:18903   */\n      swap1\n      pop\n        /* \"#utility.yul\":18840:18917   */\n    tag_617:\n        /* \"#utility.yul\":18943:19010   */\n      tag_618\n        /* \"#utility.yul\":19003:19009   */\n      dup6\n        /* \"#utility.yul\":18996:19001   */\n      dup3\n        /* \"#utility.yul\":18943:19010   */\n      tag_392\n      jump\t// in\n    tag_618:\n        /* \"#utility.yul\":18937:18941   */\n      dup7\n        /* \"#utility.yul\":18930:19011   */\n      sstore\n        /* \"#utility.yul\":18799:19021   */\n      pop\n        /* \"#utility.yul\":18134:19021   */\n      jump(tag_615)\n        /* \"#utility.yul\":18164:18782   */\n    tag_616:\n        /* \"#utility.yul\":18216:18220   */\n      0x1f\n        /* \"#utility.yul\":18212:18221   */\n      not\n        /* \"#utility.yul\":18204:18210   */\n      dup5\n        /* \"#utility.yul\":18200:18222   */\n      and\n        /* \"#utility.yul\":18250:18287   */\n      tag_619\n        /* \"#utility.yul\":18282:18286   */\n      dup7\n        /* \"#utility.yul\":18250:18287   */\n      tag_379\n      jump\t// in\n    tag_619:\n        /* \"#utility.yul\":18309:18310   */\n      0x00\n        /* \"#utility.yul\":18323:18531   */\n    tag_620:\n        /* \"#utility.yul\":18337:18344   */\n      dup3\n        /* \"#utility.yul\":18334:18335   */\n      dup2\n        /* \"#utility.yul\":18331:18345   */\n      lt\n        /* \"#utility.yul\":18323:18531   */\n      iszero\n      tag_622\n      jumpi\n        /* \"#utility.yul\":18416:18425   */\n      dup5\n        /* \"#utility.yul\":18411:18414   */\n      dup10\n        /* \"#utility.yul\":18407:18426   */\n      add\n        /* \"#utility.yul\":18401:18427   */\n      mload\n        /* \"#utility.yul\":18393:18399   */\n      dup3\n        /* \"#utility.yul\":18386:18428   */\n      sstore\n        /* \"#utility.yul\":18467:18468   */\n      0x01\n        /* \"#utility.yul\":18459:18465   */\n      dup3\n        /* \"#utility.yul\":18455:18469   */\n      add\n        /* \"#utility.yul\":18445:18469   */\n      swap2\n      pop\n        /* \"#utility.yul\":18514:18516   */\n      0x20\n        /* \"#utility.yul\":18503:18512   */\n      dup6\n        /* \"#utility.yul\":18499:18517   */\n      add\n        /* \"#utility.yul\":18486:18517   */\n      swap5\n      pop\n        /* \"#utility.yul\":18360:18364   */\n      0x20\n        /* \"#utility.yul\":18357:18358   */\n      dup2\n        /* \"#utility.yul\":18353:18365   */\n      add\n        /* \"#utility.yul\":18348:18365   */\n      swap1\n      pop\n        /* \"#utility.yul\":18323:18531   */\n      jump(tag_620)\n    tag_622:\n        /* \"#utility.yul\":18559:18565   */\n      dup7\n        /* \"#utility.yul\":18550:18557   */\n      dup4\n        /* \"#utility.yul\":18547:18566   */\n      lt\n        /* \"#utility.yul\":18544:18723   */\n      iszero\n      tag_623\n      jumpi\n        /* \"#utility.yul\":18617:18626   */\n      dup5\n        /* \"#utility.yul\":18612:18615   */\n      dup10\n        /* \"#utility.yul\":18608:18627   */\n      add\n        /* \"#utility.yul\":18602:18628   */\n      mload\n        /* \"#utility.yul\":18660:18708   */\n      tag_624\n        /* \"#utility.yul\":18702:18706   */\n      0x1f\n        /* \"#utility.yul\":18694:18700   */\n      dup10\n        /* \"#utility.yul\":18690:18707   */\n      and\n        /* \"#utility.yul\":18679:18688   */\n      dup3\n        /* \"#utility.yul\":18660:18708   */\n      tag_391\n      jump\t// in\n    tag_624:\n        /* \"#utility.yul\":18652:18658   */\n      dup4\n        /* \"#utility.yul\":18645:18709   */\n      sstore\n        /* \"#utility.yul\":18567:18723   */\n      pop\n        /* \"#utility.yul\":18544:18723   */\n    tag_623:\n        /* \"#utility.yul\":18769:18770   */\n      0x01\n        /* \"#utility.yul\":18765:18766   */\n      0x02\n        /* \"#utility.yul\":18757:18763   */\n      dup9\n        /* \"#utility.yul\":18753:18767   */\n      mul\n        /* \"#utility.yul\":18749:18771   */\n      add\n        /* \"#utility.yul\":18743:18747   */\n      dup9\n        /* \"#utility.yul\":18736:18772   */\n      sstore\n        /* \"#utility.yul\":18171:18782   */\n      pop\n      pop\n      pop\n        /* \"#utility.yul\":18134:19021   */\n    tag_615:\n      pop\n        /* \"#utility.yul\":17724:19027   */\n      pop\n      pop\n      pop\n        /* \"#utility.yul\":17632:19027   */\n      pop\n      pop\n      jump\t// out\n        /* \"#utility.yul\":19033:19131   */\n    tag_393:\n        /* \"#utility.yul\":19084:19090   */\n      0x00\n        /* \"#utility.yul\":19118:19123   */\n      dup2\n        /* \"#utility.yul\":19112:19124   */\n      mload\n        /* \"#utility.yul\":19102:19124   */\n      swap1\n      pop\n        /* \"#utility.yul\":19033:19131   */\n      swap2\n      swap1\n      pop\n      jump\t// out\n        /* \"#utility.yul\":19137:19284   */\n    tag_394:\n        /* \"#utility.yul\":19238:19249   */\n      0x00\n        /* \"#utility.yul\":19275:19278   */\n      dup2\n        /* \"#utility.yul\":19260:19278   */\n      swap1\n      pop\n        /* \"#utility.yul\":19137:19284   */\n      swap3\n      swap2\n      pop\n      pop\n      jump\t// out\n        /* \"#utility.yul\":19290:19676   */\n    tag_395:\n        /* \"#utility.yul\":19394:19397   */\n      0x00\n        /* \"#utility.yul\":19422:19460   */\n      tag_628\n        /* \"#utility.yul\":19454:19459   */\n      dup3\n        /* \"#utility.yul\":19422:19460   */\n      tag_393\n      jump\t// in\n    tag_628:\n        /* \"#utility.yul\":19476:19564   */\n      tag_629\n        /* \"#utility.yul\":19557:19563   */\n      dup2\n        /* \"#utility.yul\":19552:19555   */\n      dup6\n        /* \"#utility.yul\":19476:19564   */\n      tag_394\n      jump\t// in\n    tag_629:\n        /* \"#utility.yul\":19469:19564   */\n      swap4\n      pop\n        /* \"#utility.yul\":19573:19638   */\n      tag_630\n        /* \"#utility.yul\":19631:19637   */\n      dup2\n        /* \"#utility.yul\":19626:19629   */\n      dup6\n        /* \"#utility.yul\":19619:19623   */\n      0x20\n        /* \"#utility.yul\":19612:19617   */\n      dup7\n        /* \"#utility.yul\":19608:19624   */\n      add\n        /* \"#utility.yul\":19573:19638   */\n      tag_337\n      jump\t// in\n    tag_630:\n        /* \"#utility.yul\":19663:19669   */\n      dup1\n        /* \"#utility.yul\":19658:19661   */\n      dup5\n        /* \"#utility.yul\":19654:19670   */\n      add\n        /* \"#utility.yul\":19647:19670   */\n      swap2\n      pop\n        /* \"#utility.yul\":19398:19676   */\n      pop\n        /* \"#utility.yul\":19290:19676   */\n      swap3\n      swap2\n      pop\n      pop\n      jump\t// out\n        /* \"#utility.yul\":19682:19953   */\n    tag_314:\n        /* \"#utility.yul\":19812:19815   */\n      0x00\n        /* \"#utility.yul\":19834:19927   */\n      tag_632\n        /* \"#utility.yul\":19923:19926   */\n      dup3\n        /* \"#utility.yul\":19914:19920   */\n      dup5\n        /* \"#utility.yul\":19834:19927   */\n      tag_395\n      jump\t// in\n    tag_632:\n        /* \"#utility.yul\":19827:19927   */\n      swap2\n      pop\n        /* \"#utility.yul\":19944:19947   */\n      dup2\n        /* \"#utility.yul\":19937:19947   */\n      swap1\n      pop\n        /* \"#utility.yul\":19682:19953   */\n      swap3\n      swap2\n      pop\n      pop\n      jump\t// out\n\n    auxdata: 0xa2646970667358221220e0acea6f6450004465e88ae559f83695e01bb8bc1e6a4e7c8498b6be3aa086eb64736f6c63430008160033\n}\n",
				"bytecode": {
					"linkReferences": {},
					"object": "60a06040523073ffffffffffffffffffffffffffffffffffffffff1660809073ffffffffffffffffffffffffffffffffffffffff1681525034801562000043575f80fd5b50620000546200005a60201b60201c565b620001c4565b5f6200006b6200015e60201b60201c565b9050805f0160089054906101000a900460ff1615620000b6576040517ff92ee8a900000000000000000000000000000000000000000000000000000000815260040160405180910390fd5b67ffffffffffffffff8016815f015f9054906101000a900467ffffffffffffffff1667ffffffffffffffff16146200015b5767ffffffffffffffff815f015f6101000a81548167ffffffffffffffff021916908367ffffffffffffffff1602179055507fc7f505b2f371ae2175ee4913f4499e1f2633a7b5936321eed1cdaeb6115181d267ffffffffffffffff604051620001529190620001a9565b60405180910390a15b50565b5f7ff0c57e16840df040f15088dc2f81fe391c3923bec73e23a9662efc9c229c6a00905090565b5f67ffffffffffffffff82169050919050565b620001a38162000185565b82525050565b5f602082019050620001be5f83018462000198565b92915050565b608051612404620001eb5f395f8181610bba01528181610c0f0152610dc901526124045ff3fe6080604052600436106100f2575f3560e01c8063715018a611610089578063ad3cb1cc11610058578063ad3cb1cc14610314578063c4d66de81461033e578063dd62ed3e14610366578063f2fde38b146103a2576100f2565b8063715018a61461026e5780638da5cb5b1461028457806395d89b41146102ae578063a9059cbb146102d8576100f2565b8063313ce567116100c5578063313ce567146101c25780634f1ef286146101ec57806352d1902d1461020857806370a0823114610232576100f2565b806306fdde03146100f6578063095ea7b31461012057806318160ddd1461015c57806323b872dd14610186575b5f80fd5b348015610101575f80fd5b5061010a6103ca565b604051610117919061197f565b60405180910390f35b34801561012b575f80fd5b5061014660048036038101906101419190611a3d565b610468565b6040516101539190611a95565b60405180910390f35b348015610167575f80fd5b5061017061048a565b60405161017d9190611abd565b60405180910390f35b348015610191575f80fd5b506101ac60048036038101906101a79190611ad6565b6104a1565b6040516101b99190611a95565b60405180910390f35b3480156101cd575f80fd5b506101d66104cf565b6040516101e39190611b41565b60405180910390f35b61020660048036038101906102019190611c86565b6104d7565b005b348015610213575f80fd5b5061021c6104f6565b6040516102299190611cf8565b60405180910390f35b34801561023d575f80fd5b5061025860048036038101906102539190611d11565b610527565b6040516102659190611abd565b60405180910390f35b348015610279575f80fd5b5061028261057a565b005b34801561028f575f80fd5b5061029861058d565b6040516102a59190611d4b565b60405180910390f35b3480156102b9575f80fd5b506102c26105c2565b6040516102cf919061197f565b60405180910390f35b3480156102e3575f80fd5b506102fe60048036038101906102f99190611a3d565b610660565b60405161030b9190611a95565b60405180910390f35b34801561031f575f80fd5b50610328610682565b604051610335919061197f565b60405180910390f35b348015610349575f80fd5b50610364600480360381019061035f9190611d11565b6106bb565b005b348015610371575f80fd5b5061038c60048036038101906103879190611d64565b6108e2565b6040516103999190611abd565b60405180910390f35b3480156103ad575f80fd5b506103c860048036038101906103c39190611d11565b610972565b005b60605f6103d56109f6565b90508060030180546103e690611dcf565b80601f016020809104026020016040519081016040528092919081815260200182805461041290611dcf565b801561045d5780601f106104345761010080835404028352916020019161045d565b820191905f5260205f20905b81548152906001019060200180831161044057829003601f168201915b505050505091505090565b5f80610472610a1d565b905061047f818585610a24565b600191505092915050565b5f806104946109f6565b9050806002015491505090565b5f806104ab610a1d565b90506104b8858285610a36565b6104c3858585610ac8565b60019150509392505050565b5f6012905090565b6104df610bb8565b6104e882610c9e565b6104f28282610ca9565b5050565b5f6104ff610dc7565b7f360894a13ba1a3210667c828492db98dca3e2076cc3735a920a3ca505d382bbc5f1b905090565b5f806105316109f6565b9050805f015f8473ffffffffffffffffffffffffffffffffffffffff1673ffffffffffffffffffffffffffffffffffffffff1681526020019081526020015f2054915050919050565b610582610e4e565b61058b5f610ed5565b565b5f80610597610fa6565b9050805f015f9054906101000a900473ffffffffffffffffffffffffffffffffffffffff1691505090565b60605f6105cd6109f6565b90508060040180546105de90611dcf565b80601f016020809104026020016040519081016040528092919081815260200182805461060a90611dcf565b80156106555780601f1061062c57610100808354040283529160200191610655565b820191905f5260205f20905b81548152906001019060200180831161063857829003601f168201915b505050505091505090565b5f8061066a610a1d565b9050610677818585610ac8565b600191505092915050565b6040518060400160405280600581526020017f352e302e3000000000000000000000000000000000000000000000000000000081525081565b5f6106c4610fcd565b90505f815f0160089054906101000a900460ff161590505f825f015f9054906101000a900467ffffffffffffffff1690505f808267ffffffffffffffff1614801561070c5750825b90505f60018367ffffffffffffffff1614801561073f57505f3073ffffffffffffffffffffffffffffffffffffffff163b145b90508115801561074d575080155b15610784576040517ff92ee8a900000000000000000000000000000000000000000000000000000000815260040160405180910390fd5b6001855f015f6101000a81548167ffffffffffffffff021916908367ffffffffffffffff16021790555083156107d1576001855f0160086101000a81548160ff0219169083151502179055505b6108456040518060400160405280600981526020017f4d697661546f6b656e00000000000000000000000000000000000000000000008152506040518060400160405280600381526020017f4d56540000000000000000000000000000000000000000000000000000000000815250610ff4565b61084e8661100a565b61085661101e565b610880336108626104cf565b600a61086e9190611f5b565b614e2061087b9190611fa5565b611028565b83156108da575f855f0160086101000a81548160ff0219169083151502179055507fc7f505b2f371ae2175ee4913f4499e1f2633a7b5936321eed1cdaeb6115181d260016040516108d1919061203b565b60405180910390a15b505050505050565b5f806108ec6109f6565b9050806001015f8573ffffffffffffffffffffffffffffffffffffffff1673ffffffffffffffffffffffffffffffffffffffff1681526020019081526020015f205f8473ffffffffffffffffffffffffffffffffffffffff1673ffffffffffffffffffffffffffffffffffffffff1681526020019081526020015f205491505092915050565b61097a610e4e565b5f73ffffffffffffffffffffffffffffffffffffffff168173ffffffffffffffffffffffffffffffffffffffff16036109ea575f6040517f1e4fbdf70000000000000000000000000000000000000000000000000000000081526004016109e19190611d4b565b60405180910390fd5b6109f381610ed5565b50565b5f7f52c63247e1f47db19d5ce0460030c497f067ca4cebf71ba98eeadabe20bace00905090565b5f33905090565b610a3183838360016110a7565b505050565b5f610a4184846108e2565b90507fffffffffffffffffffffffffffffffffffffffffffffffffffffffffffffffff8114610ac25781811015610ab3578281836040517ffb8f41b2000000000000000000000000000000000000000000000000000000008152600401610aaa93929190612054565b60405180910390fd5b610ac184848484035f6110a7565b5b50505050565b5f73ffffffffffffffffffffffffffffffffffffffff168373ffffffffffffffffffffffffffffffffffffffff1603610b38575f6040517f96c6fd1e000000000000000000000000000000000000000000000000000000008152600401610b2f9190611d4b565b60405180910390fd5b5f73ffffffffffffffffffffffffffffffffffffffff168273ffffffffffffffffffffffffffffffffffffffff1603610ba8575f6040517fec442f05000000000000000000000000000000000000000000000000000000008152600401610b9f9190611d4b565b60405180910390fd5b610bb3838383611284565b505050565b7f000000000000000000000000000000000000000000000000000000000000000073ffffffffffffffffffffffffffffffffffffffff163073ffffffffffffffffffffffffffffffffffffffff161480610c6557507f000000000000000000000000000000000000000000000000000000000000000073ffffffffffffffffffffffffffffffffffffffff16610c4c6114b3565b73ffffffffffffffffffffffffffffffffffffffff1614155b15610c9c576040517fe07c8dba00000000000000000000000000000000000000000000000000000000815260040160405180910390fd5b565b610ca6610e4e565b50565b8173ffffffffffffffffffffffffffffffffffffffff166352d1902d6040518163ffffffff1660e01b8152600401602060405180830381865afa925050508015610d1157506040513d601f19601f82011682018060405250810190610d0e91906120b3565b60015b610d5257816040517f4c9c8ce3000000000000000000000000000000000000000000000000000000008152600401610d499190611d4b565b60405180910390fd5b7f360894a13ba1a3210667c828492db98dca3e2076cc3735a920a3ca505d382bbc5f1b8114610db857806040517faa1d49a4000000000000000000000000000000000000000000000000000000008152600401610daf9190611cf8565b60405180910390fd5b610dc28383611506565b505050565b7f000000000000000000000000000000000000000000000000000000000000000073ffffffffffffffffffffffffffffffffffffffff163073ffffffffffffffffffffffffffffffffffffffff1614610e4c576040517fe07c8dba00000000000000000000000000000000000000000000000000000000815260040160405180910390fd5b565b610e56610a1d565b73ffffffffffffffffffffffffffffffffffffffff16610e7461058d565b73ffffffffffffffffffffffffffffffffffffffff1614610ed357610e97610a1d565b6040517f118cdaa7000000000000000000000000000000000000000000000000000000008152600401610eca9190611d4b565b60405180910390fd5b565b5f610ede610fa6565b90505f815f015f9054906101000a900473ffffffffffffffffffffffffffffffffffffffff16905082825f015f6101000a81548173ffffffffffffffffffffffffffffffffffffffff021916908373ffffffffffffffffffffffffffffffffffffffff1602179055508273ffffffffffffffffffffffffffffffffffffffff168173ffffffffffffffffffffffffffffffffffffffff167f8be0079c531659141344cd1fd0a4f28419497f9722a3daafe3b4186f6b6457e060405160405180910390a3505050565b5f7f9016d09d72d40fdae2fd8ceac6b6234c7706214fd39c1cd1e609a0528c199300905090565b5f7ff0c57e16840df040f15088dc2f81fe391c3923bec73e23a9662efc9c229c6a00905090565b610ffc611578565b61100682826115b8565b5050565b611012611578565b61101b816115f4565b50565b611026611578565b565b5f73ffffffffffffffffffffffffffffffffffffffff168273ffffffffffffffffffffffffffffffffffffffff1603611098575f6040517fec442f0500000000000000000000000000000000000000000000000000000000815260040161108f9190611d4b565b60405180910390fd5b6110a35f8383611284565b5050565b5f6110b06109f6565b90505f73ffffffffffffffffffffffffffffffffffffffff168573ffffffffffffffffffffffffffffffffffffffff1603611122575f6040517fe602df050000000000000000000000000000000000000000000000000000000081526004016111199190611d4b565b60405180910390fd5b5f73ffffffffffffffffffffffffffffffffffffffff168473ffffffffffffffffffffffffffffffffffffffff1603611192575f6040517f94280d620000000000000000000000000000000000000000000000000000000081526004016111899190611d4b565b60405180910390fd5b82816001015f8773ffffffffffffffffffffffffffffffffffffffff1673ffffffffffffffffffffffffffffffffffffffff1681526020019081526020015f205f8673ffffffffffffffffffffffffffffffffffffffff1673ffffffffffffffffffffffffffffffffffffffff1681526020019081526020015f2081905550811561127d578373ffffffffffffffffffffffffffffffffffffffff168573ffffffffffffffffffffffffffffffffffffffff167f8c5be1e5ebec7d5bd14f71427d1e84f3dd0314c0f7b2291e5b200ac8c7c3b925856040516112749190611abd565b60405180910390a35b5050505050565b5f61128d6109f6565b90505f73ffffffffffffffffffffffffffffffffffffffff168473ffffffffffffffffffffffffffffffffffffffff16036112e15781816002015f8282546112d591906120de565b925050819055506113b3565b5f815f015f8673ffffffffffffffffffffffffffffffffffffffff1673ffffffffffffffffffffffffffffffffffffffff1681526020019081526020015f205490508281101561136c578481846040517fe450d38c00000000000000000000000000000000000000000000000000000000815260040161136393929190612054565b60405180910390fd5b828103825f015f8773ffffffffffffffffffffffffffffffffffffffff1673ffffffffffffffffffffffffffffffffffffffff1681526020019081526020015f2081905550505b5f73ffffffffffffffffffffffffffffffffffffffff168373ffffffffffffffffffffffffffffffffffffffff16036113fc5781816002015f8282540392505081905550611448565b81815f015f8573ffffffffffffffffffffffffffffffffffffffff1673ffffffffffffffffffffffffffffffffffffffff1681526020019081526020015f205f82825401925050819055505b8273ffffffffffffffffffffffffffffffffffffffff168473ffffffffffffffffffffffffffffffffffffffff167fddf252ad1be2c89b69c2b068fc378daa952ba7f163c4a11628f55a4df523b3ef846040516114a59190611abd565b60405180910390a350505050565b5f6114df7f360894a13ba1a3210667c828492db98dca3e2076cc3735a920a3ca505d382bbc5f1b611678565b5f015f9054906101000a900473ffffffffffffffffffffffffffffffffffffffff16905090565b61150f82611681565b8173ffffffffffffffffffffffffffffffffffffffff167fbc7cd75a20ee27fd9adebab32041f755214dbc6bffa90cc0225b39da2e5c2d3b60405160405180910390a25f8151111561156b57611565828261174a565b50611574565b6115736117ca565b5b5050565b611580611806565b6115b6576040517fd7e6bcf800000000000000000000000000000000000000000000000000000000815260040160405180910390fd5b565b6115c0611578565b5f6115c96109f6565b9050828160030190816115dc91906122a5565b50818160040190816115ee91906122a5565b50505050565b6115fc611578565b5f73ffffffffffffffffffffffffffffffffffffffff168173ffffffffffffffffffffffffffffffffffffffff160361166c575f6040517f1e4fbdf70000000000000000000000000000000000000000000000000000000081526004016116639190611d4b565b60405180910390fd5b61167581610ed5565b50565b5f819050919050565b5f8173ffffffffffffffffffffffffffffffffffffffff163b036116dc57806040517f4c9c8ce30000000000000000000000000000000000000000000000000000000081526004016116d39190611d4b565b60405180910390fd5b806117087f360894a13ba1a3210667c828492db98dca3e2076cc3735a920a3ca505d382bbc5f1b611678565b5f015f6101000a81548173ffffffffffffffffffffffffffffffffffffffff021916908373ffffffffffffffffffffffffffffffffffffffff16021790555050565b60605f808473ffffffffffffffffffffffffffffffffffffffff168460405161177391906123b8565b5f60405180830381855af49150503d805f81146117ab576040519150601f19603f3d011682016040523d82523d5f602084013e6117b0565b606091505b50915091506117c0858383611824565b9250505092915050565b5f341115611804576040517fb398979f00000000000000000000000000000000000000000000000000000000815260040160405180910390fd5b565b5f61180f610fcd565b5f0160089054906101000a900460ff16905090565b60608261183957611834826118b1565b6118a9565b5f825114801561185f57505f8473ffffffffffffffffffffffffffffffffffffffff163b145b156118a157836040517f9996b3150000000000000000000000000000000000000000000000000000000081526004016118989190611d4b565b60405180910390fd5b8190506118aa565b5b9392505050565b5f815111156118c35780518082602001fd5b6040517f1425ea4200000000000000000000000000000000000000000000000000000000815260040160405180910390fd5b5f81519050919050565b5f82825260208201905092915050565b5f5b8381101561192c578082015181840152602081019050611911565b5f8484015250505050565b5f601f19601f8301169050919050565b5f611951826118f5565b61195b81856118ff565b935061196b81856020860161190f565b61197481611937565b840191505092915050565b5f6020820190508181035f8301526119978184611947565b905092915050565b5f604051905090565b5f80fd5b5f80fd5b5f73ffffffffffffffffffffffffffffffffffffffff82169050919050565b5f6119d9826119b0565b9050919050565b6119e9816119cf565b81146119f3575f80fd5b50565b5f81359050611a04816119e0565b92915050565b5f819050919050565b611a1c81611a0a565b8114611a26575f80fd5b50565b5f81359050611a3781611a13565b92915050565b5f8060408385031215611a5357611a526119a8565b5b5f611a60858286016119f6565b9250506020611a7185828601611a29565b9150509250929050565b5f8115159050919050565b611a8f81611a7b565b82525050565b5f602082019050611aa85f830184611a86565b92915050565b611ab781611a0a565b82525050565b5f602082019050611ad05f830184611aae565b92915050565b5f805f60608486031215611aed57611aec6119a8565b5b5f611afa868287016119f6565b9350506020611b0b868287016119f6565b9250506040611b1c86828701611a29565b9150509250925092565b5f60ff82169050919050565b611b3b81611b26565b82525050565b5f602082019050611b545f830184611b32565b92915050565b5f80fd5b5f80fd5b7f4e487b71000000000000000000000000000000000000000000000000000000005f52604160045260245ffd5b611b9882611937565b810181811067ffffffffffffffff82111715611bb757611bb6611b62565b5b80604052505050565b5f611bc961199f565b9050611bd58282611b8f565b919050565b5f67ffffffffffffffff821115611bf457611bf3611b62565b5b611bfd82611937565b9050602081019050919050565b828183375f83830152505050565b5f611c2a611c2584611bda565b611bc0565b905082815260208101848484011115611c4657611c45611b5e565b5b611c51848285611c0a565b509392505050565b5f82601f830112611c6d57611c6c611b5a565b5b8135611c7d848260208601611c18565b91505092915050565b5f8060408385031215611c9c57611c9b6119a8565b5b5f611ca9858286016119f6565b925050602083013567ffffffffffffffff811115611cca57611cc96119ac565b5b611cd685828601611c59565b9150509250929050565b5f819050919050565b611cf281611ce0565b82525050565b5f602082019050611d0b5f830184611ce9565b92915050565b5f60208284031215611d2657611d256119a8565b5b5f611d33848285016119f6565b91505092915050565b611d45816119cf565b82525050565b5f602082019050611d5e5f830184611d3c565b92915050565b5f8060408385031215611d7a57611d796119a8565b5b5f611d87858286016119f6565b9250506020611d98858286016119f6565b9150509250929050565b7f4e487b71000000000000000000000000000000000000000000000000000000005f52602260045260245ffd5b5f6002820490506001821680611de657607f821691505b602082108103611df957611df8611da2565b5b50919050565b7f4e487b71000000000000000000000000000000000000000000000000000000005f52601160045260245ffd5b5f8160011c9050919050565b5f808291508390505b6001851115611e8157808604811115611e5d57611e5c611dff565b5b6001851615611e6c5780820291505b8081029050611e7a85611e2c565b9450611e41565b94509492505050565b5f82611e995760019050611f54565b81611ea6575f9050611f54565b8160018114611ebc5760028114611ec657611ef5565b6001915050611f54565b60ff841115611ed857611ed7611dff565b5b8360020a915084821115611eef57611eee611dff565b5b50611f54565b5060208310610133831016604e8410600b8410161715611f2a5782820a905083811115611f2557611f24611dff565b5b611f54565b611f378484846001611e38565b92509050818404811115611f4e57611f4d611dff565b5b81810290505b9392505050565b5f611f6582611a0a565b9150611f7083611b26565b9250611f9d7fffffffffffffffffffffffffffffffffffffffffffffffffffffffffffffffff8484611e8a565b905092915050565b5f611faf82611a0a565b9150611fba83611a0a565b9250828202611fc881611a0a565b91508282048414831517611fdf57611fde611dff565b5b5092915050565b5f819050919050565b5f67ffffffffffffffff82169050919050565b5f819050919050565b5f61202561202061201b84611fe6565b612002565b611fef565b9050919050565b6120358161200b565b82525050565b5f60208201905061204e5f83018461202c565b92915050565b5f6060820190506120675f830186611d3c565b6120746020830185611aae565b6120816040830184611aae565b949350505050565b61209281611ce0565b811461209c575f80fd5b50565b5f815190506120ad81612089565b92915050565b5f602082840312156120c8576120c76119a8565b5b5f6120d58482850161209f565b91505092915050565b5f6120e882611a0a565b91506120f383611a0a565b925082820190508082111561210b5761210a611dff565b5b92915050565b5f819050815f5260205f209050919050565b5f6020601f8301049050919050565b5f82821b905092915050565b5f6008830261216d7fffffffffffffffffffffffffffffffffffffffffffffffffffffffffffffffff82612132565b6121778683612132565b95508019841693508086168417925050509392505050565b5f6121a96121a461219f84611a0a565b612002565b611a0a565b9050919050565b5f819050919050565b6121c28361218f565b6121d66121ce826121b0565b84845461213e565b825550505050565b5f90565b6121ea6121de565b6121f58184846121b9565b505050565b5b818110156122185761220d5f826121e2565b6001810190506121fb565b5050565b601f82111561225d5761222e81612111565b61223784612123565b81016020851015612246578190505b61225a61225285612123565b8301826121fa565b50505b505050565b5f82821c905092915050565b5f61227d5f1984600802612262565b1980831691505092915050565b5f612295838361226e565b9150826002028217905092915050565b6122ae826118f5565b67ffffffffffffffff8111156122c7576122c6611b62565b5b6122d18254611dcf565b6122dc82828561221c565b5f60209050601f83116001811461230d575f84156122fb578287015190505b612305858261228a565b86555061236c565b601f19841661231b86612111565b5f5b828110156123425784890151825560018201915060208501945060208101905061231d565b8683101561235f578489015161235b601f89168261226e565b8355505b6001600288020188555050505b505050505050565b5f81519050919050565b5f81905092915050565b5f61239282612374565b61239c818561237e565b93506123ac81856020860161190f565b80840191505092915050565b5f6123c38284612388565b91508190509291505056fea2646970667358221220e0acea6f6450004465e88ae559f83695e01bb8bc1e6a4e7c8498b6be3aa086eb64736f6c63430008160033",
					"opcodes": "PUSH1 0xA0 PUSH1 0x40 MSTORE ADDRESS PUSH20 0xFFFFFFFFFFFFFFFFFFFFFFFFFFFFFFFFFFFFFFFF AND PUSH1 0x80 SWAP1 PUSH20 0xFFFFFFFFFFFFFFFFFFFFFFFFFFFFFFFFFFFFFFFF AND DUP2 MSTORE POP CALLVALUE DUP1 ISZERO PUSH3 0x43 JUMPI PUSH0 DUP1 REVERT JUMPDEST POP PUSH3 0x54 PUSH3 0x5A PUSH1 0x20 SHL PUSH1 0x20 SHR JUMP JUMPDEST PUSH3 0x1C4 JUMP JUMPDEST PUSH0 PUSH3 0x6B PUSH3 0x15E PUSH1 0x20 SHL PUSH1 0x20 SHR JUMP JUMPDEST SWAP1 POP DUP1 PUSH0 ADD PUSH1 0x8 SWAP1 SLOAD SWAP1 PUSH2 0x100 EXP SWAP1 DIV PUSH1 0xFF AND ISZERO PUSH3 0xB6 JUMPI PUSH1 0x40 MLOAD PUSH32 0xF92EE8A900000000000000000000000000000000000000000000000000000000 DUP2 MSTORE PUSH1 0x4 ADD PUSH1 0x40 MLOAD DUP1 SWAP2 SUB SWAP1 REVERT JUMPDEST PUSH8 0xFFFFFFFFFFFFFFFF DUP1 AND DUP2 PUSH0 ADD PUSH0 SWAP1 SLOAD SWAP1 PUSH2 0x100 EXP SWAP1 DIV PUSH8 0xFFFFFFFFFFFFFFFF AND PUSH8 0xFFFFFFFFFFFFFFFF AND EQ PUSH3 0x15B JUMPI PUSH8 0xFFFFFFFFFFFFFFFF DUP2 PUSH0 ADD PUSH0 PUSH2 0x100 EXP DUP2 SLOAD DUP2 PUSH8 0xFFFFFFFFFFFFFFFF MUL NOT AND SWAP1 DUP4 PUSH8 0xFFFFFFFFFFFFFFFF AND MUL OR SWAP1 SSTORE POP PUSH32 0xC7F505B2F371AE2175EE4913F4499E1F2633A7B5936321EED1CDAEB6115181D2 PUSH8 0xFFFFFFFFFFFFFFFF PUSH1 0x40 MLOAD PUSH3 0x152 SWAP2 SWAP1 PUSH3 0x1A9 JUMP JUMPDEST PUSH1 0x40 MLOAD DUP1 SWAP2 SUB SWAP1 LOG1 JUMPDEST POP JUMP JUMPDEST PUSH0 PUSH32 0xF0C57E16840DF040F15088DC2F81FE391C3923BEC73E23A9662EFC9C229C6A00 SWAP1 POP SWAP1 JUMP JUMPDEST PUSH0 PUSH8 0xFFFFFFFFFFFFFFFF DUP3 AND SWAP1 POP SWAP2 SWAP1 POP JUMP JUMPDEST PUSH3 0x1A3 DUP2 PUSH3 0x185 JUMP JUMPDEST DUP3 MSTORE POP POP JUMP JUMPDEST PUSH0 PUSH1 0x20 DUP3 ADD SWAP1 POP PUSH3 0x1BE PUSH0 DUP4 ADD DUP5 PUSH3 0x198 JUMP JUMPDEST SWAP3 SWAP2 POP POP JUMP JUMPDEST PUSH1 0x80 MLOAD PUSH2 0x2404 PUSH3 0x1EB PUSH0 CODECOPY PUSH0 DUP2 DUP2 PUSH2 0xBBA ADD MSTORE DUP2 DUP2 PUSH2 0xC0F ADD MSTORE PUSH2 0xDC9 ADD MSTORE PUSH2 0x2404 PUSH0 RETURN INVALID PUSH1 0x80 PUSH1 0x40 MSTORE PUSH1 0x4 CALLDATASIZE LT PUSH2 0xF2 JUMPI PUSH0 CALLDATALOAD PUSH1 0xE0 SHR DUP1 PUSH4 0x715018A6 GT PUSH2 0x89 JUMPI DUP1 PUSH4 0xAD3CB1CC GT PUSH2 0x58 JUMPI DUP1 PUSH4 0xAD3CB1CC EQ PUSH2 0x314 JUMPI DUP1 PUSH4 0xC4D66DE8 EQ PUSH2 0x33E JUMPI DUP1 PUSH4 0xDD62ED3E EQ PUSH2 0x366 JUMPI DUP1 PUSH4 0xF2FDE38B EQ PUSH2 0x3A2 JUMPI PUSH2 0xF2 JUMP JUMPDEST DUP1 PUSH4 0x715018A6 EQ PUSH2 0x26E JUMPI DUP1 PUSH4 0x8DA5CB5B EQ PUSH2 0x284 JUMPI DUP1 PUSH4 0x95D89B41 EQ PUSH2 0x2AE JUMPI DUP1 PUSH4 0xA9059CBB EQ PUSH2 0x2D8 JUMPI PUSH2 0xF2 JUMP JUMPDEST DUP1 PUSH4 0x313CE567 GT PUSH2 0xC5 JUMPI DUP1 PUSH4 0x313CE567 EQ PUSH2 0x1C2 JUMPI DUP1 PUSH4 0x4F1EF286 EQ PUSH2 0x1EC JUMPI DUP1 PUSH4 0x52D1902D EQ PUSH2 0x208 JUMPI DUP1 PUSH4 0x70A08231 EQ PUSH2 0x232 JUMPI PUSH2 0xF2 JUMP JUMPDEST DUP1 PUSH4 0x6FDDE03 EQ PUSH2 0xF6 JUMPI DUP1 PUSH4 0x95EA7B3 EQ PUSH2 0x120 JUMPI DUP1 PUSH4 0x18160DDD EQ PUSH2 0x15C JUMPI DUP1 PUSH4 0x23B872DD EQ PUSH2 0x186 JUMPI JUMPDEST PUSH0 DUP1 REVERT JUMPDEST CALLVALUE DUP1 ISZERO PUSH2 0x101 JUMPI PUSH0 DUP1 REVERT JUMPDEST POP PUSH2 0x10A PUSH2 0x3CA JUMP JUMPDEST PUSH1 0x40 MLOAD PUSH2 0x117 SWAP2 SWAP1 PUSH2 0x197F JUMP JUMPDEST PUSH1 0x40 MLOAD DUP1 SWAP2 SUB SWAP1 RETURN JUMPDEST CALLVALUE DUP1 ISZERO PUSH2 0x12B JUMPI PUSH0 DUP1 REVERT JUMPDEST POP PUSH2 0x146 PUSH1 0x4 DUP1 CALLDATASIZE SUB DUP2 ADD SWAP1 PUSH2 0x141 SWAP2 SWAP1 PUSH2 0x1A3D JUMP JUMPDEST PUSH2 0x468 JUMP JUMPDEST PUSH1 0x40 MLOAD PUSH2 0x153 SWAP2 SWAP1 PUSH2 0x1A95 JUMP JUMPDEST PUSH1 0x40 MLOAD DUP1 SWAP2 SUB SWAP1 RETURN JUMPDEST CALLVALUE DUP1 ISZERO PUSH2 0x167 JUMPI PUSH0 DUP1 REVERT JUMPDEST POP PUSH2 0x170 PUSH2 0x48A JUMP JUMPDEST PUSH1 0x40 MLOAD PUSH2 0x17D SWAP2 SWAP1 PUSH2 0x1ABD JUMP JUMPDEST PUSH1 0x40 MLOAD DUP1 SWAP2 SUB SWAP1 RETURN JUMPDEST CALLVALUE DUP1 ISZERO PUSH2 0x191 JUMPI PUSH0 DUP1 REVERT JUMPDEST POP PUSH2 0x1AC PUSH1 0x4 DUP1 CALLDATASIZE SUB DUP2 ADD SWAP1 PUSH2 0x1A7 SWAP2 SWAP1 PUSH2 0x1AD6 JUMP JUMPDEST PUSH2 0x4A1 JUMP JUMPDEST PUSH1 0x40 MLOAD PUSH2 0x1B9 SWAP2 SWAP1 PUSH2 0x1A95 JUMP JUMPDEST PUSH1 0x40 MLOAD DUP1 SWAP2 SUB SWAP1 RETURN JUMPDEST CALLVALUE DUP1 ISZERO PUSH2 0x1CD JUMPI PUSH0 DUP1 REVERT JUMPDEST POP PUSH2 0x1D6 PUSH2 0x4CF JUMP JUMPDEST PUSH1 0x40 MLOAD PUSH2 0x1E3 SWAP2 SWAP1 PUSH2 0x1B41 JUMP JUMPDEST PUSH1 0x40 MLOAD DUP1 SWAP2 SUB SWAP1 RETURN JUMPDEST PUSH2 0x206 PUSH1 0x4 DUP1 CALLDATASIZE SUB DUP2 ADD SWAP1 PUSH2 0x201 SWAP2 SWAP1 PUSH2 0x1C86 JUMP JUMPDEST PUSH2 0x4D7 JUMP JUMPDEST STOP JUMPDEST CALLVALUE DUP1 ISZERO PUSH2 0x213 JUMPI PUSH0 DUP1 REVERT JUMPDEST POP PUSH2 0x21C PUSH2 0x4F6 JUMP JUMPDEST PUSH1 0x40 MLOAD PUSH2 0x229 SWAP2 SWAP1 PUSH2 0x1CF8 JUMP JUMPDEST PUSH1 0x40 MLOAD DUP1 SWAP2 SUB SWAP1 RETURN JUMPDEST CALLVALUE DUP1 ISZERO PUSH2 0x23D JUMPI PUSH0 DUP1 REVERT JUMPDEST POP PUSH2 0x258 PUSH1 0x4 DUP1 CALLDATASIZE SUB DUP2 ADD SWAP1 PUSH2 0x253 SWAP2 SWAP1 PUSH2 0x1D11 JUMP JUMPDEST PUSH2 0x527 JUMP JUMPDEST PUSH1 0x40 MLOAD PUSH2 0x265 SWAP2 SWAP1 PUSH2 0x1ABD JUMP JUMPDEST PUSH1 0x40 MLOAD DUP1 SWAP2 SUB SWAP1 RETURN JUMPDEST CALLVALUE DUP1 ISZERO PUSH2 0x279 JUMPI PUSH0 DUP1 REVERT JUMPDEST POP PUSH2 0x282 PUSH2 0x57A JUMP JUMPDEST STOP JUMPDEST CALLVALUE DUP1 ISZERO PUSH2 0x28F JUMPI PUSH0 DUP1 REVERT JUMPDEST POP PUSH2 0x298 PUSH2 0x58D JUMP JUMPDEST PUSH1 0x40 MLOAD PUSH2 0x2A5 SWAP2 SWAP1 PUSH2 0x1D4B JUMP JUMPDEST PUSH1 0x40 MLOAD DUP1 SWAP2 SUB SWAP1 RETURN JUMPDEST CALLVALUE DUP1 ISZERO PUSH2 0x2B9 JUMPI PUSH0 DUP1 REVERT JUMPDEST POP PUSH2 0x2C2 PUSH2 0x5C2 JUMP JUMPDEST PUSH1 0x40 MLOAD PUSH2 0x2CF SWAP2 SWAP1 PUSH2 0x197F JUMP JUMPDEST PUSH1 0x40 MLOAD DUP1 SWAP2 SUB SWAP1 RETURN JUMPDEST CALLVALUE DUP1 ISZERO PUSH2 0x2E3 JUMPI PUSH0 DUP1 REVERT JUMPDEST POP PUSH2 0x2FE PUSH1 0x4 DUP1 CALLDATASIZE SUB DUP2 ADD SWAP1 PUSH2 0x2F9 SWAP2 SWAP1 PUSH2 0x1A3D JUMP JUMPDEST PUSH2 0x660 JUMP JUMPDEST PUSH1 0x40 MLOAD PUSH2 0x30B SWAP2 SWAP1 PUSH2 0x1A95 JUMP JUMPDEST PUSH1 0x40 MLOAD DUP1 SWAP2 SUB SWAP1 RETURN JUMPDEST CALLVALUE DUP1 ISZERO PUSH2 0x31F JUMPI PUSH0 DUP1 REVERT JUMPDEST POP PUSH2 0x328 PUSH2 0x682 JUMP JUMPDEST PUSH1 0x40 MLOAD PUSH2 0x335 SWAP2 SWAP1 PUSH2 0x197F JUMP JUMPDEST PUSH1 0x40 MLOAD DUP1 SWAP2 SUB SWAP1 RETURN JUMPDEST CALLVALUE DUP1 ISZERO PUSH2 0x349 JUMPI PUSH0 DUP1 REVERT JUMPDEST POP PUSH2 0x364 PUSH1 0x4 DUP1 CALLDATASIZE SUB DUP2 ADD SWAP1 PUSH2 0x35F SWAP2 SWAP1 PUSH2 0x1D11 JUMP JUMPDEST PUSH2 0x6BB JUMP JUMPDEST STOP JUMPDEST CALLVALUE DUP1 ISZERO PUSH2 0x371 JUMPI PUSH0 DUP1 REVERT JUMPDEST POP PUSH2 0x38C PUSH1 0x4 DUP1 CALLDATASIZE SUB DUP2 ADD SWAP1 PUSH2 0x387 SWAP2 SWAP1 PUSH2 0x1D64 JUMP JUMPDEST PUSH2 0x8E2 JUMP JUMPDEST PUSH1 0x40 MLOAD PUSH2 0x399 SWAP2 SWAP1 PUSH2 0x1ABD JUMP JUMPDEST PUSH1 0x40 MLOAD DUP1 SWAP2 SUB SWAP1 RETURN JUMPDEST CALLVALUE DUP1 ISZERO PUSH2 0x3AD JUMPI PUSH0 DUP1 REVERT JUMPDEST POP PUSH2 0x3C8 PUSH1 0x4 DUP1 CALLDATASIZE SUB DUP2 ADD SWAP1 PUSH2 0x3C3 SWAP2 SWAP1 PUSH2 0x1D11 JUMP JUMPDEST PUSH2 0x972 JUMP JUMPDEST STOP JUMPDEST PUSH1 0x60 PUSH0 PUSH2 0x3D5 PUSH2 0x9F6 JUMP JUMPDEST SWAP1 POP DUP1 PUSH1 0x3 ADD DUP1 SLOAD PUSH2 0x3E6 SWAP1 PUSH2 0x1DCF JUMP JUMPDEST DUP1 PUSH1 0x1F ADD PUSH1 0x20 DUP1 SWAP2 DIV MUL PUSH1 0x20 ADD PUSH1 0x40 MLOAD SWAP1 DUP2 ADD PUSH1 0x40 MSTORE DUP1 SWAP3 SWAP2 SWAP1 DUP2 DUP2 MSTORE PUSH1 0x20 ADD DUP3 DUP1 SLOAD PUSH2 0x412 SWAP1 PUSH2 0x1DCF JUMP JUMPDEST DUP1 ISZERO PUSH2 0x45D JUMPI DUP1 PUSH1 0x1F LT PUSH2 0x434 JUMPI PUSH2 0x100 DUP1 DUP4 SLOAD DIV MUL DUP4 MSTORE SWAP2 PUSH1 0x20 ADD SWAP2 PUSH2 0x45D JUMP JUMPDEST DUP3 ADD SWAP2 SWAP1 PUSH0 MSTORE PUSH1 0x20 PUSH0 KECCAK256 SWAP1 JUMPDEST DUP2 SLOAD DUP2 MSTORE SWAP1 PUSH1 0x1 ADD SWAP1 PUSH1 0x20 ADD DUP1 DUP4 GT PUSH2 0x440 JUMPI DUP3 SWAP1 SUB PUSH1 0x1F AND DUP3 ADD SWAP2 JUMPDEST POP POP POP POP POP SWAP2 POP POP SWAP1 JUMP JUMPDEST PUSH0 DUP1 PUSH2 0x472 PUSH2 0xA1D JUMP JUMPDEST SWAP1 POP PUSH2 0x47F DUP2 DUP6 DUP6 PUSH2 0xA24 JUMP JUMPDEST PUSH1 0x1 SWAP2 POP POP SWAP3 SWAP2 POP POP JUMP JUMPDEST PUSH0 DUP1 PUSH2 0x494 PUSH2 0x9F6 JUMP JUMPDEST SWAP1 POP DUP1 PUSH1 0x2 ADD SLOAD SWAP2 POP POP SWAP1 JUMP JUMPDEST PUSH0 DUP1 PUSH2 0x4AB PUSH2 0xA1D JUMP JUMPDEST SWAP1 POP PUSH2 0x4B8 DUP6 DUP3 DUP6 PUSH2 0xA36 JUMP JUMPDEST PUSH2 0x4C3 DUP6 DUP6 DUP6 PUSH2 0xAC8 JUMP JUMPDEST PUSH1 0x1 SWAP2 POP POP SWAP4 SWAP3 POP POP POP JUMP JUMPDEST PUSH0 PUSH1 0x12 SWAP1 POP SWAP1 JUMP JUMPDEST PUSH2 0x4DF PUSH2 0xBB8 JUMP JUMPDEST PUSH2 0x4E8 DUP3 PUSH2 0xC9E JUMP JUMPDEST PUSH2 0x4F2 DUP3 DUP3 PUSH2 0xCA9 JUMP JUMPDEST POP POP JUMP JUMPDEST PUSH0 PUSH2 0x4FF PUSH2 0xDC7 JUMP JUMPDEST PUSH32 0x360894A13BA1A3210667C828492DB98DCA3E2076CC3735A920A3CA505D382BBC PUSH0 SHL SWAP1 POP SWAP1 JUMP JUMPDEST PUSH0 DUP1 PUSH2 0x531 PUSH2 0x9F6 JUMP JUMPDEST SWAP1 POP DUP1 PUSH0 ADD PUSH0 DUP5 PUSH20 0xFFFFFFFFFFFFFFFFFFFFFFFFFFFFFFFFFFFFFFFF AND PUSH20 0xFFFFFFFFFFFFFFFFFFFFFFFFFFFFFFFFFFFFFFFF AND DUP2 MSTORE PUSH1 0x20 ADD SWAP1 DUP2 MSTORE PUSH1 0x20 ADD PUSH0 KECCAK256 SLOAD SWAP2 POP POP SWAP2 SWAP1 POP JUMP JUMPDEST PUSH2 0x582 PUSH2 0xE4E JUMP JUMPDEST PUSH2 0x58B PUSH0 PUSH2 0xED5 JUMP JUMPDEST JUMP JUMPDEST PUSH0 DUP1 PUSH2 0x597 PUSH2 0xFA6 JUMP JUMPDEST SWAP1 POP DUP1 PUSH0 ADD PUSH0 SWAP1 SLOAD SWAP1 PUSH2 0x100 EXP SWAP1 DIV PUSH20 0xFFFFFFFFFFFFFFFFFFFFFFFFFFFFFFFFFFFFFFFF AND SWAP2 POP POP SWAP1 JUMP JUMPDEST PUSH1 0x60 PUSH0 PUSH2 0x5CD PUSH2 0x9F6 JUMP JUMPDEST SWAP1 POP DUP1 PUSH1 0x4 ADD DUP1 SLOAD PUSH2 0x5DE SWAP1 PUSH2 0x1DCF JUMP JUMPDEST DUP1 PUSH1 0x1F ADD PUSH1 0x20 DUP1 SWAP2 DIV MUL PUSH1 0x20 ADD PUSH1 0x40 MLOAD SWAP1 DUP2 ADD PUSH1 0x40 MSTORE DUP1 SWAP3 SWAP2 SWAP1 DUP2 DUP2 MSTORE PUSH1 0x20 ADD DUP3 DUP1 SLOAD PUSH2 0x60A SWAP1 PUSH2 0x1DCF JUMP JUMPDEST DUP1 ISZERO PUSH2 0x655 JUMPI DUP1 PUSH1 0x1F LT PUSH2 0x62C JUMPI PUSH2 0x100 DUP1 DUP4 SLOAD DIV MUL DUP4 MSTORE SWAP2 PUSH1 0x20 ADD SWAP2 PUSH2 0x655 JUMP JUMPDEST DUP3 ADD SWAP2 SWAP1 PUSH0 MSTORE PUSH1 0x20 PUSH0 KECCAK256 SWAP1 JUMPDEST DUP2 SLOAD DUP2 MSTORE SWAP1 PUSH1 0x1 ADD SWAP1 PUSH1 0x20 ADD DUP1 DUP4 GT PUSH2 0x638 JUMPI DUP3 SWAP1 SUB PUSH1 0x1F AND DUP3 ADD SWAP2 JUMPDEST POP POP POP POP POP SWAP2 POP POP SWAP1 JUMP JUMPDEST PUSH0 DUP1 PUSH2 0x66A PUSH2 0xA1D JUMP JUMPDEST SWAP1 POP PUSH2 0x677 DUP2 DUP6 DUP6 PUSH2 0xAC8 JUMP JUMPDEST PUSH1 0x1 SWAP2 POP POP SWAP3 SWAP2 POP POP JUMP JUMPDEST PUSH1 0x40 MLOAD DUP1 PUSH1 0x40 ADD PUSH1 0x40 MSTORE DUP1 PUSH1 0x5 DUP2 MSTORE PUSH1 0x20 ADD PUSH32 0x352E302E30000000000000000000000000000000000000000000000000000000 DUP2 MSTORE POP DUP2 JUMP JUMPDEST PUSH0 PUSH2 0x6C4 PUSH2 0xFCD JUMP JUMPDEST SWAP1 POP PUSH0 DUP2 PUSH0 ADD PUSH1 0x8 SWAP1 SLOAD SWAP1 PUSH2 0x100 EXP SWAP1 DIV PUSH1 0xFF AND ISZERO SWAP1 POP PUSH0 DUP3 PUSH0 ADD PUSH0 SWAP1 SLOAD SWAP1 PUSH2 0x100 EXP SWAP1 DIV PUSH8 0xFFFFFFFFFFFFFFFF AND SWAP1 POP PUSH0 DUP1 DUP3 PUSH8 0xFFFFFFFFFFFFFFFF AND EQ DUP1 ISZERO PUSH2 0x70C JUMPI POP DUP3 JUMPDEST SWAP1 POP PUSH0 PUSH1 0x1 DUP4 PUSH8 0xFFFFFFFFFFFFFFFF AND EQ DUP1 ISZERO PUSH2 0x73F JUMPI POP PUSH0 ADDRESS PUSH20 0xFFFFFFFFFFFFFFFFFFFFFFFFFFFFFFFFFFFFFFFF AND EXTCODESIZE EQ JUMPDEST SWAP1 POP DUP2 ISZERO DUP1 ISZERO PUSH2 0x74D JUMPI POP DUP1 ISZERO JUMPDEST ISZERO PUSH2 0x784 JUMPI PUSH1 0x40 MLOAD PUSH32 0xF92EE8A900000000000000000000000000000000000000000000000000000000 DUP2 MSTORE PUSH1 0x4 ADD PUSH1 0x40 MLOAD DUP1 SWAP2 SUB SWAP1 REVERT JUMPDEST PUSH1 0x1 DUP6 PUSH0 ADD PUSH0 PUSH2 0x100 EXP DUP2 SLOAD DUP2 PUSH8 0xFFFFFFFFFFFFFFFF MUL NOT AND SWAP1 DUP4 PUSH8 0xFFFFFFFFFFFFFFFF AND MUL OR SWAP1 SSTORE POP DUP4 ISZERO PUSH2 0x7D1 JUMPI PUSH1 0x1 DUP6 PUSH0 ADD PUSH1 0x8 PUSH2 0x100 EXP DUP2 SLOAD DUP2 PUSH1 0xFF MUL NOT AND SWAP1 DUP4 ISZERO ISZERO MUL OR SWAP1 SSTORE POP JUMPDEST PUSH2 0x845 PUSH1 0x40 MLOAD DUP1 PUSH1 0x40 ADD PUSH1 0x40 MSTORE DUP1 PUSH1 0x9 DUP2 MSTORE PUSH1 0x20 ADD PUSH32 0x4D697661546F6B656E0000000000000000000000000000000000000000000000 DUP2 MSTORE POP PUSH1 0x40 MLOAD DUP1 PUSH1 0x40 ADD PUSH1 0x40 MSTORE DUP1 PUSH1 0x3 DUP2 MSTORE PUSH1 0x20 ADD PUSH32 0x4D56540000000000000000000000000000000000000000000000000000000000 DUP2 MSTORE POP PUSH2 0xFF4 JUMP JUMPDEST PUSH2 0x84E DUP7 PUSH2 0x100A JUMP JUMPDEST PUSH2 0x856 PUSH2 0x101E JUMP JUMPDEST PUSH2 0x880 CALLER PUSH2 0x862 PUSH2 0x4CF JUMP JUMPDEST PUSH1 0xA PUSH2 0x86E SWAP2 SWAP1 PUSH2 0x1F5B JUMP JUMPDEST PUSH2 0x4E20 PUSH2 0x87B SWAP2 SWAP1 PUSH2 0x1FA5 JUMP JUMPDEST PUSH2 0x1028 JUMP JUMPDEST DUP4 ISZERO PUSH2 0x8DA JUMPI PUSH0 DUP6 PUSH0 ADD PUSH1 0x8 PUSH2 0x100 EXP DUP2 SLOAD DUP2 PUSH1 0xFF MUL NOT AND SWAP1 DUP4 ISZERO ISZERO MUL OR SWAP1 SSTORE POP PUSH32 0xC7F505B2F371AE2175EE4913F4499E1F2633A7B5936321EED1CDAEB6115181D2 PUSH1 0x1 PUSH1 0x40 MLOAD PUSH2 0x8D1 SWAP2 SWAP1 PUSH2 0x203B JUMP JUMPDEST PUSH1 0x40 MLOAD DUP1 SWAP2 SUB SWAP1 LOG1 JUMPDEST POP POP POP POP POP POP JUMP JUMPDEST PUSH0 DUP1 PUSH2 0x8EC PUSH2 0x9F6 JUMP JUMPDEST SWAP1 POP DUP1 PUSH1 0x1 ADD PUSH0 DUP6 PUSH20 0xFFFFFFFFFFFFFFFFFFFFFFFFFFFFFFFFFFFFFFFF AND PUSH20 0xFFFFFFFFFFFFFFFFFFFFFFFFFFFFFFFFFFFFFFFF AND DUP2 MSTORE PUSH1 0x20 ADD SWAP1 DUP2 MSTORE PUSH1 0x20 ADD PUSH0 KECCAK256 PUSH0 DUP5 PUSH20 0xFFFFFFFFFFFFFFFFFFFFFFFFFFFFFFFFFFFFFFFF AND PUSH20 0xFFFFFFFFFFFFFFFFFFFFFFFFFFFFFFFFFFFFFFFF AND DUP2 MSTORE PUSH1 0x20 ADD SWAP1 DUP2 MSTORE PUSH1 0x20 ADD PUSH0 KECCAK256 SLOAD SWAP2 POP POP SWAP3 SWAP2 POP POP JUMP JUMPDEST PUSH2 0x97A PUSH2 0xE4E JUMP JUMPDEST PUSH0 PUSH20 0xFFFFFFFFFFFFFFFFFFFFFFFFFFFFFFFFFFFFFFFF AND DUP2 PUSH20 0xFFFFFFFFFFFFFFFFFFFFFFFFFFFFFFFFFFFFFFFF AND SUB PUSH2 0x9EA JUMPI PUSH0 PUSH1 0x40 MLOAD PUSH32 0x1E4FBDF700000000000000000000000000000000000000000000000000000000 DUP2 MSTORE PUSH1 0x4 ADD PUSH2 0x9E1 SWAP2 SWAP1 PUSH2 0x1D4B JUMP JUMPDEST PUSH1 0x40 MLOAD DUP1 SWAP2 SUB SWAP1 REVERT JUMPDEST PUSH2 0x9F3 DUP2 PUSH2 0xED5 JUMP JUMPDEST POP JUMP JUMPDEST PUSH0 PUSH32 0x52C63247E1F47DB19D5CE0460030C497F067CA4CEBF71BA98EEADABE20BACE00 SWAP1 POP SWAP1 JUMP JUMPDEST PUSH0 CALLER SWAP1 POP SWAP1 JUMP JUMPDEST PUSH2 0xA31 DUP4 DUP4 DUP4 PUSH1 0x1 PUSH2 0x10A7 JUMP JUMPDEST POP POP POP JUMP JUMPDEST PUSH0 PUSH2 0xA41 DUP5 DUP5 PUSH2 0x8E2 JUMP JUMPDEST SWAP1 POP PUSH32 0xFFFFFFFFFFFFFFFFFFFFFFFFFFFFFFFFFFFFFFFFFFFFFFFFFFFFFFFFFFFFFFFF DUP2 EQ PUSH2 0xAC2 JUMPI DUP2 DUP2 LT ISZERO PUSH2 0xAB3 JUMPI DUP3 DUP2 DUP4 PUSH1 0x40 MLOAD PUSH32 0xFB8F41B200000000000000000000000000000000000000000000000000000000 DUP2 MSTORE PUSH1 0x4 ADD PUSH2 0xAAA SWAP4 SWAP3 SWAP2 SWAP1 PUSH2 0x2054 JUMP JUMPDEST PUSH1 0x40 MLOAD DUP1 SWAP2 SUB SWAP1 REVERT JUMPDEST PUSH2 0xAC1 DUP5 DUP5 DUP5 DUP5 SUB PUSH0 PUSH2 0x10A7 JUMP JUMPDEST JUMPDEST POP POP POP POP JUMP JUMPDEST PUSH0 PUSH20 0xFFFFFFFFFFFFFFFFFFFFFFFFFFFFFFFFFFFFFFFF AND DUP4 PUSH20 0xFFFFFFFFFFFFFFFFFFFFFFFFFFFFFFFFFFFFFFFF AND SUB PUSH2 0xB38 JUMPI PUSH0 PUSH1 0x40 MLOAD PUSH32 0x96C6FD1E00000000000000000000000000000000000000000000000000000000 DUP2 MSTORE PUSH1 0x4 ADD PUSH2 0xB2F SWAP2 SWAP1 PUSH2 0x1D4B JUMP JUMPDEST PUSH1 0x40 MLOAD DUP1 SWAP2 SUB SWAP1 REVERT JUMPDEST PUSH0 PUSH20 0xFFFFFFFFFFFFFFFFFFFFFFFFFFFFFFFFFFFFFFFF AND DUP3 PUSH20 0xFFFFFFFFFFFFFFFFFFFFFFFFFFFFFFFFFFFFFFFF AND SUB PUSH2 0xBA8 JUMPI PUSH0 PUSH1 0x40 MLOAD PUSH32 0xEC442F0500000000000000000000000000000000000000000000000000000000 DUP2 MSTORE PUSH1 0x4 ADD PUSH2 0xB9F SWAP2 SWAP1 PUSH2 0x1D4B JUMP JUMPDEST PUSH1 0x40 MLOAD DUP1 SWAP2 SUB SWAP1 REVERT JUMPDEST PUSH2 0xBB3 DUP4 DUP4 DUP4 PUSH2 0x1284 JUMP JUMPDEST POP POP POP JUMP JUMPDEST PUSH32 0x0 PUSH20 0xFFFFFFFFFFFFFFFFFFFFFFFFFFFFFFFFFFFFFFFF AND ADDRESS PUSH20 0xFFFFFFFFFFFFFFFFFFFFFFFFFFFFFFFFFFFFFFFF AND EQ DUP1 PUSH2 0xC65 JUMPI POP PUSH32 0x0 PUSH20 0xFFFFFFFFFFFFFFFFFFFFFFFFFFFFFFFFFFFFFFFF AND PUSH2 0xC4C PUSH2 0x14B3 JUMP JUMPDEST PUSH20 0xFFFFFFFFFFFFFFFFFFFFFFFFFFFFFFFFFFFFFFFF AND EQ ISZERO JUMPDEST ISZERO PUSH2 0xC9C JUMPI PUSH1 0x40 MLOAD PUSH32 0xE07C8DBA00000000000000000000000000000000000000000000000000000000 DUP2 MSTORE PUSH1 0x4 ADD PUSH1 0x40 MLOAD DUP1 SWAP2 SUB SWAP1 REVERT JUMPDEST JUMP JUMPDEST PUSH2 0xCA6 PUSH2 0xE4E JUMP JUMPDEST POP JUMP JUMPDEST DUP2 PUSH20 0xFFFFFFFFFFFFFFFFFFFFFFFFFFFFFFFFFFFFFFFF AND PUSH4 0x52D1902D PUSH1 0x40 MLOAD DUP2 PUSH4 0xFFFFFFFF AND PUSH1 0xE0 SHL DUP2 MSTORE PUSH1 0x4 ADD PUSH1 0x20 PUSH1 0x40 MLOAD DUP1 DUP4 SUB DUP2 DUP7 GAS STATICCALL SWAP3 POP POP POP DUP1 ISZERO PUSH2 0xD11 JUMPI POP PUSH1 0x40 MLOAD RETURNDATASIZE PUSH1 0x1F NOT PUSH1 0x1F DUP3 ADD AND DUP3 ADD DUP1 PUSH1 0x40 MSTORE POP DUP2 ADD SWAP1 PUSH2 0xD0E SWAP2 SWAP1 PUSH2 0x20B3 JUMP JUMPDEST PUSH1 0x1 JUMPDEST PUSH2 0xD52 JUMPI DUP2 PUSH1 0x40 MLOAD PUSH32 0x4C9C8CE300000000000000000000000000000000000000000000000000000000 DUP2 MSTORE PUSH1 0x4 ADD PUSH2 0xD49 SWAP2 SWAP1 PUSH2 0x1D4B JUMP JUMPDEST PUSH1 0x40 MLOAD DUP1 SWAP2 SUB SWAP1 REVERT JUMPDEST PUSH32 0x360894A13BA1A3210667C828492DB98DCA3E2076CC3735A920A3CA505D382BBC PUSH0 SHL DUP2 EQ PUSH2 0xDB8 JUMPI DUP1 PUSH1 0x40 MLOAD PUSH32 0xAA1D49A400000000000000000000000000000000000000000000000000000000 DUP2 MSTORE PUSH1 0x4 ADD PUSH2 0xDAF SWAP2 SWAP1 PUSH2 0x1CF8 JUMP JUMPDEST PUSH1 0x40 MLOAD DUP1 SWAP2 SUB SWAP1 REVERT JUMPDEST PUSH2 0xDC2 DUP4 DUP4 PUSH2 0x1506 JUMP JUMPDEST POP POP POP JUMP JUMPDEST PUSH32 0x0 PUSH20 0xFFFFFFFFFFFFFFFFFFFFFFFFFFFFFFFFFFFFFFFF AND ADDRESS PUSH20 0xFFFFFFFFFFFFFFFFFFFFFFFFFFFFFFFFFFFFFFFF AND EQ PUSH2 0xE4C JUMPI PUSH1 0x40 MLOAD PUSH32 0xE07C8DBA00000000000000000000000000000000000000000000000000000000 DUP2 MSTORE PUSH1 0x4 ADD PUSH1 0x40 MLOAD DUP1 SWAP2 SUB SWAP1 REVERT JUMPDEST JUMP JUMPDEST PUSH2 0xE56 PUSH2 0xA1D JUMP JUMPDEST PUSH20 0xFFFFFFFFFFFFFFFFFFFFFFFFFFFFFFFFFFFFFFFF AND PUSH2 0xE74 PUSH2 0x58D JUMP JUMPDEST PUSH20 0xFFFFFFFFFFFFFFFFFFFFFFFFFFFFFFFFFFFFFFFF AND EQ PUSH2 0xED3 JUMPI PUSH2 0xE97 PUSH2 0xA1D JUMP JUMPDEST PUSH1 0x40 MLOAD PUSH32 0x118CDAA700000000000000000000000000000000000000000000000000000000 DUP2 MSTORE PUSH1 0x4 ADD PUSH2 0xECA SWAP2 SWAP1 PUSH2 0x1D4B JUMP JUMPDEST PUSH1 0x40 MLOAD DUP1 SWAP2 SUB SWAP1 REVERT JUMPDEST JUMP JUMPDEST PUSH0 PUSH2 0xEDE PUSH2 0xFA6 JUMP JUMPDEST SWAP1 POP PUSH0 DUP2 PUSH0 ADD PUSH0 SWAP1 SLOAD SWAP1 PUSH2 0x100 EXP SWAP1 DIV PUSH20 0xFFFFFFFFFFFFFFFFFFFFFFFFFFFFFFFFFFFFFFFF AND SWAP1 POP DUP3 DUP3 PUSH0 ADD PUSH0 PUSH2 0x100 EXP DUP2 SLOAD DUP2 PUSH20 0xFFFFFFFFFFFFFFFFFFFFFFFFFFFFFFFFFFFFFFFF MUL NOT AND SWAP1 DUP4 PUSH20 0xFFFFFFFFFFFFFFFFFFFFFFFFFFFFFFFFFFFFFFFF AND MUL OR SWAP1 SSTORE POP DUP3 PUSH20 0xFFFFFFFFFFFFFFFFFFFFFFFFFFFFFFFFFFFFFFFF AND DUP2 PUSH20 0xFFFFFFFFFFFFFFFFFFFFFFFFFFFFFFFFFFFFFFFF AND PUSH32 0x8BE0079C531659141344CD1FD0A4F28419497F9722A3DAAFE3B4186F6B6457E0 PUSH1 0x40 MLOAD PUSH1 0x40 MLOAD DUP1 SWAP2 SUB SWAP1 LOG3 POP POP POP JUMP JUMPDEST PUSH0 PUSH32 0x9016D09D72D40FDAE2FD8CEAC6B6234C7706214FD39C1CD1E609A0528C199300 SWAP1 POP SWAP1 JUMP JUMPDEST PUSH0 PUSH32 0xF0C57E16840DF040F15088DC2F81FE391C3923BEC73E23A9662EFC9C229C6A00 SWAP1 POP SWAP1 JUMP JUMPDEST PUSH2 0xFFC PUSH2 0x1578 JUMP JUMPDEST PUSH2 0x1006 DUP3 DUP3 PUSH2 0x15B8 JUMP JUMPDEST POP POP JUMP JUMPDEST PUSH2 0x1012 PUSH2 0x1578 JUMP JUMPDEST PUSH2 0x101B DUP2 PUSH2 0x15F4 JUMP JUMPDEST POP JUMP JUMPDEST PUSH2 0x1026 PUSH2 0x1578 JUMP JUMPDEST JUMP JUMPDEST PUSH0 PUSH20 0xFFFFFFFFFFFFFFFFFFFFFFFFFFFFFFFFFFFFFFFF AND DUP3 PUSH20 0xFFFFFFFFFFFFFFFFFFFFFFFFFFFFFFFFFFFFFFFF AND SUB PUSH2 0x1098 JUMPI PUSH0 PUSH1 0x40 MLOAD PUSH32 0xEC442F0500000000000000000000000000000000000000000000000000000000 DUP2 MSTORE PUSH1 0x4 ADD PUSH2 0x108F SWAP2 SWAP1 PUSH2 0x1D4B JUMP JUMPDEST PUSH1 0x40 MLOAD DUP1 SWAP2 SUB SWAP1 REVERT JUMPDEST PUSH2 0x10A3 PUSH0 DUP4 DUP4 PUSH2 0x1284 JUMP JUMPDEST POP POP JUMP JUMPDEST PUSH0 PUSH2 0x10B0 PUSH2 0x9F6 JUMP JUMPDEST SWAP1 POP PUSH0 PUSH20 0xFFFFFFFFFFFFFFFFFFFFFFFFFFFFFFFFFFFFFFFF AND DUP6 PUSH20 0xFFFFFFFFFFFFFFFFFFFFFFFFFFFFFFFFFFFFFFFF AND SUB PUSH2 0x1122 JUMPI PUSH0 PUSH1 0x40 MLOAD PUSH32 0xE602DF0500000000000000000000000000000000000000000000000000000000 DUP2 MSTORE PUSH1 0x4 ADD PUSH2 0x1119 SWAP2 SWAP1 PUSH2 0x1D4B JUMP JUMPDEST PUSH1 0x40 MLOAD DUP1 SWAP2 SUB SWAP1 REVERT JUMPDEST PUSH0 PUSH20 0xFFFFFFFFFFFFFFFFFFFFFFFFFFFFFFFFFFFFFFFF AND DUP5 PUSH20 0xFFFFFFFFFFFFFFFFFFFFFFFFFFFFFFFFFFFFFFFF AND SUB PUSH2 0x1192 JUMPI PUSH0 PUSH1 0x40 MLOAD PUSH32 0x94280D6200000000000000000000000000000000000000000000000000000000 DUP2 MSTORE PUSH1 0x4 ADD PUSH2 0x1189 SWAP2 SWAP1 PUSH2 0x1D4B JUMP JUMPDEST PUSH1 0x40 MLOAD DUP1 SWAP2 SUB SWAP1 REVERT JUMPDEST DUP3 DUP2 PUSH1 0x1 ADD PUSH0 DUP8 PUSH20 0xFFFFFFFFFFFFFFFFFFFFFFFFFFFFFFFFFFFFFFFF AND PUSH20 0xFFFFFFFFFFFFFFFFFFFFFFFFFFFFFFFFFFFFFFFF AND DUP2 MSTORE PUSH1 0x20 ADD SWAP1 DUP2 MSTORE PUSH1 0x20 ADD PUSH0 KECCAK256 PUSH0 DUP7 PUSH20 0xFFFFFFFFFFFFFFFFFFFFFFFFFFFFFFFFFFFFFFFF AND PUSH20 0xFFFFFFFFFFFFFFFFFFFFFFFFFFFFFFFFFFFFFFFF AND DUP2 MSTORE PUSH1 0x20 ADD SWAP1 DUP2 MSTORE PUSH1 0x20 ADD PUSH0 KECCAK256 DUP2 SWAP1 SSTORE POP DUP2 ISZERO PUSH2 0x127D JUMPI DUP4 PUSH20 0xFFFFFFFFFFFFFFFFFFFFFFFFFFFFFFFFFFFFFFFF AND DUP6 PUSH20 0xFFFFFFFFFFFFFFFFFFFFFFFFFFFFFFFFFFFFFFFF AND PUSH32 0x8C5BE1E5EBEC7D5BD14F71427D1E84F3DD0314C0F7B2291E5B200AC8C7C3B925 DUP6 PUSH1 0x40 MLOAD PUSH2 0x1274 SWAP2 SWAP1 PUSH2 0x1ABD JUMP JUMPDEST PUSH1 0x40 MLOAD DUP1 SWAP2 SUB SWAP1 LOG3 JUMPDEST POP POP POP POP POP JUMP JUMPDEST PUSH0 PUSH2 0x128D PUSH2 0x9F6 JUMP JUMPDEST SWAP1 POP PUSH0 PUSH20 0xFFFFFFFFFFFFFFFFFFFFFFFFFFFFFFFFFFFFFFFF AND DUP5 PUSH20 0xFFFFFFFFFFFFFFFFFFFFFFFFFFFFFFFFFFFFFFFF AND SUB PUSH2 0x12E1 JUMPI DUP2 DUP2 PUSH1 0x2 ADD PUSH0 DUP3 DUP3 SLOAD PUSH2 0x12D5 SWAP2 SWAP1 PUSH2 0x20DE JUMP JUMPDEST SWAP3 POP POP DUP2 SWAP1 SSTORE POP PUSH2 0x13B3 JUMP JUMPDEST PUSH0 DUP2 PUSH0 ADD PUSH0 DUP7 PUSH20 0xFFFFFFFFFFFFFFFFFFFFFFFFFFFFFFFFFFFFFFFF AND PUSH20 0xFFFFFFFFFFFFFFFFFFFFFFFFFFFFFFFFFFFFFFFF AND DUP2 MSTORE PUSH1 0x20 ADD SWAP1 DUP2 MSTORE PUSH1 0x20 ADD PUSH0 KECCAK256 SLOAD SWAP1 POP DUP3 DUP2 LT ISZERO PUSH2 0x136C JUMPI DUP5 DUP2 DUP5 PUSH1 0x40 MLOAD PUSH32 0xE450D38C00000000000000000000000000000000000000000000000000000000 DUP2 MSTORE PUSH1 0x4 ADD PUSH2 0x1363 SWAP4 SWAP3 SWAP2 SWAP1 PUSH2 0x2054 JUMP JUMPDEST PUSH1 0x40 MLOAD DUP1 SWAP2 SUB SWAP1 REVERT JUMPDEST DUP3 DUP2 SUB DUP3 PUSH0 ADD PUSH0 DUP8 PUSH20 0xFFFFFFFFFFFFFFFFFFFFFFFFFFFFFFFFFFFFFFFF AND PUSH20 0xFFFFFFFFFFFFFFFFFFFFFFFFFFFFFFFFFFFFFFFF AND DUP2 MSTORE PUSH1 0x20 ADD SWAP1 DUP2 MSTORE PUSH1 0x20 ADD PUSH0 KECCAK256 DUP2 SWAP1 SSTORE POP POP JUMPDEST PUSH0 PUSH20 0xFFFFFFFFFFFFFFFFFFFFFFFFFFFFFFFFFFFFFFFF AND DUP4 PUSH20 0xFFFFFFFFFFFFFFFFFFFFFFFFFFFFFFFFFFFFFFFF AND SUB PUSH2 0x13FC JUMPI DUP2 DUP2 PUSH1 0x2 ADD PUSH0 DUP3 DUP3 SLOAD SUB SWAP3 POP POP DUP2 SWAP1 SSTORE POP PUSH2 0x1448 JUMP JUMPDEST DUP2 DUP2 PUSH0 ADD PUSH0 DUP6 PUSH20 0xFFFFFFFFFFFFFFFFFFFFFFFFFFFFFFFFFFFFFFFF AND PUSH20 0xFFFFFFFFFFFFFFFFFFFFFFFFFFFFFFFFFFFFFFFF AND DUP2 MSTORE PUSH1 0x20 ADD SWAP1 DUP2 MSTORE PUSH1 0x20 ADD PUSH0 KECCAK256 PUSH0 DUP3 DUP3 SLOAD ADD SWAP3 POP POP DUP2 SWAP1 SSTORE POP JUMPDEST DUP3 PUSH20 0xFFFFFFFFFFFFFFFFFFFFFFFFFFFFFFFFFFFFFFFF AND DUP5 PUSH20 0xFFFFFFFFFFFFFFFFFFFFFFFFFFFFFFFFFFFFFFFF AND PUSH32 0xDDF252AD1BE2C89B69C2B068FC378DAA952BA7F163C4A11628F55A4DF523B3EF DUP5 PUSH1 0x40 MLOAD PUSH2 0x14A5 SWAP2 SWAP1 PUSH2 0x1ABD JUMP JUMPDEST PUSH1 0x40 MLOAD DUP1 SWAP2 SUB SWAP1 LOG3 POP POP POP POP JUMP JUMPDEST PUSH0 PUSH2 0x14DF PUSH32 0x360894A13BA1A3210667C828492DB98DCA3E2076CC3735A920A3CA505D382BBC PUSH0 SHL PUSH2 0x1678 JUMP JUMPDEST PUSH0 ADD PUSH0 SWAP1 SLOAD SWAP1 PUSH2 0x100 EXP SWAP1 DIV PUSH20 0xFFFFFFFFFFFFFFFFFFFFFFFFFFFFFFFFFFFFFFFF AND SWAP1 POP SWAP1 JUMP JUMPDEST PUSH2 0x150F DUP3 PUSH2 0x1681 JUMP JUMPDEST DUP2 PUSH20 0xFFFFFFFFFFFFFFFFFFFFFFFFFFFFFFFFFFFFFFFF AND PUSH32 0xBC7CD75A20EE27FD9ADEBAB32041F755214DBC6BFFA90CC0225B39DA2E5C2D3B PUSH1 0x40 MLOAD PUSH1 0x40 MLOAD DUP1 SWAP2 SUB SWAP1 LOG2 PUSH0 DUP2 MLOAD GT ISZERO PUSH2 0x156B JUMPI PUSH2 0x1565 DUP3 DUP3 PUSH2 0x174A JUMP JUMPDEST POP PUSH2 0x1574 JUMP JUMPDEST PUSH2 0x1573 PUSH2 0x17CA JUMP JUMPDEST JUMPDEST POP POP JUMP JUMPDEST PUSH2 0x1580 PUSH2 0x1806 JUMP JUMPDEST PUSH2 0x15B6 JUMPI PUSH1 0x40 MLOAD PUSH32 0xD7E6BCF800000000000000000000000000000000000000000000000000000000 DUP2 MSTORE PUSH1 0x4 ADD PUSH1 0x40 MLOAD DUP1 SWAP2 SUB SWAP1 REVERT JUMPDEST JUMP JUMPDEST PUSH2 0x15C0 PUSH2 0x1578 JUMP JUMPDEST PUSH0 PUSH2 0x15C9 PUSH2 0x9F6 JUMP JUMPDEST SWAP1 POP DUP3 DUP2 PUSH1 0x3 ADD SWAP1 DUP2 PUSH2 0x15DC SWAP2 SWAP1 PUSH2 0x22A5 JUMP JUMPDEST POP DUP2 DUP2 PUSH1 0x4 ADD SWAP1 DUP2 PUSH2 0x15EE SWAP2 SWAP1 PUSH2 0x22A5 JUMP JUMPDEST POP POP POP POP JUMP JUMPDEST PUSH2 0x15FC PUSH2 0x1578 JUMP JUMPDEST PUSH0 PUSH20 0xFFFFFFFFFFFFFFFFFFFFFFFFFFFFFFFFFFFFFFFF AND DUP2 PUSH20 0xFFFFFFFFFFFFFFFFFFFFFFFFFFFFFFFFFFFFFFFF AND SUB PUSH2 0x166C JUMPI PUSH0 PUSH1 0x40 MLOAD PUSH32 0x1E4FBDF700000000000000000000000000000000000000000000000000000000 DUP2 MSTORE PUSH1 0x4 ADD PUSH2 0x1663 SWAP2 SWAP1 PUSH2 0x1D4B JUMP JUMPDEST PUSH1 0x40 MLOAD DUP1 SWAP2 SUB SWAP1 REVERT JUMPDEST PUSH2 0x1675 DUP2 PUSH2 0xED5 JUMP JUMPDEST POP JUMP JUMPDEST PUSH0 DUP2 SWAP1 POP SWAP2 SWAP1 POP JUMP JUMPDEST PUSH0 DUP2 PUSH20 0xFFFFFFFFFFFFFFFFFFFFFFFFFFFFFFFFFFFFFFFF AND EXTCODESIZE SUB PUSH2 0x16DC JUMPI DUP1 PUSH1 0x40 MLOAD PUSH32 0x4C9C8CE300000000000000000000000000000000000000000000000000000000 DUP2 MSTORE PUSH1 0x4 ADD PUSH2 0x16D3 SWAP2 SWAP1 PUSH2 0x1D4B JUMP JUMPDEST PUSH1 0x40 MLOAD DUP1 SWAP2 SUB SWAP1 REVERT JUMPDEST DUP1 PUSH2 0x1708 PUSH32 0x360894A13BA1A3210667C828492DB98DCA3E2076CC3735A920A3CA505D382BBC PUSH0 SHL PUSH2 0x1678 JUMP JUMPDEST PUSH0 ADD PUSH0 PUSH2 0x100 EXP DUP2 SLOAD DUP2 PUSH20 0xFFFFFFFFFFFFFFFFFFFFFFFFFFFFFFFFFFFFFFFF MUL NOT AND SWAP1 DUP4 PUSH20 0xFFFFFFFFFFFFFFFFFFFFFFFFFFFFFFFFFFFFFFFF AND MUL OR SWAP1 SSTORE POP POP JUMP JUMPDEST PUSH1 0x60 PUSH0 DUP1 DUP5 PUSH20 0xFFFFFFFFFFFFFFFFFFFFFFFFFFFFFFFFFFFFFFFF AND DUP5 PUSH1 0x40 MLOAD PUSH2 0x1773 SWAP2 SWAP1 PUSH2 0x23B8 JUMP JUMPDEST PUSH0 PUSH1 0x40 MLOAD DUP1 DUP4 SUB DUP2 DUP6 GAS DELEGATECALL SWAP2 POP POP RETURNDATASIZE DUP1 PUSH0 DUP2 EQ PUSH2 0x17AB JUMPI PUSH1 0x40 MLOAD SWAP2 POP PUSH1 0x1F NOT PUSH1 0x3F RETURNDATASIZE ADD AND DUP3 ADD PUSH1 0x40 MSTORE RETURNDATASIZE DUP3 MSTORE RETURNDATASIZE PUSH0 PUSH1 0x20 DUP5 ADD RETURNDATACOPY PUSH2 0x17B0 JUMP JUMPDEST PUSH1 0x60 SWAP2 POP JUMPDEST POP SWAP2 POP SWAP2 POP PUSH2 0x17C0 DUP6 DUP4 DUP4 PUSH2 0x1824 JUMP JUMPDEST SWAP3 POP POP POP SWAP3 SWAP2 POP POP JUMP JUMPDEST PUSH0 CALLVALUE GT ISZERO PUSH2 0x1804 JUMPI PUSH1 0x40 MLOAD PUSH32 0xB398979F00000000000000000000000000000000000000000000000000000000 DUP2 MSTORE PUSH1 0x4 ADD PUSH1 0x40 MLOAD DUP1 SWAP2 SUB SWAP1 REVERT JUMPDEST JUMP JUMPDEST PUSH0 PUSH2 0x180F PUSH2 0xFCD JUMP JUMPDEST PUSH0 ADD PUSH1 0x8 SWAP1 SLOAD SWAP1 PUSH2 0x100 EXP SWAP1 DIV PUSH1 0xFF AND SWAP1 POP SWAP1 JUMP JUMPDEST PUSH1 0x60 DUP3 PUSH2 0x1839 JUMPI PUSH2 0x1834 DUP3 PUSH2 0x18B1 JUMP JUMPDEST PUSH2 0x18A9 JUMP JUMPDEST PUSH0 DUP3 MLOAD EQ DUP1 ISZERO PUSH2 0x185F JUMPI POP PUSH0 DUP5 PUSH20 0xFFFFFFFFFFFFFFFFFFFFFFFFFFFFFFFFFFFFFFFF AND EXTCODESIZE EQ JUMPDEST ISZERO PUSH2 0x18A1 JUMPI DUP4 PUSH1 0x40 MLOAD PUSH32 0x9996B31500000000000000000000000000000000000000000000000000000000 DUP2 MSTORE PUSH1 0x4 ADD PUSH2 0x1898 SWAP2 SWAP1 PUSH2 0x1D4B JUMP JUMPDEST PUSH1 0x40 MLOAD DUP1 SWAP2 SUB SWAP1 REVERT JUMPDEST DUP2 SWAP1 POP PUSH2 0x18AA JUMP JUMPDEST JUMPDEST SWAP4 SWAP3 POP POP POP JUMP JUMPDEST PUSH0 DUP2 MLOAD GT ISZERO PUSH2 0x18C3 JUMPI DUP1 MLOAD DUP1 DUP3 PUSH1 0x20 ADD REVERT JUMPDEST PUSH1 0x40 MLOAD PUSH32 0x1425EA4200000000000000000000000000000000000000000000000000000000 DUP2 MSTORE PUSH1 0x4 ADD PUSH1 0x40 MLOAD DUP1 SWAP2 SUB SWAP1 REVERT JUMPDEST PUSH0 DUP2 MLOAD SWAP1 POP SWAP2 SWAP1 POP JUMP JUMPDEST PUSH0 DUP3 DUP3 MSTORE PUSH1 0x20 DUP3 ADD SWAP1 POP SWAP3 SWAP2 POP POP JUMP JUMPDEST PUSH0 JUMPDEST DUP4 DUP2 LT ISZERO PUSH2 0x192C JUMPI DUP1 DUP3 ADD MLOAD DUP2 DUP5 ADD MSTORE PUSH1 0x20 DUP2 ADD SWAP1 POP PUSH2 0x1911 JUMP JUMPDEST PUSH0 DUP5 DUP5 ADD MSTORE POP POP POP POP JUMP JUMPDEST PUSH0 PUSH1 0x1F NOT PUSH1 0x1F DUP4 ADD AND SWAP1 POP SWAP2 SWAP1 POP JUMP JUMPDEST PUSH0 PUSH2 0x1951 DUP3 PUSH2 0x18F5 JUMP JUMPDEST PUSH2 0x195B DUP2 DUP6 PUSH2 0x18FF JUMP JUMPDEST SWAP4 POP PUSH2 0x196B DUP2 DUP6 PUSH1 0x20 DUP7 ADD PUSH2 0x190F JUMP JUMPDEST PUSH2 0x1974 DUP2 PUSH2 0x1937 JUMP JUMPDEST DUP5 ADD SWAP2 POP POP SWAP3 SWAP2 POP POP JUMP JUMPDEST PUSH0 PUSH1 0x20 DUP3 ADD SWAP1 POP DUP2 DUP2 SUB PUSH0 DUP4 ADD MSTORE PUSH2 0x1997 DUP2 DUP5 PUSH2 0x1947 JUMP JUMPDEST SWAP1 POP SWAP3 SWAP2 POP POP JUMP JUMPDEST PUSH0 PUSH1 0x40 MLOAD SWAP1 POP SWAP1 JUMP JUMPDEST PUSH0 DUP1 REVERT JUMPDEST PUSH0 DUP1 REVERT JUMPDEST PUSH0 PUSH20 0xFFFFFFFFFFFFFFFFFFFFFFFFFFFFFFFFFFFFFFFF DUP3 AND SWAP1 POP SWAP2 SWAP1 POP JUMP JUMPDEST PUSH0 PUSH2 0x19D9 DUP3 PUSH2 0x19B0 JUMP JUMPDEST SWAP1 POP SWAP2 SWAP1 POP JUMP JUMPDEST PUSH2 0x19E9 DUP2 PUSH2 0x19CF JUMP JUMPDEST DUP2 EQ PUSH2 0x19F3 JUMPI PUSH0 DUP1 REVERT JUMPDEST POP JUMP JUMPDEST PUSH0 DUP2 CALLDATALOAD SWAP1 POP PUSH2 0x1A04 DUP2 PUSH2 0x19E0 JUMP JUMPDEST SWAP3 SWAP2 POP POP JUMP JUMPDEST PUSH0 DUP2 SWAP1 POP SWAP2 SWAP1 POP JUMP JUMPDEST PUSH2 0x1A1C DUP2 PUSH2 0x1A0A JUMP JUMPDEST DUP2 EQ PUSH2 0x1A26 JUMPI PUSH0 DUP1 REVERT JUMPDEST POP JUMP JUMPDEST PUSH0 DUP2 CALLDATALOAD SWAP1 POP PUSH2 0x1A37 DUP2 PUSH2 0x1A13 JUMP JUMPDEST SWAP3 SWAP2 POP POP JUMP JUMPDEST PUSH0 DUP1 PUSH1 0x40 DUP4 DUP6 SUB SLT ISZERO PUSH2 0x1A53 JUMPI PUSH2 0x1A52 PUSH2 0x19A8 JUMP JUMPDEST JUMPDEST PUSH0 PUSH2 0x1A60 DUP6 DUP3 DUP7 ADD PUSH2 0x19F6 JUMP JUMPDEST SWAP3 POP POP PUSH1 0x20 PUSH2 0x1A71 DUP6 DUP3 DUP7 ADD PUSH2 0x1A29 JUMP JUMPDEST SWAP2 POP POP SWAP3 POP SWAP3 SWAP1 POP JUMP JUMPDEST PUSH0 DUP2 ISZERO ISZERO SWAP1 POP SWAP2 SWAP1 POP JUMP JUMPDEST PUSH2 0x1A8F DUP2 PUSH2 0x1A7B JUMP JUMPDEST DUP3 MSTORE POP POP JUMP JUMPDEST PUSH0 PUSH1 0x20 DUP3 ADD SWAP1 POP PUSH2 0x1AA8 PUSH0 DUP4 ADD DUP5 PUSH2 0x1A86 JUMP JUMPDEST SWAP3 SWAP2 POP POP JUMP JUMPDEST PUSH2 0x1AB7 DUP2 PUSH2 0x1A0A JUMP JUMPDEST DUP3 MSTORE POP POP JUMP JUMPDEST PUSH0 PUSH1 0x20 DUP3 ADD SWAP1 POP PUSH2 0x1AD0 PUSH0 DUP4 ADD DUP5 PUSH2 0x1AAE JUMP JUMPDEST SWAP3 SWAP2 POP POP JUMP JUMPDEST PUSH0 DUP1 PUSH0 PUSH1 0x60 DUP5 DUP7 SUB SLT ISZERO PUSH2 0x1AED JUMPI PUSH2 0x1AEC PUSH2 0x19A8 JUMP JUMPDEST JUMPDEST PUSH0 PUSH2 0x1AFA DUP7 DUP3 DUP8 ADD PUSH2 0x19F6 JUMP JUMPDEST SWAP4 POP POP PUSH1 0x20 PUSH2 0x1B0B DUP7 DUP3 DUP8 ADD PUSH2 0x19F6 JUMP JUMPDEST SWAP3 POP POP PUSH1 0x40 PUSH2 0x1B1C DUP7 DUP3 DUP8 ADD PUSH2 0x1A29 JUMP JUMPDEST SWAP2 POP POP SWAP3 POP SWAP3 POP SWAP3 JUMP JUMPDEST PUSH0 PUSH1 0xFF DUP3 AND SWAP1 POP SWAP2 SWAP1 POP JUMP JUMPDEST PUSH2 0x1B3B DUP2 PUSH2 0x1B26 JUMP JUMPDEST DUP3 MSTORE POP POP JUMP JUMPDEST PUSH0 PUSH1 0x20 DUP3 ADD SWAP1 POP PUSH2 0x1B54 PUSH0 DUP4 ADD DUP5 PUSH2 0x1B32 JUMP JUMPDEST SWAP3 SWAP2 POP POP JUMP JUMPDEST PUSH0 DUP1 REVERT JUMPDEST PUSH0 DUP1 REVERT JUMPDEST PUSH32 0x4E487B7100000000000000000000000000000000000000000000000000000000 PUSH0 MSTORE PUSH1 0x41 PUSH1 0x4 MSTORE PUSH1 0x24 PUSH0 REVERT JUMPDEST PUSH2 0x1B98 DUP3 PUSH2 0x1937 JUMP JUMPDEST DUP2 ADD DUP2 DUP2 LT PUSH8 0xFFFFFFFFFFFFFFFF DUP3 GT OR ISZERO PUSH2 0x1BB7 JUMPI PUSH2 0x1BB6 PUSH2 0x1B62 JUMP JUMPDEST JUMPDEST DUP1 PUSH1 0x40 MSTORE POP POP POP JUMP JUMPDEST PUSH0 PUSH2 0x1BC9 PUSH2 0x199F JUMP JUMPDEST SWAP1 POP PUSH2 0x1BD5 DUP3 DUP3 PUSH2 0x1B8F JUMP JUMPDEST SWAP2 SWAP1 POP JUMP JUMPDEST PUSH0 PUSH8 0xFFFFFFFFFFFFFFFF DUP3 GT ISZERO PUSH2 0x1BF4 JUMPI PUSH2 0x1BF3 PUSH2 0x1B62 JUMP JUMPDEST JUMPDEST PUSH2 0x1BFD DUP3 PUSH2 0x1937 JUMP JUMPDEST SWAP1 POP PUSH1 0x20 DUP2 ADD SWAP1 POP SWAP2 SWAP1 POP JUMP JUMPDEST DUP3 DUP2 DUP4 CALLDATACOPY PUSH0 DUP4 DUP4 ADD MSTORE POP POP POP JUMP JUMPDEST PUSH0 PUSH2 0x1C2A PUSH2 0x1C25 DUP5 PUSH2 0x1BDA JUMP JUMPDEST PUSH2 0x1BC0 JUMP JUMPDEST SWAP1 POP DUP3 DUP2 MSTORE PUSH1 0x20 DUP2 ADD DUP5 DUP5 DUP5 ADD GT ISZERO PUSH2 0x1C46 JUMPI PUSH2 0x1C45 PUSH2 0x1B5E JUMP JUMPDEST JUMPDEST PUSH2 0x1C51 DUP5 DUP3 DUP6 PUSH2 0x1C0A JUMP JUMPDEST POP SWAP4 SWAP3 POP POP POP JUMP JUMPDEST PUSH0 DUP3 PUSH1 0x1F DUP4 ADD SLT PUSH2 0x1C6D JUMPI PUSH2 0x1C6C PUSH2 0x1B5A JUMP JUMPDEST JUMPDEST DUP2 CALLDATALOAD PUSH2 0x1C7D DUP5 DUP3 PUSH1 0x20 DUP7 ADD PUSH2 0x1C18 JUMP JUMPDEST SWAP2 POP POP SWAP3 SWAP2 POP POP JUMP JUMPDEST PUSH0 DUP1 PUSH1 0x40 DUP4 DUP6 SUB SLT ISZERO PUSH2 0x1C9C JUMPI PUSH2 0x1C9B PUSH2 0x19A8 JUMP JUMPDEST JUMPDEST PUSH0 PUSH2 0x1CA9 DUP6 DUP3 DUP7 ADD PUSH2 0x19F6 JUMP JUMPDEST SWAP3 POP POP PUSH1 0x20 DUP4 ADD CALLDATALOAD PUSH8 0xFFFFFFFFFFFFFFFF DUP2 GT ISZERO PUSH2 0x1CCA JUMPI PUSH2 0x1CC9 PUSH2 0x19AC JUMP JUMPDEST JUMPDEST PUSH2 0x1CD6 DUP6 DUP3 DUP7 ADD PUSH2 0x1C59 JUMP JUMPDEST SWAP2 POP POP SWAP3 POP SWAP3 SWAP1 POP JUMP JUMPDEST PUSH0 DUP2 SWAP1 POP SWAP2 SWAP1 POP JUMP JUMPDEST PUSH2 0x1CF2 DUP2 PUSH2 0x1CE0 JUMP JUMPDEST DUP3 MSTORE POP POP JUMP JUMPDEST PUSH0 PUSH1 0x20 DUP3 ADD SWAP1 POP PUSH2 0x1D0B PUSH0 DUP4 ADD DUP5 PUSH2 0x1CE9 JUMP JUMPDEST SWAP3 SWAP2 POP POP JUMP JUMPDEST PUSH0 PUSH1 0x20 DUP3 DUP5 SUB SLT ISZERO PUSH2 0x1D26 JUMPI PUSH2 0x1D25 PUSH2 0x19A8 JUMP JUMPDEST JUMPDEST PUSH0 PUSH2 0x1D33 DUP5 DUP3 DUP6 ADD PUSH2 0x19F6 JUMP JUMPDEST SWAP2 POP POP SWAP3 SWAP2 POP POP JUMP JUMPDEST PUSH2 0x1D45 DUP2 PUSH2 0x19CF JUMP JUMPDEST DUP3 MSTORE POP POP JUMP JUMPDEST PUSH0 PUSH1 0x20 DUP3 ADD SWAP1 POP PUSH2 0x1D5E PUSH0 DUP4 ADD DUP5 PUSH2 0x1D3C JUMP JUMPDEST SWAP3 SWAP2 POP POP JUMP JUMPDEST PUSH0 DUP1 PUSH1 0x40 DUP4 DUP6 SUB SLT ISZERO PUSH2 0x1D7A JUMPI PUSH2 0x1D79 PUSH2 0x19A8 JUMP JUMPDEST JUMPDEST PUSH0 PUSH2 0x1D87 DUP6 DUP3 DUP7 ADD PUSH2 0x19F6 JUMP JUMPDEST SWAP3 POP POP PUSH1 0x20 PUSH2 0x1D98 DUP6 DUP3 DUP7 ADD PUSH2 0x19F6 JUMP JUMPDEST SWAP2 POP POP SWAP3 POP SWAP3 SWAP1 POP JUMP JUMPDEST PUSH32 0x4E487B7100000000000000000000000000000000000000000000000000000000 PUSH0 MSTORE PUSH1 0x22 PUSH1 0x4 MSTORE PUSH1 0x24 PUSH0 REVERT JUMPDEST PUSH0 PUSH1 0x2 DUP3 DIV SWAP1 POP PUSH1 0x1 DUP3 AND DUP1 PUSH2 0x1DE6 JUMPI PUSH1 0x7F DUP3 AND SWAP2 POP JUMPDEST PUSH1 0x20 DUP3 LT DUP2 SUB PUSH2 0x1DF9 JUMPI PUSH2 0x1DF8 PUSH2 0x1DA2 JUMP JUMPDEST JUMPDEST POP SWAP2 SWAP1 POP JUMP JUMPDEST PUSH32 0x4E487B7100000000000000000000000000000000000000000000000000000000 PUSH0 MSTORE PUSH1 0x11 PUSH1 0x4 MSTORE PUSH1 0x24 PUSH0 REVERT JUMPDEST PUSH0 DUP2 PUSH1 0x1 SHR SWAP1 POP SWAP2 SWAP1 POP JUMP JUMPDEST PUSH0 DUP1 DUP3 SWAP2 POP DUP4 SWAP1 POP JUMPDEST PUSH1 0x1 DUP6 GT ISZERO PUSH2 0x1E81 JUMPI DUP1 DUP7 DIV DUP2 GT ISZERO PUSH2 0x1E5D JUMPI PUSH2 0x1E5C PUSH2 0x1DFF JUMP JUMPDEST JUMPDEST PUSH1 0x1 DUP6 AND ISZERO PUSH2 0x1E6C JUMPI DUP1 DUP3 MUL SWAP2 POP JUMPDEST DUP1 DUP2 MUL SWAP1 POP PUSH2 0x1E7A DUP6 PUSH2 0x1E2C JUMP JUMPDEST SWAP5 POP PUSH2 0x1E41 JUMP JUMPDEST SWAP5 POP SWAP5 SWAP3 POP POP POP JUMP JUMPDEST PUSH0 DUP3 PUSH2 0x1E99 JUMPI PUSH1 0x1 SWAP1 POP PUSH2 0x1F54 JUMP JUMPDEST DUP2 PUSH2 0x1EA6 JUMPI PUSH0 SWAP1 POP PUSH2 0x1F54 JUMP JUMPDEST DUP2 PUSH1 0x1 DUP2 EQ PUSH2 0x1EBC JUMPI PUSH1 0x2 DUP2 EQ PUSH2 0x1EC6 JUMPI PUSH2 0x1EF5 JUMP JUMPDEST PUSH1 0x1 SWAP2 POP POP PUSH2 0x1F54 JUMP JUMPDEST PUSH1 0xFF DUP5 GT ISZERO PUSH2 0x1ED8 JUMPI PUSH2 0x1ED7 PUSH2 0x1DFF JUMP JUMPDEST JUMPDEST DUP4 PUSH1 0x2 EXP SWAP2 POP DUP5 DUP3 GT ISZERO PUSH2 0x1EEF JUMPI PUSH2 0x1EEE PUSH2 0x1DFF JUMP JUMPDEST JUMPDEST POP PUSH2 0x1F54 JUMP JUMPDEST POP PUSH1 0x20 DUP4 LT PUSH2 0x133 DUP4 LT AND PUSH1 0x4E DUP5 LT PUSH1 0xB DUP5 LT AND OR ISZERO PUSH2 0x1F2A JUMPI DUP3 DUP3 EXP SWAP1 POP DUP4 DUP2 GT ISZERO PUSH2 0x1F25 JUMPI PUSH2 0x1F24 PUSH2 0x1DFF JUMP JUMPDEST JUMPDEST PUSH2 0x1F54 JUMP JUMPDEST PUSH2 0x1F37 DUP5 DUP5 DUP5 PUSH1 0x1 PUSH2 0x1E38 JUMP JUMPDEST SWAP3 POP SWAP1 POP DUP2 DUP5 DIV DUP2 GT ISZERO PUSH2 0x1F4E JUMPI PUSH2 0x1F4D PUSH2 0x1DFF JUMP JUMPDEST JUMPDEST DUP2 DUP2 MUL SWAP1 POP JUMPDEST SWAP4 SWAP3 POP POP POP JUMP JUMPDEST PUSH0 PUSH2 0x1F65 DUP3 PUSH2 0x1A0A JUMP JUMPDEST SWAP2 POP PUSH2 0x1F70 DUP4 PUSH2 0x1B26 JUMP JUMPDEST SWAP3 POP PUSH2 0x1F9D PUSH32 0xFFFFFFFFFFFFFFFFFFFFFFFFFFFFFFFFFFFFFFFFFFFFFFFFFFFFFFFFFFFFFFFF DUP5 DUP5 PUSH2 0x1E8A JUMP JUMPDEST SWAP1 POP SWAP3 SWAP2 POP POP JUMP JUMPDEST PUSH0 PUSH2 0x1FAF DUP3 PUSH2 0x1A0A JUMP JUMPDEST SWAP2 POP PUSH2 0x1FBA DUP4 PUSH2 0x1A0A JUMP JUMPDEST SWAP3 POP DUP3 DUP3 MUL PUSH2 0x1FC8 DUP2 PUSH2 0x1A0A JUMP JUMPDEST SWAP2 POP DUP3 DUP3 DIV DUP5 EQ DUP4 ISZERO OR PUSH2 0x1FDF JUMPI PUSH2 0x1FDE PUSH2 0x1DFF JUMP JUMPDEST JUMPDEST POP SWAP3 SWAP2 POP POP JUMP JUMPDEST PUSH0 DUP2 SWAP1 POP SWAP2 SWAP1 POP JUMP JUMPDEST PUSH0 PUSH8 0xFFFFFFFFFFFFFFFF DUP3 AND SWAP1 POP SWAP2 SWAP1 POP JUMP JUMPDEST PUSH0 DUP2 SWAP1 POP SWAP2 SWAP1 POP JUMP JUMPDEST PUSH0 PUSH2 0x2025 PUSH2 0x2020 PUSH2 0x201B DUP5 PUSH2 0x1FE6 JUMP JUMPDEST PUSH2 0x2002 JUMP JUMPDEST PUSH2 0x1FEF JUMP JUMPDEST SWAP1 POP SWAP2 SWAP1 POP JUMP JUMPDEST PUSH2 0x2035 DUP2 PUSH2 0x200B JUMP JUMPDEST DUP3 MSTORE POP POP JUMP JUMPDEST PUSH0 PUSH1 0x20 DUP3 ADD SWAP1 POP PUSH2 0x204E PUSH0 DUP4 ADD DUP5 PUSH2 0x202C JUMP JUMPDEST SWAP3 SWAP2 POP POP JUMP JUMPDEST PUSH0 PUSH1 0x60 DUP3 ADD SWAP1 POP PUSH2 0x2067 PUSH0 DUP4 ADD DUP7 PUSH2 0x1D3C JUMP JUMPDEST PUSH2 0x2074 PUSH1 0x20 DUP4 ADD DUP6 PUSH2 0x1AAE JUMP JUMPDEST PUSH2 0x2081 PUSH1 0x40 DUP4 ADD DUP5 PUSH2 0x1AAE JUMP JUMPDEST SWAP5 SWAP4 POP POP POP POP JUMP JUMPDEST PUSH2 0x2092 DUP2 PUSH2 0x1CE0 JUMP JUMPDEST DUP2 EQ PUSH2 0x209C JUMPI PUSH0 DUP1 REVERT JUMPDEST POP JUMP JUMPDEST PUSH0 DUP2 MLOAD SWAP1 POP PUSH2 0x20AD DUP2 PUSH2 0x2089 JUMP JUMPDEST SWAP3 SWAP2 POP POP JUMP JUMPDEST PUSH0 PUSH1 0x20 DUP3 DUP5 SUB SLT ISZERO PUSH2 0x20C8 JUMPI PUSH2 0x20C7 PUSH2 0x19A8 JUMP JUMPDEST JUMPDEST PUSH0 PUSH2 0x20D5 DUP5 DUP3 DUP6 ADD PUSH2 0x209F JUMP JUMPDEST SWAP2 POP POP SWAP3 SWAP2 POP POP JUMP JUMPDEST PUSH0 PUSH2 0x20E8 DUP3 PUSH2 0x1A0A JUMP JUMPDEST SWAP2 POP PUSH2 0x20F3 DUP4 PUSH2 0x1A0A JUMP JUMPDEST SWAP3 POP DUP3 DUP3 ADD SWAP1 POP DUP1 DUP3 GT ISZERO PUSH2 0x210B JUMPI PUSH2 0x210A PUSH2 0x1DFF JUMP JUMPDEST JUMPDEST SWAP3 SWAP2 POP POP JUMP JUMPDEST PUSH0 DUP2 SWAP1 POP DUP2 PUSH0 MSTORE PUSH1 0x20 PUSH0 KECCAK256 SWAP1 POP SWAP2 SWAP1 POP JUMP JUMPDEST PUSH0 PUSH1 0x20 PUSH1 0x1F DUP4 ADD DIV SWAP1 POP SWAP2 SWAP1 POP JUMP JUMPDEST PUSH0 DUP3 DUP3 SHL SWAP1 POP SWAP3 SWAP2 POP POP JUMP JUMPDEST PUSH0 PUSH1 0x8 DUP4 MUL PUSH2 0x216D PUSH32 0xFFFFFFFFFFFFFFFFFFFFFFFFFFFFFFFFFFFFFFFFFFFFFFFFFFFFFFFFFFFFFFFF DUP3 PUSH2 0x2132 JUMP JUMPDEST PUSH2 0x2177 DUP7 DUP4 PUSH2 0x2132 JUMP JUMPDEST SWAP6 POP DUP1 NOT DUP5 AND SWAP4 POP DUP1 DUP7 AND DUP5 OR SWAP3 POP POP POP SWAP4 SWAP3 POP POP POP JUMP JUMPDEST PUSH0 PUSH2 0x21A9 PUSH2 0x21A4 PUSH2 0x219F DUP5 PUSH2 0x1A0A JUMP JUMPDEST PUSH2 0x2002 JUMP JUMPDEST PUSH2 0x1A0A JUMP JUMPDEST SWAP1 POP SWAP2 SWAP1 POP JUMP JUMPDEST PUSH0 DUP2 SWAP1 POP SWAP2 SWAP1 POP JUMP JUMPDEST PUSH2 0x21C2 DUP4 PUSH2 0x218F JUMP JUMPDEST PUSH2 0x21D6 PUSH2 0x21CE DUP3 PUSH2 0x21B0 JUMP JUMPDEST DUP5 DUP5 SLOAD PUSH2 0x213E JUMP JUMPDEST DUP3 SSTORE POP POP POP POP JUMP JUMPDEST PUSH0 SWAP1 JUMP JUMPDEST PUSH2 0x21EA PUSH2 0x21DE JUMP JUMPDEST PUSH2 0x21F5 DUP2 DUP5 DUP5 PUSH2 0x21B9 JUMP JUMPDEST POP POP POP JUMP JUMPDEST JUMPDEST DUP2 DUP2 LT ISZERO PUSH2 0x2218 JUMPI PUSH2 0x220D PUSH0 DUP3 PUSH2 0x21E2 JUMP JUMPDEST PUSH1 0x1 DUP2 ADD SWAP1 POP PUSH2 0x21FB JUMP JUMPDEST POP POP JUMP JUMPDEST PUSH1 0x1F DUP3 GT ISZERO PUSH2 0x225D JUMPI PUSH2 0x222E DUP2 PUSH2 0x2111 JUMP JUMPDEST PUSH2 0x2237 DUP5 PUSH2 0x2123 JUMP JUMPDEST DUP2 ADD PUSH1 0x20 DUP6 LT ISZERO PUSH2 0x2246 JUMPI DUP2 SWAP1 POP JUMPDEST PUSH2 0x225A PUSH2 0x2252 DUP6 PUSH2 0x2123 JUMP JUMPDEST DUP4 ADD DUP3 PUSH2 0x21FA JUMP JUMPDEST POP POP JUMPDEST POP POP POP JUMP JUMPDEST PUSH0 DUP3 DUP3 SHR SWAP1 POP SWAP3 SWAP2 POP POP JUMP JUMPDEST PUSH0 PUSH2 0x227D PUSH0 NOT DUP5 PUSH1 0x8 MUL PUSH2 0x2262 JUMP JUMPDEST NOT DUP1 DUP4 AND SWAP2 POP POP SWAP3 SWAP2 POP POP JUMP JUMPDEST PUSH0 PUSH2 0x2295 DUP4 DUP4 PUSH2 0x226E JUMP JUMPDEST SWAP2 POP DUP3 PUSH1 0x2 MUL DUP3 OR SWAP1 POP SWAP3 SWAP2 POP POP JUMP JUMPDEST PUSH2 0x22AE DUP3 PUSH2 0x18F5 JUMP JUMPDEST PUSH8 0xFFFFFFFFFFFFFFFF DUP2 GT ISZERO PUSH2 0x22C7 JUMPI PUSH2 0x22C6 PUSH2 0x1B62 JUMP JUMPDEST JUMPDEST PUSH2 0x22D1 DUP3 SLOAD PUSH2 0x1DCF JUMP JUMPDEST PUSH2 0x22DC DUP3 DUP3 DUP6 PUSH2 0x221C JUMP JUMPDEST PUSH0 PUSH1 0x20 SWAP1 POP PUSH1 0x1F DUP4 GT PUSH1 0x1 DUP2 EQ PUSH2 0x230D JUMPI PUSH0 DUP5 ISZERO PUSH2 0x22FB JUMPI DUP3 DUP8 ADD MLOAD SWAP1 POP JUMPDEST PUSH2 0x2305 DUP6 DUP3 PUSH2 0x228A JUMP JUMPDEST DUP7 SSTORE POP PUSH2 0x236C JUMP JUMPDEST PUSH1 0x1F NOT DUP5 AND PUSH2 0x231B DUP7 PUSH2 0x2111 JUMP JUMPDEST PUSH0 JUMPDEST DUP3 DUP2 LT ISZERO PUSH2 0x2342 JUMPI DUP5 DUP10 ADD MLOAD DUP3 SSTORE PUSH1 0x1 DUP3 ADD SWAP2 POP PUSH1 0x20 DUP6 ADD SWAP5 POP PUSH1 0x20 DUP2 ADD SWAP1 POP PUSH2 0x231D JUMP JUMPDEST DUP7 DUP4 LT ISZERO PUSH2 0x235F JUMPI DUP5 DUP10 ADD MLOAD PUSH2 0x235B PUSH1 0x1F DUP10 AND DUP3 PUSH2 0x226E JUMP JUMPDEST DUP4 SSTORE POP JUMPDEST PUSH1 0x1 PUSH1 0x2 DUP9 MUL ADD DUP9 SSTORE POP POP POP JUMPDEST POP POP POP POP POP POP JUMP JUMPDEST PUSH0 DUP2 MLOAD SWAP1 POP SWAP2 SWAP1 POP JUMP JUMPDEST PUSH0 DUP2 SWAP1 POP SWAP3 SWAP2 POP POP JUMP JUMPDEST PUSH0 PUSH2 0x2392 DUP3 PUSH2 0x2374 JUMP JUMPDEST PUSH2 0x239C DUP2 DUP6 PUSH2 0x237E JUMP JUMPDEST SWAP4 POP PUSH2 0x23AC DUP2 DUP6 PUSH1 0x20 DUP7 ADD PUSH2 0x190F JUMP JUMPDEST DUP1 DUP5 ADD SWAP2 POP POP SWAP3 SWAP2 POP POP JUMP JUMPDEST PUSH0 PUSH2 0x23C3 DUP3 DUP5 PUSH2 0x2388 JUMP JUMPDEST SWAP2 POP DUP2 SWAP1 POP SWAP3 SWAP2 POP POP JUMP INVALID LOG2 PUSH5 0x6970667358 0x22 SLT KECCAK256 0xE0 0xAC 0xEA PUSH16 0x6450004465E88AE559F83695E01BB8BC 0x1E PUSH11 0x4E7C8498B6BE3AA086EB64 PUSH20 0x6F6C634300081600330000000000000000000000 "
				},
				"gasEstimates": {
					"creation": {
						"codeDepositCost": "1844000",
						"executionCost": "infinite",
						"totalCost": "infinite"
					},
					"external": {
						"UPGRADE_INTERFACE_VERSION()": "infinite",
						"allowance(address,address)": "infinite",
						"approve(address,uint256)": "infinite",
						"balanceOf(address)": "2970",
						"decimals()": "361",
						"initialize(address)": "infinite",
						"name()": "infinite",
						"owner()": "2612",
						"proxiableUUID()": "infinite",
						"renounceOwnership()": "infinite",
						"symbol()": "infinite",
						"totalSupply()": "2553",
						"transfer(address,uint256)": "infinite",
						"transferFrom(address,address,uint256)": "infinite",
						"transferOwnership(address)": "infinite",
						"upgradeToAndCall(address,bytes)": "infinite"
					},
					"internal": {
						"_authorizeUpgrade(address)": "infinite"
					}
				},
				"methodIdentifiers": {
					"UPGRADE_INTERFACE_VERSION()": "ad3cb1cc",
					"allowance(address,address)": "dd62ed3e",
					"approve(address,uint256)": "095ea7b3",
					"balanceOf(address)": "70a08231",
					"decimals()": "313ce567",
					"initialize(address)": "c4d66de8",
					"name()": "06fdde03",
					"owner()": "8da5cb5b",
					"proxiableUUID()": "52d1902d",
					"renounceOwnership()": "715018a6",
					"symbol()": "95d89b41",
					"totalSupply()": "18160ddd",
					"transfer(address,uint256)": "a9059cbb",
					"transferFrom(address,address,uint256)": "23b872dd",
					"transferOwnership(address)": "f2fde38b",
					"upgradeToAndCall(address,bytes)": "4f1ef286"
				}
			},
			"storageLayout": {
				"storage": [],
				"types": null
			},
			"userdoc": {
				"kind": "user",
				"methods": {},
				"version": 1
			}
		}
	}
}